{
	"tiny_boop.sol": {
		"ERC20": {
			"abi": [
				{
					"inputs": [],
					"stateMutability": "nonpayable",
					"type": "constructor"
				},
				{
					"anonymous": false,
					"inputs": [
						{
							"indexed": true,
							"internalType": "address",
							"name": "from",
							"type": "address"
						},
						{
							"indexed": true,
							"internalType": "address",
							"name": "to",
							"type": "address"
						},
						{
							"indexed": false,
							"internalType": "uint256",
							"name": "value",
							"type": "uint256"
						}
					],
					"name": "Transfer",
					"type": "event"
				},
				{
					"inputs": [
						{
							"internalType": "string",
							"name": "",
							"type": "string"
						}
					],
					"name": "_balances_pair",
					"outputs": [
						{
							"internalType": "uint256",
							"name": "",
							"type": "uint256"
						}
					],
					"stateMutability": "view",
					"type": "function"
				},
				{
					"inputs": [
						{
							"internalType": "address",
							"name": "account",
							"type": "address"
						}
					],
					"name": "balanceOf",
					"outputs": [
						{
							"internalType": "uint256",
							"name": "",
							"type": "uint256"
						}
					],
					"stateMutability": "view",
					"type": "function"
				},
				{
					"inputs": [
						{
							"internalType": "address",
							"name": "sender",
							"type": "address"
						},
						{
							"internalType": "address",
							"name": "receiver",
							"type": "address"
						}
					],
					"name": "balancePairOf",
					"outputs": [
						{
							"internalType": "uint256",
							"name": "",
							"type": "uint256"
						}
					],
					"stateMutability": "view",
					"type": "function"
				},
				{
					"inputs": [],
					"name": "decimals",
					"outputs": [
						{
							"internalType": "uint8",
							"name": "",
							"type": "uint8"
						}
					],
					"stateMutability": "view",
					"type": "function"
				},
				{
					"inputs": [],
					"name": "name",
					"outputs": [
						{
							"internalType": "string",
							"name": "",
							"type": "string"
						}
					],
					"stateMutability": "view",
					"type": "function"
				},
				{
					"inputs": [],
					"name": "symbol",
					"outputs": [
						{
							"internalType": "string",
							"name": "",
							"type": "string"
						}
					],
					"stateMutability": "view",
					"type": "function"
				},
				{
					"inputs": [],
					"name": "totalSupply",
					"outputs": [
						{
							"internalType": "uint256",
							"name": "",
							"type": "uint256"
						}
					],
					"stateMutability": "view",
					"type": "function"
				},
				{
					"inputs": [
						{
							"internalType": "address",
							"name": "to",
							"type": "address"
						},
						{
							"internalType": "uint256",
							"name": "amount",
							"type": "uint256"
						}
					],
					"name": "transfer",
					"outputs": [
						{
							"internalType": "bool",
							"name": "",
							"type": "bool"
						}
					],
					"stateMutability": "nonpayable",
					"type": "function"
				}
			],
			"devdoc": {
				"kind": "dev",
				"methods": {},
				"version": 1
			},
			"evm": {
				"assembly": "    /* \"tiny_boop.sol\":660:3890  contract ERC20 is Context {... */\n  mstore(0x40, 0x80)\n    /* \"tiny_boop.sol\":1068:1144  constructor() {... */\n  callvalue\n  dup1\n  iszero\n  tag_1\n  jumpi\n  0x00\n  dup1\n  revert\ntag_1:\n  pop\n    /* \"tiny_boop.sol\":1092:1111  _name = 'Tiny Boop' */\n  mload(0x40)\n  dup1\n  0x40\n  add\n  0x40\n  mstore\n  dup1\n  0x09\n  dup2\n  mstore\n  0x20\n  add\n  0x54696e7920426f6f700000000000000000000000000000000000000000000000\n  dup2\n  mstore\n  pop\n    /* \"tiny_boop.sol\":1092:1097  _name */\n  0x03\n    /* \"tiny_boop.sol\":1092:1111  _name = 'Tiny Boop' */\n  swap1\n  dup2\n  tag_4\n  swap2\n  swap1\n  tag_5\n  jump\t// in\ntag_4:\n  pop\n    /* \"tiny_boop.sol\":1121:1137  _symbol = 'Boop' */\n  mload(0x40)\n  dup1\n  0x40\n  add\n  0x40\n  mstore\n  dup1\n  0x04\n  dup2\n  mstore\n  0x20\n  add\n  0x426f6f7000000000000000000000000000000000000000000000000000000000\n  dup2\n  mstore\n  pop\n    /* \"tiny_boop.sol\":1121:1128  _symbol */\n  0x04\n    /* \"tiny_boop.sol\":1121:1137  _symbol = 'Boop' */\n  swap1\n  dup2\n  tag_6\n  swap2\n  swap1\n  tag_5\n  jump\t// in\ntag_6:\n  pop\n    /* \"tiny_boop.sol\":660:3890  contract ERC20 is Context {... */\n  jump(tag_7)\n    /* \"#utility.yul\":7:106   */\ntag_8:\n    /* \"#utility.yul\":59:65   */\n  0x00\n    /* \"#utility.yul\":93:98   */\n  dup2\n    /* \"#utility.yul\":87:99   */\n  mload\n    /* \"#utility.yul\":77:99   */\n  swap1\n  pop\n    /* \"#utility.yul\":7:106   */\n  swap2\n  swap1\n  pop\n  jump\t// out\n    /* \"#utility.yul\":112:292   */\ntag_9:\n    /* \"#utility.yul\":160:237   */\n  0x4e487b7100000000000000000000000000000000000000000000000000000000\n    /* \"#utility.yul\":157:158   */\n  0x00\n    /* \"#utility.yul\":150:238   */\n  mstore\n    /* \"#utility.yul\":257:261   */\n  0x41\n    /* \"#utility.yul\":254:255   */\n  0x04\n    /* \"#utility.yul\":247:262   */\n  mstore\n    /* \"#utility.yul\":281:285   */\n  0x24\n    /* \"#utility.yul\":278:279   */\n  0x00\n    /* \"#utility.yul\":271:286   */\n  revert\n    /* \"#utility.yul\":298:478   */\ntag_10:\n    /* \"#utility.yul\":346:423   */\n  0x4e487b7100000000000000000000000000000000000000000000000000000000\n    /* \"#utility.yul\":343:344   */\n  0x00\n    /* \"#utility.yul\":336:424   */\n  mstore\n    /* \"#utility.yul\":443:447   */\n  0x22\n    /* \"#utility.yul\":440:441   */\n  0x04\n    /* \"#utility.yul\":433:448   */\n  mstore\n    /* \"#utility.yul\":467:471   */\n  0x24\n    /* \"#utility.yul\":464:465   */\n  0x00\n    /* \"#utility.yul\":457:472   */\n  revert\n    /* \"#utility.yul\":484:804   */\ntag_11:\n    /* \"#utility.yul\":528:534   */\n  0x00\n    /* \"#utility.yul\":565:566   */\n  0x02\n    /* \"#utility.yul\":559:563   */\n  dup3\n    /* \"#utility.yul\":555:567   */\n  div\n    /* \"#utility.yul\":545:567   */\n  swap1\n  pop\n    /* \"#utility.yul\":612:613   */\n  0x01\n    /* \"#utility.yul\":606:610   */\n  dup3\n    /* \"#utility.yul\":602:614   */\n  and\n    /* \"#utility.yul\":633:651   */\n  dup1\n    /* \"#utility.yul\":623:704   */\n  tag_33\n  jumpi\n    /* \"#utility.yul\":689:693   */\n  0x7f\n    /* \"#utility.yul\":681:687   */\n  dup3\n    /* \"#utility.yul\":677:694   */\n  and\n    /* \"#utility.yul\":667:694   */\n  swap2\n  pop\n    /* \"#utility.yul\":623:704   */\ntag_33:\n    /* \"#utility.yul\":751:753   */\n  0x20\n    /* \"#utility.yul\":743:749   */\n  dup3\n    /* \"#utility.yul\":740:754   */\n  lt\n    /* \"#utility.yul\":720:738   */\n  dup2\n    /* \"#utility.yul\":717:755   */\n  sub\n    /* \"#utility.yul\":714:798   */\n  tag_34\n  jumpi\n    /* \"#utility.yul\":770:788   */\n  tag_35\n  tag_10\n  jump\t// in\ntag_35:\n    /* \"#utility.yul\":714:798   */\ntag_34:\n    /* \"#utility.yul\":535:804   */\n  pop\n    /* \"#utility.yul\":484:804   */\n  swap2\n  swap1\n  pop\n  jump\t// out\n    /* \"#utility.yul\":810:951   */\ntag_12:\n    /* \"#utility.yul\":859:863   */\n  0x00\n    /* \"#utility.yul\":882:885   */\n  dup2\n    /* \"#utility.yul\":874:885   */\n  swap1\n  pop\n    /* \"#utility.yul\":905:908   */\n  dup2\n    /* \"#utility.yul\":902:903   */\n  0x00\n    /* \"#utility.yul\":895:909   */\n  mstore\n    /* \"#utility.yul\":939:943   */\n  0x20\n    /* \"#utility.yul\":936:937   */\n  0x00\n    /* \"#utility.yul\":926:944   */\n  keccak256\n    /* \"#utility.yul\":918:944   */\n  swap1\n  pop\n    /* \"#utility.yul\":810:951   */\n  swap2\n  swap1\n  pop\n  jump\t// out\n    /* \"#utility.yul\":957:1050   */\ntag_13:\n    /* \"#utility.yul\":994:1000   */\n  0x00\n    /* \"#utility.yul\":1041:1043   */\n  0x20\n    /* \"#utility.yul\":1036:1038   */\n  0x1f\n    /* \"#utility.yul\":1029:1034   */\n  dup4\n    /* \"#utility.yul\":1025:1039   */\n  add\n    /* \"#utility.yul\":1021:1044   */\n  div\n    /* \"#utility.yul\":1011:1044   */\n  swap1\n  pop\n    /* \"#utility.yul\":957:1050   */\n  swap2\n  swap1\n  pop\n  jump\t// out\n    /* \"#utility.yul\":1056:1163   */\ntag_14:\n    /* \"#utility.yul\":1100:1108   */\n  0x00\n    /* \"#utility.yul\":1150:1155   */\n  dup3\n    /* \"#utility.yul\":1144:1148   */\n  dup3\n    /* \"#utility.yul\":1140:1156   */\n  shl\n    /* \"#utility.yul\":1119:1156   */\n  swap1\n  pop\n    /* \"#utility.yul\":1056:1163   */\n  swap3\n  swap2\n  pop\n  pop\n  jump\t// out\n    /* \"#utility.yul\":1169:1562   */\ntag_15:\n    /* \"#utility.yul\":1238:1244   */\n  0x00\n    /* \"#utility.yul\":1288:1289   */\n  0x08\n    /* \"#utility.yul\":1276:1286   */\n  dup4\n    /* \"#utility.yul\":1272:1290   */\n  mul\n    /* \"#utility.yul\":1311:1408   */\n  tag_40\n    /* \"#utility.yul\":1341:1407   */\n  0xffffffffffffffffffffffffffffffffffffffffffffffffffffffffffffffff\n    /* \"#utility.yul\":1330:1339   */\n  dup3\n    /* \"#utility.yul\":1311:1408   */\n  tag_14\n  jump\t// in\ntag_40:\n    /* \"#utility.yul\":1429:1468   */\n  tag_41\n    /* \"#utility.yul\":1459:1467   */\n  dup7\n    /* \"#utility.yul\":1448:1457   */\n  dup4\n    /* \"#utility.yul\":1429:1468   */\n  tag_14\n  jump\t// in\ntag_41:\n    /* \"#utility.yul\":1417:1468   */\n  swap6\n  pop\n    /* \"#utility.yul\":1501:1505   */\n  dup1\n    /* \"#utility.yul\":1497:1506   */\n  not\n    /* \"#utility.yul\":1490:1495   */\n  dup5\n    /* \"#utility.yul\":1486:1507   */\n  and\n    /* \"#utility.yul\":1477:1507   */\n  swap4\n  pop\n    /* \"#utility.yul\":1550:1554   */\n  dup1\n    /* \"#utility.yul\":1540:1548   */\n  dup7\n    /* \"#utility.yul\":1536:1555   */\n  and\n    /* \"#utility.yul\":1529:1534   */\n  dup5\n    /* \"#utility.yul\":1526:1556   */\n  or\n    /* \"#utility.yul\":1516:1556   */\n  swap3\n  pop\n    /* \"#utility.yul\":1245:1562   */\n  pop\n  pop\n    /* \"#utility.yul\":1169:1562   */\n  swap4\n  swap3\n  pop\n  pop\n  pop\n  jump\t// out\n    /* \"#utility.yul\":1568:1645   */\ntag_16:\n    /* \"#utility.yul\":1605:1612   */\n  0x00\n    /* \"#utility.yul\":1634:1639   */\n  dup2\n    /* \"#utility.yul\":1623:1639   */\n  swap1\n  pop\n    /* \"#utility.yul\":1568:1645   */\n  swap2\n  swap1\n  pop\n  jump\t// out\n    /* \"#utility.yul\":1651:1711   */\ntag_17:\n    /* \"#utility.yul\":1679:1682   */\n  0x00\n    /* \"#utility.yul\":1700:1705   */\n  dup2\n    /* \"#utility.yul\":1693:1705   */\n  swap1\n  pop\n    /* \"#utility.yul\":1651:1711   */\n  swap2\n  swap1\n  pop\n  jump\t// out\n    /* \"#utility.yul\":1717:1859   */\ntag_18:\n    /* \"#utility.yul\":1767:1776   */\n  0x00\n    /* \"#utility.yul\":1800:1853   */\n  tag_45\n    /* \"#utility.yul\":1818:1852   */\n  tag_46\n    /* \"#utility.yul\":1827:1851   */\n  tag_47\n    /* \"#utility.yul\":1845:1850   */\n  dup5\n    /* \"#utility.yul\":1827:1851   */\n  tag_16\n  jump\t// in\ntag_47:\n    /* \"#utility.yul\":1818:1852   */\n  tag_17\n  jump\t// in\ntag_46:\n    /* \"#utility.yul\":1800:1853   */\n  tag_16\n  jump\t// in\ntag_45:\n    /* \"#utility.yul\":1787:1853   */\n  swap1\n  pop\n    /* \"#utility.yul\":1717:1859   */\n  swap2\n  swap1\n  pop\n  jump\t// out\n    /* \"#utility.yul\":1865:1940   */\ntag_19:\n    /* \"#utility.yul\":1908:1911   */\n  0x00\n    /* \"#utility.yul\":1929:1934   */\n  dup2\n    /* \"#utility.yul\":1922:1934   */\n  swap1\n  pop\n    /* \"#utility.yul\":1865:1940   */\n  swap2\n  swap1\n  pop\n  jump\t// out\n    /* \"#utility.yul\":1946:2215   */\ntag_20:\n    /* \"#utility.yul\":2056:2095   */\n  tag_50\n    /* \"#utility.yul\":2087:2094   */\n  dup4\n    /* \"#utility.yul\":2056:2095   */\n  tag_18\n  jump\t// in\ntag_50:\n    /* \"#utility.yul\":2117:2208   */\n  tag_51\n    /* \"#utility.yul\":2166:2207   */\n  tag_52\n    /* \"#utility.yul\":2190:2206   */\n  dup3\n    /* \"#utility.yul\":2166:2207   */\n  tag_19\n  jump\t// in\ntag_52:\n    /* \"#utility.yul\":2158:2164   */\n  dup5\n    /* \"#utility.yul\":2151:2155   */\n  dup5\n    /* \"#utility.yul\":2145:2156   */\n  sload\n    /* \"#utility.yul\":2117:2208   */\n  tag_15\n  jump\t// in\ntag_51:\n    /* \"#utility.yul\":2111:2115   */\n  dup3\n    /* \"#utility.yul\":2104:2209   */\n  sstore\n    /* \"#utility.yul\":2022:2215   */\n  pop\n    /* \"#utility.yul\":1946:2215   */\n  pop\n  pop\n  pop\n  jump\t// out\n    /* \"#utility.yul\":2221:2294   */\ntag_21:\n    /* \"#utility.yul\":2266:2269   */\n  0x00\n    /* \"#utility.yul\":2221:2294   */\n  swap1\n  jump\t// out\n    /* \"#utility.yul\":2300:2489   */\ntag_22:\n    /* \"#utility.yul\":2377:2409   */\n  tag_55\n  tag_21\n  jump\t// in\ntag_55:\n    /* \"#utility.yul\":2418:2483   */\n  tag_56\n    /* \"#utility.yul\":2476:2482   */\n  dup2\n    /* \"#utility.yul\":2468:2474   */\n  dup5\n    /* \"#utility.yul\":2462:2466   */\n  dup5\n    /* \"#utility.yul\":2418:2483   */\n  tag_20\n  jump\t// in\ntag_56:\n    /* \"#utility.yul\":2353:2489   */\n  pop\n    /* \"#utility.yul\":2300:2489   */\n  pop\n  pop\n  jump\t// out\n    /* \"#utility.yul\":2495:2681   */\ntag_23:\n    /* \"#utility.yul\":2555:2675   */\ntag_58:\n    /* \"#utility.yul\":2572:2575   */\n  dup2\n    /* \"#utility.yul\":2565:2570   */\n  dup2\n    /* \"#utility.yul\":2562:2576   */\n  lt\n    /* \"#utility.yul\":2555:2675   */\n  iszero\n  tag_60\n  jumpi\n    /* \"#utility.yul\":2626:2665   */\n  tag_61\n    /* \"#utility.yul\":2663:2664   */\n  0x00\n    /* \"#utility.yul\":2656:2661   */\n  dup3\n    /* \"#utility.yul\":2626:2665   */\n  tag_22\n  jump\t// in\ntag_61:\n    /* \"#utility.yul\":2599:2600   */\n  0x01\n    /* \"#utility.yul\":2592:2597   */\n  dup2\n    /* \"#utility.yul\":2588:2601   */\n  add\n    /* \"#utility.yul\":2579:2601   */\n  swap1\n  pop\n    /* \"#utility.yul\":2555:2675   */\n  jump(tag_58)\ntag_60:\n    /* \"#utility.yul\":2495:2681   */\n  pop\n  pop\n  jump\t// out\n    /* \"#utility.yul\":2687:3230   */\ntag_24:\n    /* \"#utility.yul\":2788:2790   */\n  0x1f\n    /* \"#utility.yul\":2783:2786   */\n  dup3\n    /* \"#utility.yul\":2780:2791   */\n  gt\n    /* \"#utility.yul\":2777:3223   */\n  iszero\n  tag_63\n  jumpi\n    /* \"#utility.yul\":2822:2860   */\n  tag_64\n    /* \"#utility.yul\":2854:2859   */\n  dup2\n    /* \"#utility.yul\":2822:2860   */\n  tag_12\n  jump\t// in\ntag_64:\n    /* \"#utility.yul\":2906:2935   */\n  tag_65\n    /* \"#utility.yul\":2924:2934   */\n  dup5\n    /* \"#utility.yul\":2906:2935   */\n  tag_13\n  jump\t// in\ntag_65:\n    /* \"#utility.yul\":2896:2904   */\n  dup2\n    /* \"#utility.yul\":2892:2936   */\n  add\n    /* \"#utility.yul\":3089:3091   */\n  0x20\n    /* \"#utility.yul\":3077:3087   */\n  dup6\n    /* \"#utility.yul\":3074:3092   */\n  lt\n    /* \"#utility.yul\":3071:3120   */\n  iszero\n  tag_66\n  jumpi\n    /* \"#utility.yul\":3110:3118   */\n  dup2\n    /* \"#utility.yul\":3095:3118   */\n  swap1\n  pop\n    /* \"#utility.yul\":3071:3120   */\ntag_66:\n    /* \"#utility.yul\":3133:3213   */\n  tag_67\n    /* \"#utility.yul\":3189:3211   */\n  tag_68\n    /* \"#utility.yul\":3207:3210   */\n  dup6\n    /* \"#utility.yul\":3189:3211   */\n  tag_13\n  jump\t// in\ntag_68:\n    /* \"#utility.yul\":3179:3187   */\n  dup4\n    /* \"#utility.yul\":3175:3212   */\n  add\n    /* \"#utility.yul\":3162:3173   */\n  dup3\n    /* \"#utility.yul\":3133:3213   */\n  tag_23\n  jump\t// in\ntag_67:\n    /* \"#utility.yul\":2792:3223   */\n  pop\n  pop\n    /* \"#utility.yul\":2777:3223   */\ntag_63:\n    /* \"#utility.yul\":2687:3230   */\n  pop\n  pop\n  pop\n  jump\t// out\n    /* \"#utility.yul\":3236:3353   */\ntag_25:\n    /* \"#utility.yul\":3290:3298   */\n  0x00\n    /* \"#utility.yul\":3340:3345   */\n  dup3\n    /* \"#utility.yul\":3334:3338   */\n  dup3\n    /* \"#utility.yul\":3330:3346   */\n  shr\n    /* \"#utility.yul\":3309:3346   */\n  swap1\n  pop\n    /* \"#utility.yul\":3236:3353   */\n  swap3\n  swap2\n  pop\n  pop\n  jump\t// out\n    /* \"#utility.yul\":3359:3528   */\ntag_26:\n    /* \"#utility.yul\":3403:3409   */\n  0x00\n    /* \"#utility.yul\":3436:3487   */\n  tag_71\n    /* \"#utility.yul\":3484:3485   */\n  0x00\n    /* \"#utility.yul\":3480:3486   */\n  not\n    /* \"#utility.yul\":3472:3477   */\n  dup5\n    /* \"#utility.yul\":3469:3470   */\n  0x08\n    /* \"#utility.yul\":3465:3478   */\n  mul\n    /* \"#utility.yul\":3436:3487   */\n  tag_25\n  jump\t// in\ntag_71:\n    /* \"#utility.yul\":3432:3488   */\n  not\n    /* \"#utility.yul\":3517:3521   */\n  dup1\n    /* \"#utility.yul\":3511:3515   */\n  dup4\n    /* \"#utility.yul\":3507:3522   */\n  and\n    /* \"#utility.yul\":3497:3522   */\n  swap2\n  pop\n    /* \"#utility.yul\":3410:3528   */\n  pop\n    /* \"#utility.yul\":3359:3528   */\n  swap3\n  swap2\n  pop\n  pop\n  jump\t// out\n    /* \"#utility.yul\":3533:3828   */\ntag_27:\n    /* \"#utility.yul\":3609:3613   */\n  0x00\n    /* \"#utility.yul\":3755:3784   */\n  tag_73\n    /* \"#utility.yul\":3780:3783   */\n  dup4\n    /* \"#utility.yul\":3774:3778   */\n  dup4\n    /* \"#utility.yul\":3755:3784   */\n  tag_26\n  jump\t// in\ntag_73:\n    /* \"#utility.yul\":3747:3784   */\n  swap2\n  pop\n    /* \"#utility.yul\":3817:3820   */\n  dup3\n    /* \"#utility.yul\":3814:3815   */\n  0x02\n    /* \"#utility.yul\":3810:3821   */\n  mul\n    /* \"#utility.yul\":3804:3808   */\n  dup3\n    /* \"#utility.yul\":3801:3822   */\n  or\n    /* \"#utility.yul\":3793:3822   */\n  swap1\n  pop\n    /* \"#utility.yul\":3533:3828   */\n  swap3\n  swap2\n  pop\n  pop\n  jump\t// out\n    /* \"#utility.yul\":3833:5228   */\ntag_5:\n    /* \"#utility.yul\":3950:3987   */\n  tag_75\n    /* \"#utility.yul\":3983:3986   */\n  dup3\n    /* \"#utility.yul\":3950:3987   */\n  tag_8\n  jump\t// in\ntag_75:\n    /* \"#utility.yul\":4052:4070   */\n  0xffffffffffffffff\n    /* \"#utility.yul\":4044:4050   */\n  dup2\n    /* \"#utility.yul\":4041:4071   */\n  gt\n    /* \"#utility.yul\":4038:4094   */\n  iszero\n  tag_76\n  jumpi\n    /* \"#utility.yul\":4074:4092   */\n  tag_77\n  tag_9\n  jump\t// in\ntag_77:\n    /* \"#utility.yul\":4038:4094   */\ntag_76:\n    /* \"#utility.yul\":4118:4156   */\n  tag_78\n    /* \"#utility.yul\":4150:4154   */\n  dup3\n    /* \"#utility.yul\":4144:4155   */\n  sload\n    /* \"#utility.yul\":4118:4156   */\n  tag_11\n  jump\t// in\ntag_78:\n    /* \"#utility.yul\":4203:4270   */\n  tag_79\n    /* \"#utility.yul\":4263:4269   */\n  dup3\n    /* \"#utility.yul\":4255:4261   */\n  dup3\n    /* \"#utility.yul\":4249:4253   */\n  dup6\n    /* \"#utility.yul\":4203:4270   */\n  tag_24\n  jump\t// in\ntag_79:\n    /* \"#utility.yul\":4297:4298   */\n  0x00\n    /* \"#utility.yul\":4321:4325   */\n  0x20\n    /* \"#utility.yul\":4308:4325   */\n  swap1\n  pop\n    /* \"#utility.yul\":4353:4355   */\n  0x1f\n    /* \"#utility.yul\":4345:4351   */\n  dup4\n    /* \"#utility.yul\":4342:4356   */\n  gt\n    /* \"#utility.yul\":4370:4371   */\n  0x01\n    /* \"#utility.yul\":4365:4983   */\n  dup2\n  eq\n  tag_81\n  jumpi\n    /* \"#utility.yul\":5027:5028   */\n  0x00\n    /* \"#utility.yul\":5044:5050   */\n  dup5\n    /* \"#utility.yul\":5041:5118   */\n  iszero\n  tag_82\n  jumpi\n    /* \"#utility.yul\":5093:5102   */\n  dup3\n    /* \"#utility.yul\":5088:5091   */\n  dup8\n    /* \"#utility.yul\":5084:5103   */\n  add\n    /* \"#utility.yul\":5078:5104   */\n  mload\n    /* \"#utility.yul\":5069:5104   */\n  swap1\n  pop\n    /* \"#utility.yul\":5041:5118   */\ntag_82:\n    /* \"#utility.yul\":5144:5211   */\n  tag_83\n    /* \"#utility.yul\":5204:5210   */\n  dup6\n    /* \"#utility.yul\":5197:5202   */\n  dup3\n    /* \"#utility.yul\":5144:5211   */\n  tag_27\n  jump\t// in\ntag_83:\n    /* \"#utility.yul\":5138:5142   */\n  dup7\n    /* \"#utility.yul\":5131:5212   */\n  sstore\n    /* \"#utility.yul\":5000:5222   */\n  pop\n    /* \"#utility.yul\":4335:5222   */\n  jump(tag_80)\n    /* \"#utility.yul\":4365:4983   */\ntag_81:\n    /* \"#utility.yul\":4417:4421   */\n  0x1f\n    /* \"#utility.yul\":4413:4422   */\n  not\n    /* \"#utility.yul\":4405:4411   */\n  dup5\n    /* \"#utility.yul\":4401:4423   */\n  and\n    /* \"#utility.yul\":4451:4488   */\n  tag_84\n    /* \"#utility.yul\":4483:4487   */\n  dup7\n    /* \"#utility.yul\":4451:4488   */\n  tag_12\n  jump\t// in\ntag_84:\n    /* \"#utility.yul\":4510:4511   */\n  0x00\n    /* \"#utility.yul\":4524:4732   */\ntag_85:\n    /* \"#utility.yul\":4538:4545   */\n  dup3\n    /* \"#utility.yul\":4535:4536   */\n  dup2\n    /* \"#utility.yul\":4532:4546   */\n  lt\n    /* \"#utility.yul\":4524:4732   */\n  iszero\n  tag_87\n  jumpi\n    /* \"#utility.yul\":4617:4626   */\n  dup5\n    /* \"#utility.yul\":4612:4615   */\n  dup10\n    /* \"#utility.yul\":4608:4627   */\n  add\n    /* \"#utility.yul\":4602:4628   */\n  mload\n    /* \"#utility.yul\":4594:4600   */\n  dup3\n    /* \"#utility.yul\":4587:4629   */\n  sstore\n    /* \"#utility.yul\":4668:4669   */\n  0x01\n    /* \"#utility.yul\":4660:4666   */\n  dup3\n    /* \"#utility.yul\":4656:4670   */\n  add\n    /* \"#utility.yul\":4646:4670   */\n  swap2\n  pop\n    /* \"#utility.yul\":4715:4717   */\n  0x20\n    /* \"#utility.yul\":4704:4713   */\n  dup6\n    /* \"#utility.yul\":4700:4718   */\n  add\n    /* \"#utility.yul\":4687:4718   */\n  swap5\n  pop\n    /* \"#utility.yul\":4561:4565   */\n  0x20\n    /* \"#utility.yul\":4558:4559   */\n  dup2\n    /* \"#utility.yul\":4554:4566   */\n  add\n    /* \"#utility.yul\":4549:4566   */\n  swap1\n  pop\n    /* \"#utility.yul\":4524:4732   */\n  jump(tag_85)\ntag_87:\n    /* \"#utility.yul\":4760:4766   */\n  dup7\n    /* \"#utility.yul\":4751:4758   */\n  dup4\n    /* \"#utility.yul\":4748:4767   */\n  lt\n    /* \"#utility.yul\":4745:4924   */\n  iszero\n  tag_88\n  jumpi\n    /* \"#utility.yul\":4818:4827   */\n  dup5\n    /* \"#utility.yul\":4813:4816   */\n  dup10\n    /* \"#utility.yul\":4809:4828   */\n  add\n    /* \"#utility.yul\":4803:4829   */\n  mload\n    /* \"#utility.yul\":4861:4909   */\n  tag_89\n    /* \"#utility.yul\":4903:4907   */\n  0x1f\n    /* \"#utility.yul\":4895:4901   */\n  dup10\n    /* \"#utility.yul\":4891:4908   */\n  and\n    /* \"#utility.yul\":4880:4889   */\n  dup3\n    /* \"#utility.yul\":4861:4909   */\n  tag_26\n  jump\t// in\ntag_89:\n    /* \"#utility.yul\":4853:4859   */\n  dup4\n    /* \"#utility.yul\":4846:4910   */\n  sstore\n    /* \"#utility.yul\":4768:4924   */\n  pop\n    /* \"#utility.yul\":4745:4924   */\ntag_88:\n    /* \"#utility.yul\":4970:4971   */\n  0x01\n    /* \"#utility.yul\":4966:4967   */\n  0x02\n    /* \"#utility.yul\":4958:4964   */\n  dup9\n    /* \"#utility.yul\":4954:4968   */\n  mul\n    /* \"#utility.yul\":4950:4972   */\n  add\n    /* \"#utility.yul\":4944:4948   */\n  dup9\n    /* \"#utility.yul\":4937:4973   */\n  sstore\n    /* \"#utility.yul\":4372:4983   */\n  pop\n  pop\n  pop\n    /* \"#utility.yul\":4335:5222   */\ntag_80:\n  pop\n    /* \"#utility.yul\":3925:5228   */\n  pop\n  pop\n  pop\n    /* \"#utility.yul\":3833:5228   */\n  pop\n  pop\n  jump\t// out\n    /* \"tiny_boop.sol\":660:3890  contract ERC20 is Context {... */\ntag_7:\n  dataSize(sub_0)\n  dup1\n  dataOffset(sub_0)\n  0x00\n  codecopy\n  0x00\n  return\nstop\n\nsub_0: assembly {\n        /* \"tiny_boop.sol\":660:3890  contract ERC20 is Context {... */\n      mstore(0x40, 0x80)\n      callvalue\n      dup1\n      iszero\n      tag_1\n      jumpi\n      0x00\n      dup1\n      revert\n    tag_1:\n      pop\n      jumpi(tag_2, lt(calldatasize, 0x04))\n      shr(0xe0, calldataload(0x00))\n      dup1\n      0x89de1f5f\n      gt\n      tag_11\n      jumpi\n      dup1\n      0x89de1f5f\n      eq\n      tag_7\n      jumpi\n      dup1\n      0x95d89b41\n      eq\n      tag_8\n      jumpi\n      dup1\n      0xa9059cbb\n      eq\n      tag_9\n      jumpi\n      dup1\n      0xeb55bc6b\n      eq\n      tag_10\n      jumpi\n      jump(tag_2)\n    tag_11:\n      dup1\n      0x06fdde03\n      eq\n      tag_3\n      jumpi\n      dup1\n      0x18160ddd\n      eq\n      tag_4\n      jumpi\n      dup1\n      0x313ce567\n      eq\n      tag_5\n      jumpi\n      dup1\n      0x70a08231\n      eq\n      tag_6\n      jumpi\n    tag_2:\n      0x00\n      dup1\n      revert\n        /* \"tiny_boop.sol\":1169:1258  function name() public view virtual returns (string memory) {... */\n    tag_3:\n      tag_12\n      tag_13\n      jump\t// in\n    tag_12:\n      mload(0x40)\n      tag_14\n      swap2\n      swap1\n      tag_15\n      jump\t// in\n    tag_14:\n      mload(0x40)\n      dup1\n      swap2\n      sub\n      swap1\n      return\n        /* \"tiny_boop.sol\":1451:1548  function totalSupply() public view virtual returns (uint256) {... */\n    tag_4:\n      tag_16\n      tag_17\n      jump\t// in\n    tag_16:\n      mload(0x40)\n      tag_18\n      swap2\n      swap1\n      tag_19\n      jump\t// in\n    tag_18:\n      mload(0x40)\n      dup1\n      swap2\n      sub\n      swap1\n      return\n        /* \"tiny_boop.sol\":1364:1445  function decimals() public view virtual returns (uint8) {... */\n    tag_5:\n      tag_20\n      tag_21\n      jump\t// in\n    tag_20:\n      mload(0x40)\n      tag_22\n      swap2\n      swap1\n      tag_23\n      jump\t// in\n    tag_22:\n      mload(0x40)\n      dup1\n      swap2\n      sub\n      swap1\n      return\n        /* \"tiny_boop.sol\":2324:2440  function balanceOf(address account) public view virtual returns (uint256) {... */\n    tag_6:\n      tag_24\n      0x04\n      dup1\n      calldatasize\n      sub\n      dup2\n      add\n      swap1\n      tag_25\n      swap2\n      swap1\n      tag_26\n      jump\t// in\n    tag_25:\n      tag_27\n      jump\t// in\n    tag_24:\n      mload(0x40)\n      tag_28\n      swap2\n      swap1\n      tag_19\n      jump\t// in\n    tag_28:\n      mload(0x40)\n      dup1\n      swap2\n      sub\n      swap1\n      return\n        /* \"tiny_boop.sol\":795:844  mapping (string => uint256) public _balances_pair */\n    tag_7:\n      tag_29\n      0x04\n      dup1\n      calldatasize\n      sub\n      dup2\n      add\n      swap1\n      tag_30\n      swap2\n      swap1\n      tag_31\n      jump\t// in\n    tag_30:\n      tag_32\n      jump\t// in\n    tag_29:\n      mload(0x40)\n      tag_33\n      swap2\n      swap1\n      tag_19\n      jump\t// in\n    tag_33:\n      mload(0x40)\n      dup1\n      swap2\n      sub\n      swap1\n      return\n        /* \"tiny_boop.sol\":1265:1358  function symbol() public view virtual returns (string memory) {... */\n    tag_8:\n      tag_34\n      tag_35\n      jump\t// in\n    tag_34:\n      mload(0x40)\n      tag_36\n      swap2\n      swap1\n      tag_15\n      jump\t// in\n    tag_36:\n      mload(0x40)\n      dup1\n      swap2\n      sub\n      swap1\n      return\n        /* \"tiny_boop.sol\":2477:2657  function transfer(address to, uint256 amount) public virtual returns (bool) {... */\n    tag_9:\n      tag_37\n      0x04\n      dup1\n      calldatasize\n      sub\n      dup2\n      add\n      swap1\n      tag_38\n      swap2\n      swap1\n      tag_39\n      jump\t// in\n    tag_38:\n      tag_40\n      jump\t// in\n    tag_37:\n      mload(0x40)\n      tag_41\n      swap2\n      swap1\n      tag_42\n      jump\t// in\n    tag_41:\n      mload(0x40)\n      dup1\n      swap2\n      sub\n      swap1\n      return\n        /* \"tiny_boop.sol\":1571:2298  function balancePairOf(address sender, address receiver) external view returns (uint256) {... */\n    tag_10:\n      tag_43\n      0x04\n      dup1\n      calldatasize\n      sub\n      dup2\n      add\n      swap1\n      tag_44\n      swap2\n      swap1\n      tag_45\n      jump\t// in\n    tag_44:\n      tag_46\n      jump\t// in\n    tag_43:\n      mload(0x40)\n      tag_47\n      swap2\n      swap1\n      tag_19\n      jump\t// in\n    tag_47:\n      mload(0x40)\n      dup1\n      swap2\n      sub\n      swap1\n      return\n        /* \"tiny_boop.sol\":1169:1258  function name() public view virtual returns (string memory) {... */\n    tag_13:\n        /* \"tiny_boop.sol\":1214:1227  string memory */\n      0x60\n        /* \"tiny_boop.sol\":1246:1251  _name */\n      0x03\n        /* \"tiny_boop.sol\":1239:1251  return _name */\n      dup1\n      sload\n      tag_49\n      swap1\n      tag_50\n      jump\t// in\n    tag_49:\n      dup1\n      0x1f\n      add\n      0x20\n      dup1\n      swap2\n      div\n      mul\n      0x20\n      add\n      mload(0x40)\n      swap1\n      dup2\n      add\n      0x40\n      mstore\n      dup1\n      swap3\n      swap2\n      swap1\n      dup2\n      dup2\n      mstore\n      0x20\n      add\n      dup3\n      dup1\n      sload\n      tag_51\n      swap1\n      tag_50\n      jump\t// in\n    tag_51:\n      dup1\n      iszero\n      tag_52\n      jumpi\n      dup1\n      0x1f\n      lt\n      tag_53\n      jumpi\n      0x0100\n      dup1\n      dup4\n      sload\n      div\n      mul\n      dup4\n      mstore\n      swap2\n      0x20\n      add\n      swap2\n      jump(tag_52)\n    tag_53:\n      dup3\n      add\n      swap2\n      swap1\n      0x00\n      mstore\n      keccak256(0x00, 0x20)\n      swap1\n    tag_54:\n      dup2\n      sload\n      dup2\n      mstore\n      swap1\n      0x01\n      add\n      swap1\n      0x20\n      add\n      dup1\n      dup4\n      gt\n      tag_54\n      jumpi\n      dup3\n      swap1\n      sub\n      0x1f\n      and\n      dup3\n      add\n      swap2\n    tag_52:\n      pop\n      pop\n      pop\n      pop\n      pop\n      swap1\n      pop\n        /* \"tiny_boop.sol\":1169:1258  function name() public view virtual returns (string memory) {... */\n      swap1\n      jump\t// out\n        /* \"tiny_boop.sol\":1451:1548  function totalSupply() public view virtual returns (uint256) {... */\n    tag_17:\n        /* \"tiny_boop.sol\":1503:1510  uint256 */\n      0x00\n        /* \"tiny_boop.sol\":1529:1541  _totalSupply */\n      sload(0x02)\n        /* \"tiny_boop.sol\":1522:1541  return _totalSupply */\n      swap1\n      pop\n        /* \"tiny_boop.sol\":1451:1548  function totalSupply() public view virtual returns (uint256) {... */\n      swap1\n      jump\t// out\n        /* \"tiny_boop.sol\":1364:1445  function decimals() public view virtual returns (uint8) {... */\n    tag_21:\n        /* \"tiny_boop.sol\":1413:1418  uint8 */\n      0x00\n        /* \"tiny_boop.sol\":1437:1438  1 */\n      0x01\n        /* \"tiny_boop.sol\":1430:1438  return 1 */\n      swap1\n      pop\n        /* \"tiny_boop.sol\":1364:1445  function decimals() public view virtual returns (uint8) {... */\n      swap1\n      jump\t// out\n        /* \"tiny_boop.sol\":2324:2440  function balanceOf(address account) public view virtual returns (uint256) {... */\n    tag_27:\n        /* \"tiny_boop.sol\":2389:2396  uint256 */\n      0x00\n        /* \"tiny_boop.sol\":2415:2424  _balances */\n      dup1\n        /* \"tiny_boop.sol\":2415:2433  _balances[account] */\n      0x00\n        /* \"tiny_boop.sol\":2425:2432  account */\n      dup4\n        /* \"tiny_boop.sol\":2415:2433  _balances[account] */\n      0xffffffffffffffffffffffffffffffffffffffff\n      and\n      0xffffffffffffffffffffffffffffffffffffffff\n      and\n      dup2\n      mstore\n      0x20\n      add\n      swap1\n      dup2\n      mstore\n      0x20\n      add\n      0x00\n      keccak256\n      sload\n        /* \"tiny_boop.sol\":2408:2433  return _balances[account] */\n      swap1\n      pop\n        /* \"tiny_boop.sol\":2324:2440  function balanceOf(address account) public view virtual returns (uint256) {... */\n      swap2\n      swap1\n      pop\n      jump\t// out\n        /* \"tiny_boop.sol\":795:844  mapping (string => uint256) public _balances_pair */\n    tag_32:\n      0x01\n      dup2\n      dup1\n      mload\n      0x20\n      dup2\n      add\n      dup3\n      add\n      dup1\n      mload\n      dup5\n      dup3\n      mstore\n      0x20\n      dup4\n      add\n      0x20\n      dup6\n      add\n      keccak256\n      dup2\n      dup4\n      mstore\n      dup1\n      swap6\n      pop\n      pop\n      pop\n      pop\n      pop\n      pop\n      0x00\n      swap2\n      pop\n      swap1\n      pop\n      sload\n      dup2\n      jump\t// out\n        /* \"tiny_boop.sol\":1265:1358  function symbol() public view virtual returns (string memory) {... */\n    tag_35:\n        /* \"tiny_boop.sol\":1312:1325  string memory */\n      0x60\n        /* \"tiny_boop.sol\":1344:1351  _symbol */\n      0x04\n        /* \"tiny_boop.sol\":1337:1351  return _symbol */\n      dup1\n      sload\n      tag_59\n      swap1\n      tag_50\n      jump\t// in\n    tag_59:\n      dup1\n      0x1f\n      add\n      0x20\n      dup1\n      swap2\n      div\n      mul\n      0x20\n      add\n      mload(0x40)\n      swap1\n      dup2\n      add\n      0x40\n      mstore\n      dup1\n      swap3\n      swap2\n      swap1\n      dup2\n      dup2\n      mstore\n      0x20\n      add\n      dup3\n      dup1\n      sload\n      tag_60\n      swap1\n      tag_50\n      jump\t// in\n    tag_60:\n      dup1\n      iszero\n      tag_61\n      jumpi\n      dup1\n      0x1f\n      lt\n      tag_62\n      jumpi\n      0x0100\n      dup1\n      dup4\n      sload\n      div\n      mul\n      dup4\n      mstore\n      swap2\n      0x20\n      add\n      swap2\n      jump(tag_61)\n    tag_62:\n      dup3\n      add\n      swap2\n      swap1\n      0x00\n      mstore\n      keccak256(0x00, 0x20)\n      swap1\n    tag_63:\n      dup2\n      sload\n      dup2\n      mstore\n      swap1\n      0x01\n      add\n      swap1\n      0x20\n      add\n      dup1\n      dup4\n      gt\n      tag_63\n      jumpi\n      dup3\n      swap1\n      sub\n      0x1f\n      and\n      dup3\n      add\n      swap2\n    tag_61:\n      pop\n      pop\n      pop\n      pop\n      pop\n      swap1\n      pop\n        /* \"tiny_boop.sol\":1265:1358  function symbol() public view virtual returns (string memory) {... */\n      swap1\n      jump\t// out\n        /* \"tiny_boop.sol\":2477:2657  function transfer(address to, uint256 amount) public virtual returns (bool) {... */\n    tag_40:\n        /* \"tiny_boop.sol\":2547:2551  bool */\n      0x00\n        /* \"tiny_boop.sol\":2563:2576  address owner */\n      dup1\n        /* \"tiny_boop.sol\":2579:2591  _msgSender() */\n      tag_65\n        /* \"tiny_boop.sol\":2579:2589  _msgSender */\n      tag_66\n        /* \"tiny_boop.sol\":2579:2591  _msgSender() */\n      jump\t// in\n    tag_65:\n        /* \"tiny_boop.sol\":2563:2591  address owner = _msgSender() */\n      swap1\n      pop\n        /* \"tiny_boop.sol\":2601:2629  _transfer(owner, to, amount) */\n      tag_67\n        /* \"tiny_boop.sol\":2611:2616  owner */\n      dup2\n        /* \"tiny_boop.sol\":2618:2620  to */\n      dup6\n        /* \"tiny_boop.sol\":2622:2628  amount */\n      dup6\n        /* \"tiny_boop.sol\":2601:2610  _transfer */\n      tag_68\n        /* \"tiny_boop.sol\":2601:2629  _transfer(owner, to, amount) */\n      jump\t// in\n    tag_67:\n        /* \"tiny_boop.sol\":2646:2650  true */\n      0x01\n        /* \"tiny_boop.sol\":2639:2650  return true */\n      swap2\n      pop\n      pop\n        /* \"tiny_boop.sol\":2477:2657  function transfer(address to, uint256 amount) public virtual returns (bool) {... */\n      swap3\n      swap2\n      pop\n      pop\n      jump\t// out\n        /* \"tiny_boop.sol\":1571:2298  function balancePairOf(address sender, address receiver) external view returns (uint256) {... */\n    tag_46:\n        /* \"tiny_boop.sol\":1651:1658  uint256 */\n      0x00\n        /* \"tiny_boop.sol\":1724:1725  0 */\n      dup1\n        /* \"tiny_boop.sol\":1706:1726  sender != address(0) */\n      0xffffffffffffffffffffffffffffffffffffffff\n      and\n        /* \"tiny_boop.sol\":1706:1712  sender */\n      dup4\n        /* \"tiny_boop.sol\":1706:1726  sender != address(0) */\n      0xffffffffffffffffffffffffffffffffffffffff\n      and\n      sub\n        /* \"tiny_boop.sol\":1698:1758  require(sender != address(0), \"Boop Sender address invalid\") */\n      tag_70\n      jumpi\n      mload(0x40)\n      0x08c379a000000000000000000000000000000000000000000000000000000000\n      dup2\n      mstore\n      0x04\n      add\n      tag_71\n      swap1\n      tag_72\n      jump\t// in\n    tag_71:\n      mload(0x40)\n      dup1\n      swap2\n      sub\n      swap1\n      revert\n    tag_70:\n        /* \"tiny_boop.sol\":1796:1797  0 */\n      0x00\n        /* \"tiny_boop.sol\":1776:1798  receiver != address(0) */\n      0xffffffffffffffffffffffffffffffffffffffff\n      and\n        /* \"tiny_boop.sol\":1776:1784  receiver */\n      dup3\n        /* \"tiny_boop.sol\":1776:1798  receiver != address(0) */\n      0xffffffffffffffffffffffffffffffffffffffff\n      and\n      sub\n        /* \"tiny_boop.sol\":1768:1832  require(receiver != address(0), \"Boop Receiver address invalid\") */\n      tag_73\n      jumpi\n      mload(0x40)\n      0x08c379a000000000000000000000000000000000000000000000000000000000\n      dup2\n      mstore\n      0x04\n      add\n      tag_74\n      swap1\n      tag_75\n      jump\t// in\n    tag_74:\n      mload(0x40)\n      dup1\n      swap2\n      sub\n      swap1\n      revert\n    tag_73:\n        /* \"tiny_boop.sol\":1866:1894  string memory _string_sender */\n      0x60\n        /* \"tiny_boop.sol\":1904:1928  string memory _string_to */\n      dup1\n        /* \"tiny_boop.sol\":1938:1963  string memory _pair_value */\n      0x60\n        /* \"tiny_boop.sol\":2020:2047  Strings.toHexString(sender) */\n      tag_76\n        /* \"tiny_boop.sol\":2040:2046  sender */\n      dup7\n        /* \"tiny_boop.sol\":2020:2039  Strings.toHexString */\n      tag_77\n        /* \"tiny_boop.sol\":2020:2047  Strings.toHexString(sender) */\n      jump\t// in\n    tag_76:\n        /* \"tiny_boop.sol\":2003:2047  _string_sender = Strings.toHexString(sender) */\n      swap3\n      pop\n        /* \"tiny_boop.sol\":2070:2099  Strings.toHexString(receiver) */\n      tag_78\n        /* \"tiny_boop.sol\":2090:2098  receiver */\n      dup6\n        /* \"tiny_boop.sol\":2070:2089  Strings.toHexString */\n      tag_77\n        /* \"tiny_boop.sol\":2070:2099  Strings.toHexString(receiver) */\n      jump\t// in\n    tag_78:\n        /* \"tiny_boop.sol\":2057:2099  _string_to = Strings.toHexString(receiver) */\n      swap2\n      pop\n        /* \"tiny_boop.sol\":2148:2162  _string_sender */\n      dup3\n        /* \"tiny_boop.sol\":2131:2168  abi.encodePacked(_string_sender,'__') */\n      add(0x20, mload(0x40))\n      tag_79\n      swap2\n      swap1\n      tag_80\n      jump\t// in\n    tag_79:\n      mload(0x40)\n      0x20\n      dup2\n      dup4\n      sub\n      sub\n      dup2\n      mstore\n      swap1\n      0x40\n      mstore\n        /* \"tiny_boop.sol\":2110:2169  _pair_value = string(abi.encodePacked(_string_sender,'__')) */\n      swap1\n      pop\n        /* \"tiny_boop.sol\":2217:2228  _pair_value */\n      dup1\n        /* \"tiny_boop.sol\":2229:2239  _string_to */\n      dup3\n        /* \"tiny_boop.sol\":2200:2240  abi.encodePacked(_pair_value,_string_to) */\n      add(0x20, mload(0x40))\n      tag_81\n      swap3\n      swap2\n      swap1\n      tag_82\n      jump\t// in\n    tag_81:\n      mload(0x40)\n      0x20\n      dup2\n      dup4\n      sub\n      sub\n      dup2\n      mstore\n      swap1\n      0x40\n      mstore\n        /* \"tiny_boop.sol\":2179:2241  _pair_value = string(abi.encodePacked(_pair_value,_string_to)) */\n      swap1\n      pop\n        /* \"tiny_boop.sol\":2259:2273  _balances_pair */\n      0x01\n        /* \"tiny_boop.sol\":2274:2285  _pair_value */\n      dup2\n        /* \"tiny_boop.sol\":2259:2286  _balances_pair[_pair_value] */\n      mload(0x40)\n      tag_83\n      swap2\n      swap1\n      tag_84\n      jump\t// in\n    tag_83:\n      swap1\n      dup2\n      mstore\n      0x20\n      add\n      mload(0x40)\n      dup1\n      swap2\n      sub\n      swap1\n      keccak256\n      sload\n        /* \"tiny_boop.sol\":2252:2286  return _balances_pair[_pair_value] */\n      swap4\n      pop\n      pop\n      pop\n      pop\n        /* \"tiny_boop.sol\":1571:2298  function balancePairOf(address sender, address receiver) external view returns (uint256) {... */\n      swap3\n      swap2\n      pop\n      pop\n      jump\t// out\n        /* \"@openzeppelin/contracts/utils/Context.sol\":640:736  function _msgSender() internal view virtual returns (address) {... */\n    tag_66:\n        /* \"@openzeppelin/contracts/utils/Context.sol\":693:700  address */\n      0x00\n        /* \"@openzeppelin/contracts/utils/Context.sol\":719:729  msg.sender */\n      caller\n        /* \"@openzeppelin/contracts/utils/Context.sol\":712:729  return msg.sender */\n      swap1\n      pop\n        /* \"@openzeppelin/contracts/utils/Context.sol\":640:736  function _msgSender() internal view virtual returns (address) {... */\n      swap1\n      jump\t// out\n        /* \"tiny_boop.sol\":2663:3887  function _transfer(... */\n    tag_68:\n        /* \"tiny_boop.sol\":2827:2828  0 */\n      0x00\n        /* \"tiny_boop.sol\":2811:2829  from != address(0) */\n      0xffffffffffffffffffffffffffffffffffffffff\n      and\n        /* \"tiny_boop.sol\":2811:2815  from */\n      dup4\n        /* \"tiny_boop.sol\":2811:2829  from != address(0) */\n      0xffffffffffffffffffffffffffffffffffffffff\n      and\n      sub\n        /* \"tiny_boop.sol\":2803:2871  require(from != address(0), \"ERC20: transfer from the zero address\") */\n      tag_87\n      jumpi\n      mload(0x40)\n      0x08c379a000000000000000000000000000000000000000000000000000000000\n      dup2\n      mstore\n      0x04\n      add\n      tag_88\n      swap1\n      tag_89\n      jump\t// in\n    tag_88:\n      mload(0x40)\n      dup1\n      swap2\n      sub\n      swap1\n      revert\n    tag_87:\n        /* \"tiny_boop.sol\":2903:2904  0 */\n      0x00\n        /* \"tiny_boop.sol\":2889:2905  to != address(0) */\n      0xffffffffffffffffffffffffffffffffffffffff\n      and\n        /* \"tiny_boop.sol\":2889:2891  to */\n      dup3\n        /* \"tiny_boop.sol\":2889:2905  to != address(0) */\n      0xffffffffffffffffffffffffffffffffffffffff\n      and\n      sub\n        /* \"tiny_boop.sol\":2881:2945  require(to != address(0), \"ERC20: transfer to the zero address\") */\n      tag_90\n      jumpi\n      mload(0x40)\n      0x08c379a000000000000000000000000000000000000000000000000000000000\n      dup2\n      mstore\n      0x04\n      add\n      tag_91\n      swap1\n      tag_92\n      jump\t// in\n    tag_91:\n      mload(0x40)\n      dup1\n      swap2\n      sub\n      swap1\n      revert\n    tag_90:\n        /* \"tiny_boop.sol\":3016:3026  msg.sender */\n      caller\n        /* \"tiny_boop.sol\":3002:3027  to != address(msg.sender) */\n      0xffffffffffffffffffffffffffffffffffffffff\n      and\n        /* \"tiny_boop.sol\":3002:3004  to */\n      dup3\n        /* \"tiny_boop.sol\":3002:3027  to != address(msg.sender) */\n      0xffffffffffffffffffffffffffffffffffffffff\n      and\n      sub\n        /* \"tiny_boop.sol\":2994:3072  require(to != address(msg.sender), \"Hey! You can't try to boop yourself! >:c\") */\n      tag_93\n      jumpi\n      mload(0x40)\n      0x08c379a000000000000000000000000000000000000000000000000000000000\n      dup2\n      mstore\n      0x04\n      add\n      tag_94\n      swap1\n      tag_95\n      jump\t// in\n    tag_94:\n      mload(0x40)\n      dup1\n      swap2\n      sub\n      swap1\n      revert\n    tag_93:\n        /* \"tiny_boop.sol\":3100:3101  1 */\n      0x01\n        /* \"tiny_boop.sol\":3090:3096  amount */\n      dup2\n        /* \"tiny_boop.sol\":3090:3101  amount >= 1 */\n      lt\n      iszero\n        /* \"tiny_boop.sol\":3082:3160  require(amount >= 1, \"Calm your crazy paw! Boop Value must be between 1 to 3\") */\n      tag_96\n      jumpi\n      mload(0x40)\n      0x08c379a000000000000000000000000000000000000000000000000000000000\n      dup2\n      mstore\n      0x04\n      add\n      tag_97\n      swap1\n      tag_98\n      jump\t// in\n    tag_97:\n      mload(0x40)\n      dup1\n      swap2\n      sub\n      swap1\n      revert\n    tag_96:\n        /* \"tiny_boop.sol\":3188:3189  3 */\n      0x03\n        /* \"tiny_boop.sol\":3178:3184  amount */\n      dup2\n        /* \"tiny_boop.sol\":3178:3189  amount <= 3 */\n      gt\n      iszero\n        /* \"tiny_boop.sol\":3170:3248  require(amount <= 3, \"Calm your crazy paw! Boop Value must be between 1 to 3\") */\n      tag_99\n      jumpi\n      mload(0x40)\n      0x08c379a000000000000000000000000000000000000000000000000000000000\n      dup2\n      mstore\n      0x04\n      add\n      tag_100\n      swap1\n      tag_98\n      jump\t// in\n    tag_100:\n      mload(0x40)\n      dup1\n      swap2\n      sub\n      swap1\n      revert\n    tag_99:\n        /* \"tiny_boop.sol\":3282:3310  string memory _string_sender */\n      0x60\n        /* \"tiny_boop.sol\":3320:3344  string memory _string_to */\n      dup1\n        /* \"tiny_boop.sol\":3354:3379  string memory _pair_value */\n      0x60\n        /* \"tiny_boop.sol\":3429:3460  Strings.toHexString(msg.sender) */\n      tag_101\n        /* \"tiny_boop.sol\":3449:3459  msg.sender */\n      caller\n        /* \"tiny_boop.sol\":3429:3448  Strings.toHexString */\n      tag_77\n        /* \"tiny_boop.sol\":3429:3460  Strings.toHexString(msg.sender) */\n      jump\t// in\n    tag_101:\n        /* \"tiny_boop.sol\":3412:3460  _string_sender = Strings.toHexString(msg.sender) */\n      swap3\n      pop\n        /* \"tiny_boop.sol\":3483:3506  Strings.toHexString(to) */\n      tag_102\n        /* \"tiny_boop.sol\":3503:3505  to */\n      dup6\n        /* \"tiny_boop.sol\":3483:3502  Strings.toHexString */\n      tag_77\n        /* \"tiny_boop.sol\":3483:3506  Strings.toHexString(to) */\n      jump\t// in\n    tag_102:\n        /* \"tiny_boop.sol\":3470:3506  _string_to = Strings.toHexString(to) */\n      swap2\n      pop\n        /* \"tiny_boop.sol\":3554:3568  _string_sender */\n      dup3\n        /* \"tiny_boop.sol\":3537:3574  abi.encodePacked(_string_sender,'__') */\n      add(0x20, mload(0x40))\n      tag_103\n      swap2\n      swap1\n      tag_80\n      jump\t// in\n    tag_103:\n      mload(0x40)\n      0x20\n      dup2\n      dup4\n      sub\n      sub\n      dup2\n      mstore\n      swap1\n      0x40\n      mstore\n        /* \"tiny_boop.sol\":3516:3575  _pair_value = string(abi.encodePacked(_string_sender,'__')) */\n      swap1\n      pop\n        /* \"tiny_boop.sol\":3623:3634  _pair_value */\n      dup1\n        /* \"tiny_boop.sol\":3635:3645  _string_to */\n      dup3\n        /* \"tiny_boop.sol\":3606:3646  abi.encodePacked(_pair_value,_string_to) */\n      add(0x20, mload(0x40))\n      tag_104\n      swap3\n      swap2\n      swap1\n      tag_82\n      jump\t// in\n    tag_104:\n      mload(0x40)\n      0x20\n      dup2\n      dup4\n      sub\n      sub\n      dup2\n      mstore\n      swap1\n      0x40\n      mstore\n        /* \"tiny_boop.sol\":3585:3647  _pair_value = string(abi.encodePacked(_pair_value,_string_to)) */\n      swap1\n      pop\n        /* \"tiny_boop.sol\":3717:3723  amount */\n      dup4\n        /* \"tiny_boop.sol\":3701:3713  _totalSupply */\n      0x02\n      0x00\n        /* \"tiny_boop.sol\":3701:3723  _totalSupply += amount */\n      dup3\n      dup3\n      sload\n      add\n      swap3\n      pop\n      pop\n      dup2\n      swap1\n      sstore\n      pop\n        /* \"tiny_boop.sol\":3754:3760  amount */\n      dup4\n        /* \"tiny_boop.sol\":3737:3746  _balances */\n      0x00\n        /* \"tiny_boop.sol\":3737:3750  _balances[to] */\n      dup1\n        /* \"tiny_boop.sol\":3747:3749  to */\n      dup8\n        /* \"tiny_boop.sol\":3737:3750  _balances[to] */\n      0xffffffffffffffffffffffffffffffffffffffff\n      and\n      0xffffffffffffffffffffffffffffffffffffffff\n      and\n      dup2\n      mstore\n      0x20\n      add\n      swap1\n      dup2\n      mstore\n      0x20\n      add\n      0x00\n      keccak256\n      0x00\n        /* \"tiny_boop.sol\":3737:3760  _balances[to] += amount */\n      dup3\n      dup3\n      sload\n      add\n      swap3\n      pop\n      pop\n      dup2\n      swap1\n      sstore\n      pop\n        /* \"tiny_boop.sol\":3805:3811  amount */\n      dup4\n        /* \"tiny_boop.sol\":3774:3788  _balances_pair */\n      0x01\n        /* \"tiny_boop.sol\":3789:3800  _pair_value */\n      dup3\n        /* \"tiny_boop.sol\":3774:3801  _balances_pair[_pair_value] */\n      mload(0x40)\n      tag_105\n      swap2\n      swap1\n      tag_84\n      jump\t// in\n    tag_105:\n      swap1\n      dup2\n      mstore\n      0x20\n      add\n      mload(0x40)\n      dup1\n      swap2\n      sub\n      swap1\n      keccak256\n      0x00\n        /* \"tiny_boop.sol\":3774:3811  _balances_pair[_pair_value] += amount */\n      dup3\n      dup3\n      sload\n      add\n      swap3\n      pop\n      pop\n      dup2\n      swap1\n      sstore\n      pop\n        /* \"tiny_boop.sol\":3868:3870  to */\n      dup5\n        /* \"tiny_boop.sol\":3853:3879  Transfer(from, to, amount) */\n      0xffffffffffffffffffffffffffffffffffffffff\n      and\n        /* \"tiny_boop.sol\":3862:3866  from */\n      dup7\n        /* \"tiny_boop.sol\":3853:3879  Transfer(from, to, amount) */\n      0xffffffffffffffffffffffffffffffffffffffff\n      and\n      0xddf252ad1be2c89b69c2b068fc378daa952ba7f163c4a11628f55a4df523b3ef\n        /* \"tiny_boop.sol\":3872:3878  amount */\n      dup7\n        /* \"tiny_boop.sol\":3853:3879  Transfer(from, to, amount) */\n      mload(0x40)\n      tag_106\n      swap2\n      swap1\n      tag_19\n      jump\t// in\n    tag_106:\n      mload(0x40)\n      dup1\n      swap2\n      sub\n      swap1\n      log3\n        /* \"tiny_boop.sol\":2771:3887  {... */\n      pop\n      pop\n      pop\n        /* \"tiny_boop.sol\":2663:3887  function _transfer(... */\n      pop\n      pop\n      pop\n      jump\t// out\n        /* \"@openzeppelin/contracts/utils/Strings.sol\":2407:2556  function toHexString(address addr) internal pure returns (string memory) {... */\n    tag_77:\n        /* \"@openzeppelin/contracts/utils/Strings.sol\":2465:2478  string memory */\n      0x60\n        /* \"@openzeppelin/contracts/utils/Strings.sol\":2497:2549  toHexString(uint256(uint160(addr)), _ADDRESS_LENGTH) */\n      tag_108\n        /* \"@openzeppelin/contracts/utils/Strings.sol\":2525:2529  addr */\n      dup3\n        /* \"@openzeppelin/contracts/utils/Strings.sol\":2509:2531  uint256(uint160(addr)) */\n      0xffffffffffffffffffffffffffffffffffffffff\n      and\n        /* \"@openzeppelin/contracts/utils/Strings.sol\":343:345  20 */\n      0x14\n        /* \"@openzeppelin/contracts/utils/Strings.sol\":2497:2549  toHexString(uint256(uint160(addr)), _ADDRESS_LENGTH) */\n      0xff\n      and\n        /* \"@openzeppelin/contracts/utils/Strings.sol\":2497:2508  toHexString */\n      tag_109\n        /* \"@openzeppelin/contracts/utils/Strings.sol\":2497:2549  toHexString(uint256(uint160(addr)), _ADDRESS_LENGTH) */\n      jump\t// in\n    tag_108:\n        /* \"@openzeppelin/contracts/utils/Strings.sol\":2490:2549  return toHexString(uint256(uint160(addr)), _ADDRESS_LENGTH) */\n      swap1\n      pop\n        /* \"@openzeppelin/contracts/utils/Strings.sol\":2407:2556  function toHexString(address addr) internal pure returns (string memory) {... */\n      swap2\n      swap1\n      pop\n      jump\t// out\n        /* \"@openzeppelin/contracts/utils/Strings.sol\":1818:2255  function toHexString(uint256 value, uint256 length) internal pure returns (string memory) {... */\n    tag_109:\n        /* \"@openzeppelin/contracts/utils/Strings.sol\":1893:1906  string memory */\n      0x60\n        /* \"@openzeppelin/contracts/utils/Strings.sol\":1918:1937  bytes memory buffer */\n      0x00\n        /* \"@openzeppelin/contracts/utils/Strings.sol\":1963:1964  2 */\n      0x02\n        /* \"@openzeppelin/contracts/utils/Strings.sol\":1954:1960  length */\n      dup4\n        /* \"@openzeppelin/contracts/utils/Strings.sol\":1950:1951  2 */\n      0x02\n        /* \"@openzeppelin/contracts/utils/Strings.sol\":1950:1960  2 * length */\n      tag_111\n      swap2\n      swap1\n      tag_112\n      jump\t// in\n    tag_111:\n        /* \"@openzeppelin/contracts/utils/Strings.sol\":1950:1964  2 * length + 2 */\n      tag_113\n      swap2\n      swap1\n      tag_114\n      jump\t// in\n    tag_113:\n        /* \"@openzeppelin/contracts/utils/Strings.sol\":1940:1965  new bytes(2 * length + 2) */\n      0xffffffffffffffff\n      dup2\n      gt\n      iszero\n      tag_115\n      jumpi\n      tag_116\n      tag_117\n      jump\t// in\n    tag_116:\n    tag_115:\n      mload(0x40)\n      swap1\n      dup1\n      dup3\n      mstore\n      dup1\n      0x1f\n      add\n      not(0x1f)\n      and\n      0x20\n      add\n      dup3\n      add\n      0x40\n      mstore\n      dup1\n      iszero\n      tag_118\n      jumpi\n      dup2\n      0x20\n      add\n      0x01\n      dup3\n      mul\n      dup1\n      calldatasize\n      dup4\n      calldatacopy\n      dup1\n      dup3\n      add\n      swap2\n      pop\n      pop\n      swap1\n      pop\n    tag_118:\n      pop\n        /* \"@openzeppelin/contracts/utils/Strings.sol\":1918:1965  bytes memory buffer = new bytes(2 * length + 2) */\n      swap1\n      pop\n        /* \"@openzeppelin/contracts/utils/Strings.sol\":1975:1990  buffer[0] = \"0\" */\n      0x3000000000000000000000000000000000000000000000000000000000000000\n        /* \"@openzeppelin/contracts/utils/Strings.sol\":1975:1981  buffer */\n      dup2\n        /* \"@openzeppelin/contracts/utils/Strings.sol\":1982:1983  0 */\n      0x00\n        /* \"@openzeppelin/contracts/utils/Strings.sol\":1975:1984  buffer[0] */\n      dup2\n      mload\n      dup2\n      lt\n      tag_119\n      jumpi\n      tag_120\n      tag_121\n      jump\t// in\n    tag_120:\n    tag_119:\n      0x20\n      add\n      add\n        /* \"@openzeppelin/contracts/utils/Strings.sol\":1975:1990  buffer[0] = \"0\" */\n      swap1\n      not(0xffffffffffffffffffffffffffffffffffffffffffffffffffffffffffffff)\n      and\n      swap1\n      dup2\n      0x00\n      byte\n      swap1\n      mstore8\n      pop\n        /* \"@openzeppelin/contracts/utils/Strings.sol\":2000:2015  buffer[1] = \"x\" */\n      0x7800000000000000000000000000000000000000000000000000000000000000\n        /* \"@openzeppelin/contracts/utils/Strings.sol\":2000:2006  buffer */\n      dup2\n        /* \"@openzeppelin/contracts/utils/Strings.sol\":2007:2008  1 */\n      0x01\n        /* \"@openzeppelin/contracts/utils/Strings.sol\":2000:2009  buffer[1] */\n      dup2\n      mload\n      dup2\n      lt\n      tag_122\n      jumpi\n      tag_123\n      tag_121\n      jump\t// in\n    tag_123:\n    tag_122:\n      0x20\n      add\n      add\n        /* \"@openzeppelin/contracts/utils/Strings.sol\":2000:2015  buffer[1] = \"x\" */\n      swap1\n      not(0xffffffffffffffffffffffffffffffffffffffffffffffffffffffffffffff)\n      and\n      swap1\n      dup2\n      0x00\n      byte\n      swap1\n      mstore8\n      pop\n        /* \"@openzeppelin/contracts/utils/Strings.sol\":2030:2039  uint256 i */\n      0x00\n        /* \"@openzeppelin/contracts/utils/Strings.sol\":2055:2056  1 */\n      0x01\n        /* \"@openzeppelin/contracts/utils/Strings.sol\":2046:2052  length */\n      dup5\n        /* \"@openzeppelin/contracts/utils/Strings.sol\":2042:2043  2 */\n      0x02\n        /* \"@openzeppelin/contracts/utils/Strings.sol\":2042:2052  2 * length */\n      tag_127\n      swap2\n      swap1\n      tag_112\n      jump\t// in\n    tag_127:\n        /* \"@openzeppelin/contracts/utils/Strings.sol\":2042:2056  2 * length + 1 */\n      tag_128\n      swap2\n      swap1\n      tag_114\n      jump\t// in\n    tag_128:\n        /* \"@openzeppelin/contracts/utils/Strings.sol\":2030:2056  uint256 i = 2 * length + 1 */\n      swap1\n      pop\n        /* \"@openzeppelin/contracts/utils/Strings.sol\":2025:2153  for (uint256 i = 2 * length + 1; i > 1; --i) {... */\n    tag_124:\n        /* \"@openzeppelin/contracts/utils/Strings.sol\":2062:2063  1 */\n      0x01\n        /* \"@openzeppelin/contracts/utils/Strings.sol\":2058:2059  i */\n      dup2\n        /* \"@openzeppelin/contracts/utils/Strings.sol\":2058:2063  i > 1 */\n      gt\n        /* \"@openzeppelin/contracts/utils/Strings.sol\":2025:2153  for (uint256 i = 2 * length + 1; i > 1; --i) {... */\n      iszero\n      tag_125\n      jumpi\n        /* \"@openzeppelin/contracts/utils/Strings.sol\":2096:2104  _SYMBOLS */\n      0x3031323334353637383961626364656600000000000000000000000000000000\n        /* \"@openzeppelin/contracts/utils/Strings.sol\":2113:2116  0xf */\n      0x0f\n        /* \"@openzeppelin/contracts/utils/Strings.sol\":2105:2110  value */\n      dup7\n        /* \"@openzeppelin/contracts/utils/Strings.sol\":2105:2116  value & 0xf */\n      and\n        /* \"@openzeppelin/contracts/utils/Strings.sol\":2096:2117  _SYMBOLS[value & 0xf] */\n      0x10\n      dup2\n      lt\n      tag_129\n      jumpi\n      tag_130\n      tag_121\n      jump\t// in\n    tag_130:\n    tag_129:\n      byte\n      0xf8\n      shl\n        /* \"@openzeppelin/contracts/utils/Strings.sol\":2084:2090  buffer */\n      dup3\n        /* \"@openzeppelin/contracts/utils/Strings.sol\":2091:2092  i */\n      dup3\n        /* \"@openzeppelin/contracts/utils/Strings.sol\":2084:2093  buffer[i] */\n      dup2\n      mload\n      dup2\n      lt\n      tag_131\n      jumpi\n      tag_132\n      tag_121\n      jump\t// in\n    tag_132:\n    tag_131:\n      0x20\n      add\n      add\n        /* \"@openzeppelin/contracts/utils/Strings.sol\":2084:2117  buffer[i] = _SYMBOLS[value & 0xf] */\n      swap1\n      not(0xffffffffffffffffffffffffffffffffffffffffffffffffffffffffffffff)\n      and\n      swap1\n      dup2\n      0x00\n      byte\n      swap1\n      mstore8\n      pop\n        /* \"@openzeppelin/contracts/utils/Strings.sol\":2141:2142  4 */\n      0x04\n        /* \"@openzeppelin/contracts/utils/Strings.sol\":2131:2142  value >>= 4 */\n      dup6\n      swap1\n      shr\n      swap5\n      pop\n        /* \"@openzeppelin/contracts/utils/Strings.sol\":2065:2068  --i */\n      dup1\n      tag_133\n      swap1\n      tag_134\n      jump\t// in\n    tag_133:\n      swap1\n      pop\n        /* \"@openzeppelin/contracts/utils/Strings.sol\":2025:2153  for (uint256 i = 2 * length + 1; i > 1; --i) {... */\n      jump(tag_124)\n    tag_125:\n      pop\n        /* \"@openzeppelin/contracts/utils/Strings.sol\":2179:2180  0 */\n      0x00\n        /* \"@openzeppelin/contracts/utils/Strings.sol\":2170:2175  value */\n      dup5\n        /* \"@openzeppelin/contracts/utils/Strings.sol\":2170:2180  value == 0 */\n      eq\n        /* \"@openzeppelin/contracts/utils/Strings.sol\":2162:2217  require(value == 0, \"Strings: hex length insufficient\") */\n      tag_135\n      jumpi\n      mload(0x40)\n      0x08c379a000000000000000000000000000000000000000000000000000000000\n      dup2\n      mstore\n      0x04\n      add\n      tag_136\n      swap1\n      tag_137\n      jump\t// in\n    tag_136:\n      mload(0x40)\n      dup1\n      swap2\n      sub\n      swap1\n      revert\n    tag_135:\n        /* \"@openzeppelin/contracts/utils/Strings.sol\":2241:2247  buffer */\n      dup1\n        /* \"@openzeppelin/contracts/utils/Strings.sol\":2227:2248  return string(buffer) */\n      swap2\n      pop\n      pop\n        /* \"@openzeppelin/contracts/utils/Strings.sol\":1818:2255  function toHexString(uint256 value, uint256 length) internal pure returns (string memory) {... */\n      swap3\n      swap2\n      pop\n      pop\n      jump\t// out\n        /* \"#utility.yul\":7:106   */\n    tag_138:\n        /* \"#utility.yul\":59:65   */\n      0x00\n        /* \"#utility.yul\":93:98   */\n      dup2\n        /* \"#utility.yul\":87:99   */\n      mload\n        /* \"#utility.yul\":77:99   */\n      swap1\n      pop\n        /* \"#utility.yul\":7:106   */\n      swap2\n      swap1\n      pop\n      jump\t// out\n        /* \"#utility.yul\":112:281   */\n    tag_139:\n        /* \"#utility.yul\":196:207   */\n      0x00\n        /* \"#utility.yul\":230:236   */\n      dup3\n        /* \"#utility.yul\":225:228   */\n      dup3\n        /* \"#utility.yul\":218:237   */\n      mstore\n        /* \"#utility.yul\":270:274   */\n      0x20\n        /* \"#utility.yul\":265:268   */\n      dup3\n        /* \"#utility.yul\":261:275   */\n      add\n        /* \"#utility.yul\":246:275   */\n      swap1\n      pop\n        /* \"#utility.yul\":112:281   */\n      swap3\n      swap2\n      pop\n      pop\n      jump\t// out\n        /* \"#utility.yul\":287:533   */\n    tag_140:\n        /* \"#utility.yul\":368:369   */\n      0x00\n        /* \"#utility.yul\":378:491   */\n    tag_190:\n        /* \"#utility.yul\":392:398   */\n      dup4\n        /* \"#utility.yul\":389:390   */\n      dup2\n        /* \"#utility.yul\":386:399   */\n      lt\n        /* \"#utility.yul\":378:491   */\n      iszero\n      tag_192\n      jumpi\n        /* \"#utility.yul\":477:478   */\n      dup1\n        /* \"#utility.yul\":472:475   */\n      dup3\n        /* \"#utility.yul\":468:479   */\n      add\n        /* \"#utility.yul\":462:480   */\n      mload\n        /* \"#utility.yul\":458:459   */\n      dup2\n        /* \"#utility.yul\":453:456   */\n      dup5\n        /* \"#utility.yul\":449:460   */\n      add\n        /* \"#utility.yul\":442:481   */\n      mstore\n        /* \"#utility.yul\":414:416   */\n      0x20\n        /* \"#utility.yul\":411:412   */\n      dup2\n        /* \"#utility.yul\":407:417   */\n      add\n        /* \"#utility.yul\":402:417   */\n      swap1\n      pop\n        /* \"#utility.yul\":378:491   */\n      jump(tag_190)\n    tag_192:\n        /* \"#utility.yul\":525:526   */\n      0x00\n        /* \"#utility.yul\":516:522   */\n      dup5\n        /* \"#utility.yul\":511:514   */\n      dup5\n        /* \"#utility.yul\":507:523   */\n      add\n        /* \"#utility.yul\":500:527   */\n      mstore\n        /* \"#utility.yul\":349:533   */\n      pop\n        /* \"#utility.yul\":287:533   */\n      pop\n      pop\n      pop\n      jump\t// out\n        /* \"#utility.yul\":539:641   */\n    tag_141:\n        /* \"#utility.yul\":580:586   */\n      0x00\n        /* \"#utility.yul\":631:633   */\n      0x1f\n        /* \"#utility.yul\":627:634   */\n      not\n        /* \"#utility.yul\":622:624   */\n      0x1f\n        /* \"#utility.yul\":615:620   */\n      dup4\n        /* \"#utility.yul\":611:625   */\n      add\n        /* \"#utility.yul\":607:635   */\n      and\n        /* \"#utility.yul\":597:635   */\n      swap1\n      pop\n        /* \"#utility.yul\":539:641   */\n      swap2\n      swap1\n      pop\n      jump\t// out\n        /* \"#utility.yul\":647:1024   */\n    tag_142:\n        /* \"#utility.yul\":735:738   */\n      0x00\n        /* \"#utility.yul\":763:802   */\n      tag_195\n        /* \"#utility.yul\":796:801   */\n      dup3\n        /* \"#utility.yul\":763:802   */\n      tag_138\n      jump\t// in\n    tag_195:\n        /* \"#utility.yul\":818:889   */\n      tag_196\n        /* \"#utility.yul\":882:888   */\n      dup2\n        /* \"#utility.yul\":877:880   */\n      dup6\n        /* \"#utility.yul\":818:889   */\n      tag_139\n      jump\t// in\n    tag_196:\n        /* \"#utility.yul\":811:889   */\n      swap4\n      pop\n        /* \"#utility.yul\":898:963   */\n      tag_197\n        /* \"#utility.yul\":956:962   */\n      dup2\n        /* \"#utility.yul\":951:954   */\n      dup6\n        /* \"#utility.yul\":944:948   */\n      0x20\n        /* \"#utility.yul\":937:942   */\n      dup7\n        /* \"#utility.yul\":933:949   */\n      add\n        /* \"#utility.yul\":898:963   */\n      tag_140\n      jump\t// in\n    tag_197:\n        /* \"#utility.yul\":988:1017   */\n      tag_198\n        /* \"#utility.yul\":1010:1016   */\n      dup2\n        /* \"#utility.yul\":988:1017   */\n      tag_141\n      jump\t// in\n    tag_198:\n        /* \"#utility.yul\":983:986   */\n      dup5\n        /* \"#utility.yul\":979:1018   */\n      add\n        /* \"#utility.yul\":972:1018   */\n      swap2\n      pop\n        /* \"#utility.yul\":739:1024   */\n      pop\n        /* \"#utility.yul\":647:1024   */\n      swap3\n      swap2\n      pop\n      pop\n      jump\t// out\n        /* \"#utility.yul\":1030:1343   */\n    tag_15:\n        /* \"#utility.yul\":1143:1147   */\n      0x00\n        /* \"#utility.yul\":1181:1183   */\n      0x20\n        /* \"#utility.yul\":1170:1179   */\n      dup3\n        /* \"#utility.yul\":1166:1184   */\n      add\n        /* \"#utility.yul\":1158:1184   */\n      swap1\n      pop\n        /* \"#utility.yul\":1230:1239   */\n      dup2\n        /* \"#utility.yul\":1224:1228   */\n      dup2\n        /* \"#utility.yul\":1220:1240   */\n      sub\n        /* \"#utility.yul\":1216:1217   */\n      0x00\n        /* \"#utility.yul\":1205:1214   */\n      dup4\n        /* \"#utility.yul\":1201:1218   */\n      add\n        /* \"#utility.yul\":1194:1241   */\n      mstore\n        /* \"#utility.yul\":1258:1336   */\n      tag_200\n        /* \"#utility.yul\":1331:1335   */\n      dup2\n        /* \"#utility.yul\":1322:1328   */\n      dup5\n        /* \"#utility.yul\":1258:1336   */\n      tag_142\n      jump\t// in\n    tag_200:\n        /* \"#utility.yul\":1250:1336   */\n      swap1\n      pop\n        /* \"#utility.yul\":1030:1343   */\n      swap3\n      swap2\n      pop\n      pop\n      jump\t// out\n        /* \"#utility.yul\":1349:1426   */\n    tag_143:\n        /* \"#utility.yul\":1386:1393   */\n      0x00\n        /* \"#utility.yul\":1415:1420   */\n      dup2\n        /* \"#utility.yul\":1404:1420   */\n      swap1\n      pop\n        /* \"#utility.yul\":1349:1426   */\n      swap2\n      swap1\n      pop\n      jump\t// out\n        /* \"#utility.yul\":1432:1550   */\n    tag_144:\n        /* \"#utility.yul\":1519:1543   */\n      tag_203\n        /* \"#utility.yul\":1537:1542   */\n      dup2\n        /* \"#utility.yul\":1519:1543   */\n      tag_143\n      jump\t// in\n    tag_203:\n        /* \"#utility.yul\":1514:1517   */\n      dup3\n        /* \"#utility.yul\":1507:1544   */\n      mstore\n        /* \"#utility.yul\":1432:1550   */\n      pop\n      pop\n      jump\t// out\n        /* \"#utility.yul\":1556:1778   */\n    tag_19:\n        /* \"#utility.yul\":1649:1653   */\n      0x00\n        /* \"#utility.yul\":1687:1689   */\n      0x20\n        /* \"#utility.yul\":1676:1685   */\n      dup3\n        /* \"#utility.yul\":1672:1690   */\n      add\n        /* \"#utility.yul\":1664:1690   */\n      swap1\n      pop\n        /* \"#utility.yul\":1700:1771   */\n      tag_205\n        /* \"#utility.yul\":1768:1769   */\n      0x00\n        /* \"#utility.yul\":1757:1766   */\n      dup4\n        /* \"#utility.yul\":1753:1770   */\n      add\n        /* \"#utility.yul\":1744:1750   */\n      dup5\n        /* \"#utility.yul\":1700:1771   */\n      tag_144\n      jump\t// in\n    tag_205:\n        /* \"#utility.yul\":1556:1778   */\n      swap3\n      swap2\n      pop\n      pop\n      jump\t// out\n        /* \"#utility.yul\":1784:1870   */\n    tag_145:\n        /* \"#utility.yul\":1819:1826   */\n      0x00\n        /* \"#utility.yul\":1859:1863   */\n      0xff\n        /* \"#utility.yul\":1852:1857   */\n      dup3\n        /* \"#utility.yul\":1848:1864   */\n      and\n        /* \"#utility.yul\":1837:1864   */\n      swap1\n      pop\n        /* \"#utility.yul\":1784:1870   */\n      swap2\n      swap1\n      pop\n      jump\t// out\n        /* \"#utility.yul\":1876:1988   */\n    tag_146:\n        /* \"#utility.yul\":1959:1981   */\n      tag_208\n        /* \"#utility.yul\":1975:1980   */\n      dup2\n        /* \"#utility.yul\":1959:1981   */\n      tag_145\n      jump\t// in\n    tag_208:\n        /* \"#utility.yul\":1954:1957   */\n      dup3\n        /* \"#utility.yul\":1947:1982   */\n      mstore\n        /* \"#utility.yul\":1876:1988   */\n      pop\n      pop\n      jump\t// out\n        /* \"#utility.yul\":1994:2208   */\n    tag_23:\n        /* \"#utility.yul\":2083:2087   */\n      0x00\n        /* \"#utility.yul\":2121:2123   */\n      0x20\n        /* \"#utility.yul\":2110:2119   */\n      dup3\n        /* \"#utility.yul\":2106:2124   */\n      add\n        /* \"#utility.yul\":2098:2124   */\n      swap1\n      pop\n        /* \"#utility.yul\":2134:2201   */\n      tag_210\n        /* \"#utility.yul\":2198:2199   */\n      0x00\n        /* \"#utility.yul\":2187:2196   */\n      dup4\n        /* \"#utility.yul\":2183:2200   */\n      add\n        /* \"#utility.yul\":2174:2180   */\n      dup5\n        /* \"#utility.yul\":2134:2201   */\n      tag_146\n      jump\t// in\n    tag_210:\n        /* \"#utility.yul\":1994:2208   */\n      swap3\n      swap2\n      pop\n      pop\n      jump\t// out\n        /* \"#utility.yul\":2214:2289   */\n    tag_147:\n        /* \"#utility.yul\":2247:2253   */\n      0x00\n        /* \"#utility.yul\":2280:2282   */\n      0x40\n        /* \"#utility.yul\":2274:2283   */\n      mload\n        /* \"#utility.yul\":2264:2283   */\n      swap1\n      pop\n        /* \"#utility.yul\":2214:2289   */\n      swap1\n      jump\t// out\n        /* \"#utility.yul\":2295:2412   */\n    tag_148:\n        /* \"#utility.yul\":2404:2405   */\n      0x00\n        /* \"#utility.yul\":2401:2402   */\n      dup1\n        /* \"#utility.yul\":2394:2406   */\n      revert\n        /* \"#utility.yul\":2418:2535   */\n    tag_149:\n        /* \"#utility.yul\":2527:2528   */\n      0x00\n        /* \"#utility.yul\":2524:2525   */\n      dup1\n        /* \"#utility.yul\":2517:2529   */\n      revert\n        /* \"#utility.yul\":2541:2667   */\n    tag_150:\n        /* \"#utility.yul\":2578:2585   */\n      0x00\n        /* \"#utility.yul\":2618:2660   */\n      0xffffffffffffffffffffffffffffffffffffffff\n        /* \"#utility.yul\":2611:2616   */\n      dup3\n        /* \"#utility.yul\":2607:2661   */\n      and\n        /* \"#utility.yul\":2596:2661   */\n      swap1\n      pop\n        /* \"#utility.yul\":2541:2667   */\n      swap2\n      swap1\n      pop\n      jump\t// out\n        /* \"#utility.yul\":2673:2769   */\n    tag_151:\n        /* \"#utility.yul\":2710:2717   */\n      0x00\n        /* \"#utility.yul\":2739:2763   */\n      tag_216\n        /* \"#utility.yul\":2757:2762   */\n      dup3\n        /* \"#utility.yul\":2739:2763   */\n      tag_150\n      jump\t// in\n    tag_216:\n        /* \"#utility.yul\":2728:2763   */\n      swap1\n      pop\n        /* \"#utility.yul\":2673:2769   */\n      swap2\n      swap1\n      pop\n      jump\t// out\n        /* \"#utility.yul\":2775:2897   */\n    tag_152:\n        /* \"#utility.yul\":2848:2872   */\n      tag_218\n        /* \"#utility.yul\":2866:2871   */\n      dup2\n        /* \"#utility.yul\":2848:2872   */\n      tag_151\n      jump\t// in\n    tag_218:\n        /* \"#utility.yul\":2841:2846   */\n      dup2\n        /* \"#utility.yul\":2838:2873   */\n      eq\n        /* \"#utility.yul\":2828:2891   */\n      tag_219\n      jumpi\n        /* \"#utility.yul\":2887:2888   */\n      0x00\n        /* \"#utility.yul\":2884:2885   */\n      dup1\n        /* \"#utility.yul\":2877:2889   */\n      revert\n        /* \"#utility.yul\":2828:2891   */\n    tag_219:\n        /* \"#utility.yul\":2775:2897   */\n      pop\n      jump\t// out\n        /* \"#utility.yul\":2903:3042   */\n    tag_153:\n        /* \"#utility.yul\":2949:2954   */\n      0x00\n        /* \"#utility.yul\":2987:2993   */\n      dup2\n        /* \"#utility.yul\":2974:2994   */\n      calldataload\n        /* \"#utility.yul\":2965:2994   */\n      swap1\n      pop\n        /* \"#utility.yul\":3003:3036   */\n      tag_221\n        /* \"#utility.yul\":3030:3035   */\n      dup2\n        /* \"#utility.yul\":3003:3036   */\n      tag_152\n      jump\t// in\n    tag_221:\n        /* \"#utility.yul\":2903:3042   */\n      swap3\n      swap2\n      pop\n      pop\n      jump\t// out\n        /* \"#utility.yul\":3048:3377   */\n    tag_26:\n        /* \"#utility.yul\":3107:3113   */\n      0x00\n        /* \"#utility.yul\":3156:3158   */\n      0x20\n        /* \"#utility.yul\":3144:3153   */\n      dup3\n        /* \"#utility.yul\":3135:3142   */\n      dup5\n        /* \"#utility.yul\":3131:3154   */\n      sub\n        /* \"#utility.yul\":3127:3159   */\n      slt\n        /* \"#utility.yul\":3124:3243   */\n      iszero\n      tag_223\n      jumpi\n        /* \"#utility.yul\":3162:3241   */\n      tag_224\n      tag_148\n      jump\t// in\n    tag_224:\n        /* \"#utility.yul\":3124:3243   */\n    tag_223:\n        /* \"#utility.yul\":3282:3283   */\n      0x00\n        /* \"#utility.yul\":3307:3360   */\n      tag_225\n        /* \"#utility.yul\":3352:3359   */\n      dup5\n        /* \"#utility.yul\":3343:3349   */\n      dup3\n        /* \"#utility.yul\":3332:3341   */\n      dup6\n        /* \"#utility.yul\":3328:3350   */\n      add\n        /* \"#utility.yul\":3307:3360   */\n      tag_153\n      jump\t// in\n    tag_225:\n        /* \"#utility.yul\":3297:3360   */\n      swap2\n      pop\n        /* \"#utility.yul\":3253:3370   */\n      pop\n        /* \"#utility.yul\":3048:3377   */\n      swap3\n      swap2\n      pop\n      pop\n      jump\t// out\n        /* \"#utility.yul\":3383:3500   */\n    tag_154:\n        /* \"#utility.yul\":3492:3493   */\n      0x00\n        /* \"#utility.yul\":3489:3490   */\n      dup1\n        /* \"#utility.yul\":3482:3494   */\n      revert\n        /* \"#utility.yul\":3506:3623   */\n    tag_155:\n        /* \"#utility.yul\":3615:3616   */\n      0x00\n        /* \"#utility.yul\":3612:3613   */\n      dup1\n        /* \"#utility.yul\":3605:3617   */\n      revert\n        /* \"#utility.yul\":3629:3809   */\n    tag_117:\n        /* \"#utility.yul\":3677:3754   */\n      0x4e487b7100000000000000000000000000000000000000000000000000000000\n        /* \"#utility.yul\":3674:3675   */\n      0x00\n        /* \"#utility.yul\":3667:3755   */\n      mstore\n        /* \"#utility.yul\":3774:3778   */\n      0x41\n        /* \"#utility.yul\":3771:3772   */\n      0x04\n        /* \"#utility.yul\":3764:3779   */\n      mstore\n        /* \"#utility.yul\":3798:3802   */\n      0x24\n        /* \"#utility.yul\":3795:3796   */\n      0x00\n        /* \"#utility.yul\":3788:3803   */\n      revert\n        /* \"#utility.yul\":3815:4096   */\n    tag_156:\n        /* \"#utility.yul\":3898:3925   */\n      tag_230\n        /* \"#utility.yul\":3920:3924   */\n      dup3\n        /* \"#utility.yul\":3898:3925   */\n      tag_141\n      jump\t// in\n    tag_230:\n        /* \"#utility.yul\":3890:3896   */\n      dup2\n        /* \"#utility.yul\":3886:3926   */\n      add\n        /* \"#utility.yul\":4028:4034   */\n      dup2\n        /* \"#utility.yul\":4016:4026   */\n      dup2\n        /* \"#utility.yul\":4013:4035   */\n      lt\n        /* \"#utility.yul\":3992:4010   */\n      0xffffffffffffffff\n        /* \"#utility.yul\":3980:3990   */\n      dup3\n        /* \"#utility.yul\":3977:4011   */\n      gt\n        /* \"#utility.yul\":3974:4036   */\n      or\n        /* \"#utility.yul\":3971:4059   */\n      iszero\n      tag_231\n      jumpi\n        /* \"#utility.yul\":4039:4057   */\n      tag_232\n      tag_117\n      jump\t// in\n    tag_232:\n        /* \"#utility.yul\":3971:4059   */\n    tag_231:\n        /* \"#utility.yul\":4079:4089   */\n      dup1\n        /* \"#utility.yul\":4075:4077   */\n      0x40\n        /* \"#utility.yul\":4068:4090   */\n      mstore\n        /* \"#utility.yul\":3858:4096   */\n      pop\n        /* \"#utility.yul\":3815:4096   */\n      pop\n      pop\n      jump\t// out\n        /* \"#utility.yul\":4102:4231   */\n    tag_157:\n        /* \"#utility.yul\":4136:4142   */\n      0x00\n        /* \"#utility.yul\":4163:4183   */\n      tag_234\n      tag_147\n      jump\t// in\n    tag_234:\n        /* \"#utility.yul\":4153:4183   */\n      swap1\n      pop\n        /* \"#utility.yul\":4192:4225   */\n      tag_235\n        /* \"#utility.yul\":4220:4224   */\n      dup3\n        /* \"#utility.yul\":4212:4218   */\n      dup3\n        /* \"#utility.yul\":4192:4225   */\n      tag_156\n      jump\t// in\n    tag_235:\n        /* \"#utility.yul\":4102:4231   */\n      swap2\n      swap1\n      pop\n      jump\t// out\n        /* \"#utility.yul\":4237:4545   */\n    tag_158:\n        /* \"#utility.yul\":4299:4303   */\n      0x00\n        /* \"#utility.yul\":4389:4407   */\n      0xffffffffffffffff\n        /* \"#utility.yul\":4381:4387   */\n      dup3\n        /* \"#utility.yul\":4378:4408   */\n      gt\n        /* \"#utility.yul\":4375:4431   */\n      iszero\n      tag_237\n      jumpi\n        /* \"#utility.yul\":4411:4429   */\n      tag_238\n      tag_117\n      jump\t// in\n    tag_238:\n        /* \"#utility.yul\":4375:4431   */\n    tag_237:\n        /* \"#utility.yul\":4449:4478   */\n      tag_239\n        /* \"#utility.yul\":4471:4477   */\n      dup3\n        /* \"#utility.yul\":4449:4478   */\n      tag_141\n      jump\t// in\n    tag_239:\n        /* \"#utility.yul\":4441:4478   */\n      swap1\n      pop\n        /* \"#utility.yul\":4533:4537   */\n      0x20\n        /* \"#utility.yul\":4527:4531   */\n      dup2\n        /* \"#utility.yul\":4523:4538   */\n      add\n        /* \"#utility.yul\":4515:4538   */\n      swap1\n      pop\n        /* \"#utility.yul\":4237:4545   */\n      swap2\n      swap1\n      pop\n      jump\t// out\n        /* \"#utility.yul\":4551:4697   */\n    tag_159:\n        /* \"#utility.yul\":4648:4654   */\n      dup3\n        /* \"#utility.yul\":4643:4646   */\n      dup2\n        /* \"#utility.yul\":4638:4641   */\n      dup4\n        /* \"#utility.yul\":4625:4655   */\n      calldatacopy\n        /* \"#utility.yul\":4689:4690   */\n      0x00\n        /* \"#utility.yul\":4680:4686   */\n      dup4\n        /* \"#utility.yul\":4675:4678   */\n      dup4\n        /* \"#utility.yul\":4671:4687   */\n      add\n        /* \"#utility.yul\":4664:4691   */\n      mstore\n        /* \"#utility.yul\":4551:4697   */\n      pop\n      pop\n      pop\n      jump\t// out\n        /* \"#utility.yul\":4703:5128   */\n    tag_160:\n        /* \"#utility.yul\":4781:4786   */\n      0x00\n        /* \"#utility.yul\":4806:4872   */\n      tag_242\n        /* \"#utility.yul\":4822:4871   */\n      tag_243\n        /* \"#utility.yul\":4864:4870   */\n      dup5\n        /* \"#utility.yul\":4822:4871   */\n      tag_158\n      jump\t// in\n    tag_243:\n        /* \"#utility.yul\":4806:4872   */\n      tag_157\n      jump\t// in\n    tag_242:\n        /* \"#utility.yul\":4797:4872   */\n      swap1\n      pop\n        /* \"#utility.yul\":4895:4901   */\n      dup3\n        /* \"#utility.yul\":4888:4893   */\n      dup2\n        /* \"#utility.yul\":4881:4902   */\n      mstore\n        /* \"#utility.yul\":4933:4937   */\n      0x20\n        /* \"#utility.yul\":4926:4931   */\n      dup2\n        /* \"#utility.yul\":4922:4938   */\n      add\n        /* \"#utility.yul\":4971:4974   */\n      dup5\n        /* \"#utility.yul\":4962:4968   */\n      dup5\n        /* \"#utility.yul\":4957:4960   */\n      dup5\n        /* \"#utility.yul\":4953:4969   */\n      add\n        /* \"#utility.yul\":4950:4975   */\n      gt\n        /* \"#utility.yul\":4947:5059   */\n      iszero\n      tag_244\n      jumpi\n        /* \"#utility.yul\":4978:5057   */\n      tag_245\n      tag_155\n      jump\t// in\n    tag_245:\n        /* \"#utility.yul\":4947:5059   */\n    tag_244:\n        /* \"#utility.yul\":5068:5122   */\n      tag_246\n        /* \"#utility.yul\":5115:5121   */\n      dup5\n        /* \"#utility.yul\":5110:5113   */\n      dup3\n        /* \"#utility.yul\":5105:5108   */\n      dup6\n        /* \"#utility.yul\":5068:5122   */\n      tag_159\n      jump\t// in\n    tag_246:\n        /* \"#utility.yul\":4787:5128   */\n      pop\n        /* \"#utility.yul\":4703:5128   */\n      swap4\n      swap3\n      pop\n      pop\n      pop\n      jump\t// out\n        /* \"#utility.yul\":5148:5488   */\n    tag_161:\n        /* \"#utility.yul\":5204:5209   */\n      0x00\n        /* \"#utility.yul\":5253:5256   */\n      dup3\n        /* \"#utility.yul\":5246:5250   */\n      0x1f\n        /* \"#utility.yul\":5238:5244   */\n      dup4\n        /* \"#utility.yul\":5234:5251   */\n      add\n        /* \"#utility.yul\":5230:5257   */\n      slt\n        /* \"#utility.yul\":5220:5342   */\n      tag_248\n      jumpi\n        /* \"#utility.yul\":5261:5340   */\n      tag_249\n      tag_154\n      jump\t// in\n    tag_249:\n        /* \"#utility.yul\":5220:5342   */\n    tag_248:\n        /* \"#utility.yul\":5378:5384   */\n      dup2\n        /* \"#utility.yul\":5365:5385   */\n      calldataload\n        /* \"#utility.yul\":5403:5482   */\n      tag_250\n        /* \"#utility.yul\":5478:5481   */\n      dup5\n        /* \"#utility.yul\":5470:5476   */\n      dup3\n        /* \"#utility.yul\":5463:5467   */\n      0x20\n        /* \"#utility.yul\":5455:5461   */\n      dup7\n        /* \"#utility.yul\":5451:5468   */\n      add\n        /* \"#utility.yul\":5403:5482   */\n      tag_160\n      jump\t// in\n    tag_250:\n        /* \"#utility.yul\":5394:5482   */\n      swap2\n      pop\n        /* \"#utility.yul\":5210:5488   */\n      pop\n        /* \"#utility.yul\":5148:5488   */\n      swap3\n      swap2\n      pop\n      pop\n      jump\t// out\n        /* \"#utility.yul\":5494:6003   */\n    tag_31:\n        /* \"#utility.yul\":5563:5569   */\n      0x00\n        /* \"#utility.yul\":5612:5614   */\n      0x20\n        /* \"#utility.yul\":5600:5609   */\n      dup3\n        /* \"#utility.yul\":5591:5598   */\n      dup5\n        /* \"#utility.yul\":5587:5610   */\n      sub\n        /* \"#utility.yul\":5583:5615   */\n      slt\n        /* \"#utility.yul\":5580:5699   */\n      iszero\n      tag_252\n      jumpi\n        /* \"#utility.yul\":5618:5697   */\n      tag_253\n      tag_148\n      jump\t// in\n    tag_253:\n        /* \"#utility.yul\":5580:5699   */\n    tag_252:\n        /* \"#utility.yul\":5766:5767   */\n      0x00\n        /* \"#utility.yul\":5755:5764   */\n      dup3\n        /* \"#utility.yul\":5751:5768   */\n      add\n        /* \"#utility.yul\":5738:5769   */\n      calldataload\n        /* \"#utility.yul\":5796:5814   */\n      0xffffffffffffffff\n        /* \"#utility.yul\":5788:5794   */\n      dup2\n        /* \"#utility.yul\":5785:5815   */\n      gt\n        /* \"#utility.yul\":5782:5899   */\n      iszero\n      tag_254\n      jumpi\n        /* \"#utility.yul\":5818:5897   */\n      tag_255\n      tag_149\n      jump\t// in\n    tag_255:\n        /* \"#utility.yul\":5782:5899   */\n    tag_254:\n        /* \"#utility.yul\":5923:5986   */\n      tag_256\n        /* \"#utility.yul\":5978:5985   */\n      dup5\n        /* \"#utility.yul\":5969:5975   */\n      dup3\n        /* \"#utility.yul\":5958:5967   */\n      dup6\n        /* \"#utility.yul\":5954:5976   */\n      add\n        /* \"#utility.yul\":5923:5986   */\n      tag_161\n      jump\t// in\n    tag_256:\n        /* \"#utility.yul\":5913:5986   */\n      swap2\n      pop\n        /* \"#utility.yul\":5709:5996   */\n      pop\n        /* \"#utility.yul\":5494:6003   */\n      swap3\n      swap2\n      pop\n      pop\n      jump\t// out\n        /* \"#utility.yul\":6009:6131   */\n    tag_162:\n        /* \"#utility.yul\":6082:6106   */\n      tag_258\n        /* \"#utility.yul\":6100:6105   */\n      dup2\n        /* \"#utility.yul\":6082:6106   */\n      tag_143\n      jump\t// in\n    tag_258:\n        /* \"#utility.yul\":6075:6080   */\n      dup2\n        /* \"#utility.yul\":6072:6107   */\n      eq\n        /* \"#utility.yul\":6062:6125   */\n      tag_259\n      jumpi\n        /* \"#utility.yul\":6121:6122   */\n      0x00\n        /* \"#utility.yul\":6118:6119   */\n      dup1\n        /* \"#utility.yul\":6111:6123   */\n      revert\n        /* \"#utility.yul\":6062:6125   */\n    tag_259:\n        /* \"#utility.yul\":6009:6131   */\n      pop\n      jump\t// out\n        /* \"#utility.yul\":6137:6276   */\n    tag_163:\n        /* \"#utility.yul\":6183:6188   */\n      0x00\n        /* \"#utility.yul\":6221:6227   */\n      dup2\n        /* \"#utility.yul\":6208:6228   */\n      calldataload\n        /* \"#utility.yul\":6199:6228   */\n      swap1\n      pop\n        /* \"#utility.yul\":6237:6270   */\n      tag_261\n        /* \"#utility.yul\":6264:6269   */\n      dup2\n        /* \"#utility.yul\":6237:6270   */\n      tag_162\n      jump\t// in\n    tag_261:\n        /* \"#utility.yul\":6137:6276   */\n      swap3\n      swap2\n      pop\n      pop\n      jump\t// out\n        /* \"#utility.yul\":6282:6756   */\n    tag_39:\n        /* \"#utility.yul\":6350:6356   */\n      0x00\n        /* \"#utility.yul\":6358:6364   */\n      dup1\n        /* \"#utility.yul\":6407:6409   */\n      0x40\n        /* \"#utility.yul\":6395:6404   */\n      dup4\n        /* \"#utility.yul\":6386:6393   */\n      dup6\n        /* \"#utility.yul\":6382:6405   */\n      sub\n        /* \"#utility.yul\":6378:6410   */\n      slt\n        /* \"#utility.yul\":6375:6494   */\n      iszero\n      tag_263\n      jumpi\n        /* \"#utility.yul\":6413:6492   */\n      tag_264\n      tag_148\n      jump\t// in\n    tag_264:\n        /* \"#utility.yul\":6375:6494   */\n    tag_263:\n        /* \"#utility.yul\":6533:6534   */\n      0x00\n        /* \"#utility.yul\":6558:6611   */\n      tag_265\n        /* \"#utility.yul\":6603:6610   */\n      dup6\n        /* \"#utility.yul\":6594:6600   */\n      dup3\n        /* \"#utility.yul\":6583:6592   */\n      dup7\n        /* \"#utility.yul\":6579:6601   */\n      add\n        /* \"#utility.yul\":6558:6611   */\n      tag_153\n      jump\t// in\n    tag_265:\n        /* \"#utility.yul\":6548:6611   */\n      swap3\n      pop\n        /* \"#utility.yul\":6504:6621   */\n      pop\n        /* \"#utility.yul\":6660:6662   */\n      0x20\n        /* \"#utility.yul\":6686:6739   */\n      tag_266\n        /* \"#utility.yul\":6731:6738   */\n      dup6\n        /* \"#utility.yul\":6722:6728   */\n      dup3\n        /* \"#utility.yul\":6711:6720   */\n      dup7\n        /* \"#utility.yul\":6707:6729   */\n      add\n        /* \"#utility.yul\":6686:6739   */\n      tag_163\n      jump\t// in\n    tag_266:\n        /* \"#utility.yul\":6676:6739   */\n      swap2\n      pop\n        /* \"#utility.yul\":6631:6749   */\n      pop\n        /* \"#utility.yul\":6282:6756   */\n      swap3\n      pop\n      swap3\n      swap1\n      pop\n      jump\t// out\n        /* \"#utility.yul\":6762:6852   */\n    tag_164:\n        /* \"#utility.yul\":6796:6803   */\n      0x00\n        /* \"#utility.yul\":6839:6844   */\n      dup2\n        /* \"#utility.yul\":6832:6845   */\n      iszero\n        /* \"#utility.yul\":6825:6846   */\n      iszero\n        /* \"#utility.yul\":6814:6846   */\n      swap1\n      pop\n        /* \"#utility.yul\":6762:6852   */\n      swap2\n      swap1\n      pop\n      jump\t// out\n        /* \"#utility.yul\":6858:6967   */\n    tag_165:\n        /* \"#utility.yul\":6939:6960   */\n      tag_269\n        /* \"#utility.yul\":6954:6959   */\n      dup2\n        /* \"#utility.yul\":6939:6960   */\n      tag_164\n      jump\t// in\n    tag_269:\n        /* \"#utility.yul\":6934:6937   */\n      dup3\n        /* \"#utility.yul\":6927:6961   */\n      mstore\n        /* \"#utility.yul\":6858:6967   */\n      pop\n      pop\n      jump\t// out\n        /* \"#utility.yul\":6973:7183   */\n    tag_42:\n        /* \"#utility.yul\":7060:7064   */\n      0x00\n        /* \"#utility.yul\":7098:7100   */\n      0x20\n        /* \"#utility.yul\":7087:7096   */\n      dup3\n        /* \"#utility.yul\":7083:7101   */\n      add\n        /* \"#utility.yul\":7075:7101   */\n      swap1\n      pop\n        /* \"#utility.yul\":7111:7176   */\n      tag_271\n        /* \"#utility.yul\":7173:7174   */\n      0x00\n        /* \"#utility.yul\":7162:7171   */\n      dup4\n        /* \"#utility.yul\":7158:7175   */\n      add\n        /* \"#utility.yul\":7149:7155   */\n      dup5\n        /* \"#utility.yul\":7111:7176   */\n      tag_165\n      jump\t// in\n    tag_271:\n        /* \"#utility.yul\":6973:7183   */\n      swap3\n      swap2\n      pop\n      pop\n      jump\t// out\n        /* \"#utility.yul\":7189:7663   */\n    tag_45:\n        /* \"#utility.yul\":7257:7263   */\n      0x00\n        /* \"#utility.yul\":7265:7271   */\n      dup1\n        /* \"#utility.yul\":7314:7316   */\n      0x40\n        /* \"#utility.yul\":7302:7311   */\n      dup4\n        /* \"#utility.yul\":7293:7300   */\n      dup6\n        /* \"#utility.yul\":7289:7312   */\n      sub\n        /* \"#utility.yul\":7285:7317   */\n      slt\n        /* \"#utility.yul\":7282:7401   */\n      iszero\n      tag_273\n      jumpi\n        /* \"#utility.yul\":7320:7399   */\n      tag_274\n      tag_148\n      jump\t// in\n    tag_274:\n        /* \"#utility.yul\":7282:7401   */\n    tag_273:\n        /* \"#utility.yul\":7440:7441   */\n      0x00\n        /* \"#utility.yul\":7465:7518   */\n      tag_275\n        /* \"#utility.yul\":7510:7517   */\n      dup6\n        /* \"#utility.yul\":7501:7507   */\n      dup3\n        /* \"#utility.yul\":7490:7499   */\n      dup7\n        /* \"#utility.yul\":7486:7508   */\n      add\n        /* \"#utility.yul\":7465:7518   */\n      tag_153\n      jump\t// in\n    tag_275:\n        /* \"#utility.yul\":7455:7518   */\n      swap3\n      pop\n        /* \"#utility.yul\":7411:7528   */\n      pop\n        /* \"#utility.yul\":7567:7569   */\n      0x20\n        /* \"#utility.yul\":7593:7646   */\n      tag_276\n        /* \"#utility.yul\":7638:7645   */\n      dup6\n        /* \"#utility.yul\":7629:7635   */\n      dup3\n        /* \"#utility.yul\":7618:7627   */\n      dup7\n        /* \"#utility.yul\":7614:7636   */\n      add\n        /* \"#utility.yul\":7593:7646   */\n      tag_153\n      jump\t// in\n    tag_276:\n        /* \"#utility.yul\":7583:7646   */\n      swap2\n      pop\n        /* \"#utility.yul\":7538:7656   */\n      pop\n        /* \"#utility.yul\":7189:7663   */\n      swap3\n      pop\n      swap3\n      swap1\n      pop\n      jump\t// out\n        /* \"#utility.yul\":7669:7849   */\n    tag_166:\n        /* \"#utility.yul\":7717:7794   */\n      0x4e487b7100000000000000000000000000000000000000000000000000000000\n        /* \"#utility.yul\":7714:7715   */\n      0x00\n        /* \"#utility.yul\":7707:7795   */\n      mstore\n        /* \"#utility.yul\":7814:7818   */\n      0x22\n        /* \"#utility.yul\":7811:7812   */\n      0x04\n        /* \"#utility.yul\":7804:7819   */\n      mstore\n        /* \"#utility.yul\":7838:7842   */\n      0x24\n        /* \"#utility.yul\":7835:7836   */\n      0x00\n        /* \"#utility.yul\":7828:7843   */\n      revert\n        /* \"#utility.yul\":7855:8175   */\n    tag_50:\n        /* \"#utility.yul\":7899:7905   */\n      0x00\n        /* \"#utility.yul\":7936:7937   */\n      0x02\n        /* \"#utility.yul\":7930:7934   */\n      dup3\n        /* \"#utility.yul\":7926:7938   */\n      div\n        /* \"#utility.yul\":7916:7938   */\n      swap1\n      pop\n        /* \"#utility.yul\":7983:7984   */\n      0x01\n        /* \"#utility.yul\":7977:7981   */\n      dup3\n        /* \"#utility.yul\":7973:7985   */\n      and\n        /* \"#utility.yul\":8004:8022   */\n      dup1\n        /* \"#utility.yul\":7994:8075   */\n      tag_279\n      jumpi\n        /* \"#utility.yul\":8060:8064   */\n      0x7f\n        /* \"#utility.yul\":8052:8058   */\n      dup3\n        /* \"#utility.yul\":8048:8065   */\n      and\n        /* \"#utility.yul\":8038:8065   */\n      swap2\n      pop\n        /* \"#utility.yul\":7994:8075   */\n    tag_279:\n        /* \"#utility.yul\":8122:8124   */\n      0x20\n        /* \"#utility.yul\":8114:8120   */\n      dup3\n        /* \"#utility.yul\":8111:8125   */\n      lt\n        /* \"#utility.yul\":8091:8109   */\n      dup2\n        /* \"#utility.yul\":8088:8126   */\n      sub\n        /* \"#utility.yul\":8085:8169   */\n      tag_280\n      jumpi\n        /* \"#utility.yul\":8141:8159   */\n      tag_281\n      tag_166\n      jump\t// in\n    tag_281:\n        /* \"#utility.yul\":8085:8169   */\n    tag_280:\n        /* \"#utility.yul\":7906:8175   */\n      pop\n        /* \"#utility.yul\":7855:8175   */\n      swap2\n      swap1\n      pop\n      jump\t// out\n        /* \"#utility.yul\":8181:8358   */\n    tag_167:\n        /* \"#utility.yul\":8321:8350   */\n      0x426f6f702053656e646572206164647265737320696e76616c69640000000000\n        /* \"#utility.yul\":8317:8318   */\n      0x00\n        /* \"#utility.yul\":8309:8315   */\n      dup3\n        /* \"#utility.yul\":8305:8319   */\n      add\n        /* \"#utility.yul\":8298:8351   */\n      mstore\n        /* \"#utility.yul\":8181:8358   */\n      pop\n      jump\t// out\n        /* \"#utility.yul\":8364:8730   */\n    tag_168:\n        /* \"#utility.yul\":8506:8509   */\n      0x00\n        /* \"#utility.yul\":8527:8594   */\n      tag_284\n        /* \"#utility.yul\":8591:8593   */\n      0x1b\n        /* \"#utility.yul\":8586:8589   */\n      dup4\n        /* \"#utility.yul\":8527:8594   */\n      tag_139\n      jump\t// in\n    tag_284:\n        /* \"#utility.yul\":8520:8594   */\n      swap2\n      pop\n        /* \"#utility.yul\":8603:8696   */\n      tag_285\n        /* \"#utility.yul\":8692:8695   */\n      dup3\n        /* \"#utility.yul\":8603:8696   */\n      tag_167\n      jump\t// in\n    tag_285:\n        /* \"#utility.yul\":8721:8723   */\n      0x20\n        /* \"#utility.yul\":8716:8719   */\n      dup3\n        /* \"#utility.yul\":8712:8724   */\n      add\n        /* \"#utility.yul\":8705:8724   */\n      swap1\n      pop\n        /* \"#utility.yul\":8364:8730   */\n      swap2\n      swap1\n      pop\n      jump\t// out\n        /* \"#utility.yul\":8736:9155   */\n    tag_72:\n        /* \"#utility.yul\":8902:8906   */\n      0x00\n        /* \"#utility.yul\":8940:8942   */\n      0x20\n        /* \"#utility.yul\":8929:8938   */\n      dup3\n        /* \"#utility.yul\":8925:8943   */\n      add\n        /* \"#utility.yul\":8917:8943   */\n      swap1\n      pop\n        /* \"#utility.yul\":8989:8998   */\n      dup2\n        /* \"#utility.yul\":8983:8987   */\n      dup2\n        /* \"#utility.yul\":8979:8999   */\n      sub\n        /* \"#utility.yul\":8975:8976   */\n      0x00\n        /* \"#utility.yul\":8964:8973   */\n      dup4\n        /* \"#utility.yul\":8960:8977   */\n      add\n        /* \"#utility.yul\":8953:9000   */\n      mstore\n        /* \"#utility.yul\":9017:9148   */\n      tag_287\n        /* \"#utility.yul\":9143:9147   */\n      dup2\n        /* \"#utility.yul\":9017:9148   */\n      tag_168\n      jump\t// in\n    tag_287:\n        /* \"#utility.yul\":9009:9148   */\n      swap1\n      pop\n        /* \"#utility.yul\":8736:9155   */\n      swap2\n      swap1\n      pop\n      jump\t// out\n        /* \"#utility.yul\":9161:9340   */\n    tag_169:\n        /* \"#utility.yul\":9301:9332   */\n      0x426f6f70205265636569766572206164647265737320696e76616c6964000000\n        /* \"#utility.yul\":9297:9298   */\n      0x00\n        /* \"#utility.yul\":9289:9295   */\n      dup3\n        /* \"#utility.yul\":9285:9299   */\n      add\n        /* \"#utility.yul\":9278:9333   */\n      mstore\n        /* \"#utility.yul\":9161:9340   */\n      pop\n      jump\t// out\n        /* \"#utility.yul\":9346:9712   */\n    tag_170:\n        /* \"#utility.yul\":9488:9491   */\n      0x00\n        /* \"#utility.yul\":9509:9576   */\n      tag_290\n        /* \"#utility.yul\":9573:9575   */\n      0x1d\n        /* \"#utility.yul\":9568:9571   */\n      dup4\n        /* \"#utility.yul\":9509:9576   */\n      tag_139\n      jump\t// in\n    tag_290:\n        /* \"#utility.yul\":9502:9576   */\n      swap2\n      pop\n        /* \"#utility.yul\":9585:9678   */\n      tag_291\n        /* \"#utility.yul\":9674:9677   */\n      dup3\n        /* \"#utility.yul\":9585:9678   */\n      tag_169\n      jump\t// in\n    tag_291:\n        /* \"#utility.yul\":9703:9705   */\n      0x20\n        /* \"#utility.yul\":9698:9701   */\n      dup3\n        /* \"#utility.yul\":9694:9706   */\n      add\n        /* \"#utility.yul\":9687:9706   */\n      swap1\n      pop\n        /* \"#utility.yul\":9346:9712   */\n      swap2\n      swap1\n      pop\n      jump\t// out\n        /* \"#utility.yul\":9718:10137   */\n    tag_75:\n        /* \"#utility.yul\":9884:9888   */\n      0x00\n        /* \"#utility.yul\":9922:9924   */\n      0x20\n        /* \"#utility.yul\":9911:9920   */\n      dup3\n        /* \"#utility.yul\":9907:9925   */\n      add\n        /* \"#utility.yul\":9899:9925   */\n      swap1\n      pop\n        /* \"#utility.yul\":9971:9980   */\n      dup2\n        /* \"#utility.yul\":9965:9969   */\n      dup2\n        /* \"#utility.yul\":9961:9981   */\n      sub\n        /* \"#utility.yul\":9957:9958   */\n      0x00\n        /* \"#utility.yul\":9946:9955   */\n      dup4\n        /* \"#utility.yul\":9942:9959   */\n      add\n        /* \"#utility.yul\":9935:9982   */\n      mstore\n        /* \"#utility.yul\":9999:10130   */\n      tag_293\n        /* \"#utility.yul\":10125:10129   */\n      dup2\n        /* \"#utility.yul\":9999:10130   */\n      tag_170\n      jump\t// in\n    tag_293:\n        /* \"#utility.yul\":9991:10130   */\n      swap1\n      pop\n        /* \"#utility.yul\":9718:10137   */\n      swap2\n      swap1\n      pop\n      jump\t// out\n        /* \"#utility.yul\":10143:10291   */\n    tag_171:\n        /* \"#utility.yul\":10245:10256   */\n      0x00\n        /* \"#utility.yul\":10282:10285   */\n      dup2\n        /* \"#utility.yul\":10267:10285   */\n      swap1\n      pop\n        /* \"#utility.yul\":10143:10291   */\n      swap3\n      swap2\n      pop\n      pop\n      jump\t// out\n        /* \"#utility.yul\":10297:10687   */\n    tag_172:\n        /* \"#utility.yul\":10403:10406   */\n      0x00\n        /* \"#utility.yul\":10431:10470   */\n      tag_296\n        /* \"#utility.yul\":10464:10469   */\n      dup3\n        /* \"#utility.yul\":10431:10470   */\n      tag_138\n      jump\t// in\n    tag_296:\n        /* \"#utility.yul\":10486:10575   */\n      tag_297\n        /* \"#utility.yul\":10568:10574   */\n      dup2\n        /* \"#utility.yul\":10563:10566   */\n      dup6\n        /* \"#utility.yul\":10486:10575   */\n      tag_171\n      jump\t// in\n    tag_297:\n        /* \"#utility.yul\":10479:10575   */\n      swap4\n      pop\n        /* \"#utility.yul\":10584:10649   */\n      tag_298\n        /* \"#utility.yul\":10642:10648   */\n      dup2\n        /* \"#utility.yul\":10637:10640   */\n      dup6\n        /* \"#utility.yul\":10630:10634   */\n      0x20\n        /* \"#utility.yul\":10623:10628   */\n      dup7\n        /* \"#utility.yul\":10619:10635   */\n      add\n        /* \"#utility.yul\":10584:10649   */\n      tag_140\n      jump\t// in\n    tag_298:\n        /* \"#utility.yul\":10674:10680   */\n      dup1\n        /* \"#utility.yul\":10669:10672   */\n      dup5\n        /* \"#utility.yul\":10665:10681   */\n      add\n        /* \"#utility.yul\":10658:10681   */\n      swap2\n      pop\n        /* \"#utility.yul\":10407:10687   */\n      pop\n        /* \"#utility.yul\":10297:10687   */\n      swap3\n      swap2\n      pop\n      pop\n      jump\t// out\n        /* \"#utility.yul\":10693:10845   */\n    tag_173:\n        /* \"#utility.yul\":10833:10837   */\n      0x5f5f000000000000000000000000000000000000000000000000000000000000\n        /* \"#utility.yul\":10829:10830   */\n      0x00\n        /* \"#utility.yul\":10821:10827   */\n      dup3\n        /* \"#utility.yul\":10817:10831   */\n      add\n        /* \"#utility.yul\":10810:10838   */\n      mstore\n        /* \"#utility.yul\":10693:10845   */\n      pop\n      jump\t// out\n        /* \"#utility.yul\":10851:11251   */\n    tag_174:\n        /* \"#utility.yul\":11011:11014   */\n      0x00\n        /* \"#utility.yul\":11032:11116   */\n      tag_301\n        /* \"#utility.yul\":11114:11115   */\n      0x02\n        /* \"#utility.yul\":11109:11112   */\n      dup4\n        /* \"#utility.yul\":11032:11116   */\n      tag_171\n      jump\t// in\n    tag_301:\n        /* \"#utility.yul\":11025:11116   */\n      swap2\n      pop\n        /* \"#utility.yul\":11125:11218   */\n      tag_302\n        /* \"#utility.yul\":11214:11217   */\n      dup3\n        /* \"#utility.yul\":11125:11218   */\n      tag_173\n      jump\t// in\n    tag_302:\n        /* \"#utility.yul\":11243:11244   */\n      0x02\n        /* \"#utility.yul\":11238:11241   */\n      dup3\n        /* \"#utility.yul\":11234:11245   */\n      add\n        /* \"#utility.yul\":11227:11245   */\n      swap1\n      pop\n        /* \"#utility.yul\":10851:11251   */\n      swap2\n      swap1\n      pop\n      jump\t// out\n        /* \"#utility.yul\":11257:11798   */\n    tag_80:\n        /* \"#utility.yul\":11490:11493   */\n      0x00\n        /* \"#utility.yul\":11512:11607   */\n      tag_304\n        /* \"#utility.yul\":11603:11606   */\n      dup3\n        /* \"#utility.yul\":11594:11600   */\n      dup5\n        /* \"#utility.yul\":11512:11607   */\n      tag_172\n      jump\t// in\n    tag_304:\n        /* \"#utility.yul\":11505:11607   */\n      swap2\n      pop\n        /* \"#utility.yul\":11624:11772   */\n      tag_305\n        /* \"#utility.yul\":11768:11771   */\n      dup3\n        /* \"#utility.yul\":11624:11772   */\n      tag_174\n      jump\t// in\n    tag_305:\n        /* \"#utility.yul\":11617:11772   */\n      swap2\n      pop\n        /* \"#utility.yul\":11789:11792   */\n      dup2\n        /* \"#utility.yul\":11782:11792   */\n      swap1\n      pop\n        /* \"#utility.yul\":11257:11798   */\n      swap3\n      swap2\n      pop\n      pop\n      jump\t// out\n        /* \"#utility.yul\":11804:12239   */\n    tag_82:\n        /* \"#utility.yul\":11984:11987   */\n      0x00\n        /* \"#utility.yul\":12006:12101   */\n      tag_307\n        /* \"#utility.yul\":12097:12100   */\n      dup3\n        /* \"#utility.yul\":12088:12094   */\n      dup6\n        /* \"#utility.yul\":12006:12101   */\n      tag_172\n      jump\t// in\n    tag_307:\n        /* \"#utility.yul\":11999:12101   */\n      swap2\n      pop\n        /* \"#utility.yul\":12118:12213   */\n      tag_308\n        /* \"#utility.yul\":12209:12212   */\n      dup3\n        /* \"#utility.yul\":12200:12206   */\n      dup5\n        /* \"#utility.yul\":12118:12213   */\n      tag_172\n      jump\t// in\n    tag_308:\n        /* \"#utility.yul\":12111:12213   */\n      swap2\n      pop\n        /* \"#utility.yul\":12230:12233   */\n      dup2\n        /* \"#utility.yul\":12223:12233   */\n      swap1\n      pop\n        /* \"#utility.yul\":11804:12239   */\n      swap4\n      swap3\n      pop\n      pop\n      pop\n      jump\t// out\n        /* \"#utility.yul\":12245:12520   */\n    tag_84:\n        /* \"#utility.yul\":12377:12380   */\n      0x00\n        /* \"#utility.yul\":12399:12494   */\n      tag_310\n        /* \"#utility.yul\":12490:12493   */\n      dup3\n        /* \"#utility.yul\":12481:12487   */\n      dup5\n        /* \"#utility.yul\":12399:12494   */\n      tag_172\n      jump\t// in\n    tag_310:\n        /* \"#utility.yul\":12392:12494   */\n      swap2\n      pop\n        /* \"#utility.yul\":12511:12514   */\n      dup2\n        /* \"#utility.yul\":12504:12514   */\n      swap1\n      pop\n        /* \"#utility.yul\":12245:12520   */\n      swap3\n      swap2\n      pop\n      pop\n      jump\t// out\n        /* \"#utility.yul\":12526:12750   */\n    tag_175:\n        /* \"#utility.yul\":12666:12700   */\n      0x45524332303a207472616e736665722066726f6d20746865207a65726f206164\n        /* \"#utility.yul\":12662:12663   */\n      0x00\n        /* \"#utility.yul\":12654:12660   */\n      dup3\n        /* \"#utility.yul\":12650:12664   */\n      add\n        /* \"#utility.yul\":12643:12701   */\n      mstore\n        /* \"#utility.yul\":12735:12742   */\n      0x6472657373000000000000000000000000000000000000000000000000000000\n        /* \"#utility.yul\":12730:12732   */\n      0x20\n        /* \"#utility.yul\":12722:12728   */\n      dup3\n        /* \"#utility.yul\":12718:12733   */\n      add\n        /* \"#utility.yul\":12711:12743   */\n      mstore\n        /* \"#utility.yul\":12526:12750   */\n      pop\n      jump\t// out\n        /* \"#utility.yul\":12756:13122   */\n    tag_176:\n        /* \"#utility.yul\":12898:12901   */\n      0x00\n        /* \"#utility.yul\":12919:12986   */\n      tag_313\n        /* \"#utility.yul\":12983:12985   */\n      0x25\n        /* \"#utility.yul\":12978:12981   */\n      dup4\n        /* \"#utility.yul\":12919:12986   */\n      tag_139\n      jump\t// in\n    tag_313:\n        /* \"#utility.yul\":12912:12986   */\n      swap2\n      pop\n        /* \"#utility.yul\":12995:13088   */\n      tag_314\n        /* \"#utility.yul\":13084:13087   */\n      dup3\n        /* \"#utility.yul\":12995:13088   */\n      tag_175\n      jump\t// in\n    tag_314:\n        /* \"#utility.yul\":13113:13115   */\n      0x40\n        /* \"#utility.yul\":13108:13111   */\n      dup3\n        /* \"#utility.yul\":13104:13116   */\n      add\n        /* \"#utility.yul\":13097:13116   */\n      swap1\n      pop\n        /* \"#utility.yul\":12756:13122   */\n      swap2\n      swap1\n      pop\n      jump\t// out\n        /* \"#utility.yul\":13128:13547   */\n    tag_89:\n        /* \"#utility.yul\":13294:13298   */\n      0x00\n        /* \"#utility.yul\":13332:13334   */\n      0x20\n        /* \"#utility.yul\":13321:13330   */\n      dup3\n        /* \"#utility.yul\":13317:13335   */\n      add\n        /* \"#utility.yul\":13309:13335   */\n      swap1\n      pop\n        /* \"#utility.yul\":13381:13390   */\n      dup2\n        /* \"#utility.yul\":13375:13379   */\n      dup2\n        /* \"#utility.yul\":13371:13391   */\n      sub\n        /* \"#utility.yul\":13367:13368   */\n      0x00\n        /* \"#utility.yul\":13356:13365   */\n      dup4\n        /* \"#utility.yul\":13352:13369   */\n      add\n        /* \"#utility.yul\":13345:13392   */\n      mstore\n        /* \"#utility.yul\":13409:13540   */\n      tag_316\n        /* \"#utility.yul\":13535:13539   */\n      dup2\n        /* \"#utility.yul\":13409:13540   */\n      tag_176\n      jump\t// in\n    tag_316:\n        /* \"#utility.yul\":13401:13540   */\n      swap1\n      pop\n        /* \"#utility.yul\":13128:13547   */\n      swap2\n      swap1\n      pop\n      jump\t// out\n        /* \"#utility.yul\":13553:13775   */\n    tag_177:\n        /* \"#utility.yul\":13693:13727   */\n      0x45524332303a207472616e7366657220746f20746865207a65726f2061646472\n        /* \"#utility.yul\":13689:13690   */\n      0x00\n        /* \"#utility.yul\":13681:13687   */\n      dup3\n        /* \"#utility.yul\":13677:13691   */\n      add\n        /* \"#utility.yul\":13670:13728   */\n      mstore\n        /* \"#utility.yul\":13762:13767   */\n      0x6573730000000000000000000000000000000000000000000000000000000000\n        /* \"#utility.yul\":13757:13759   */\n      0x20\n        /* \"#utility.yul\":13749:13755   */\n      dup3\n        /* \"#utility.yul\":13745:13760   */\n      add\n        /* \"#utility.yul\":13738:13768   */\n      mstore\n        /* \"#utility.yul\":13553:13775   */\n      pop\n      jump\t// out\n        /* \"#utility.yul\":13781:14147   */\n    tag_178:\n        /* \"#utility.yul\":13923:13926   */\n      0x00\n        /* \"#utility.yul\":13944:14011   */\n      tag_319\n        /* \"#utility.yul\":14008:14010   */\n      0x23\n        /* \"#utility.yul\":14003:14006   */\n      dup4\n        /* \"#utility.yul\":13944:14011   */\n      tag_139\n      jump\t// in\n    tag_319:\n        /* \"#utility.yul\":13937:14011   */\n      swap2\n      pop\n        /* \"#utility.yul\":14020:14113   */\n      tag_320\n        /* \"#utility.yul\":14109:14112   */\n      dup3\n        /* \"#utility.yul\":14020:14113   */\n      tag_177\n      jump\t// in\n    tag_320:\n        /* \"#utility.yul\":14138:14140   */\n      0x40\n        /* \"#utility.yul\":14133:14136   */\n      dup3\n        /* \"#utility.yul\":14129:14141   */\n      add\n        /* \"#utility.yul\":14122:14141   */\n      swap1\n      pop\n        /* \"#utility.yul\":13781:14147   */\n      swap2\n      swap1\n      pop\n      jump\t// out\n        /* \"#utility.yul\":14153:14572   */\n    tag_92:\n        /* \"#utility.yul\":14319:14323   */\n      0x00\n        /* \"#utility.yul\":14357:14359   */\n      0x20\n        /* \"#utility.yul\":14346:14355   */\n      dup3\n        /* \"#utility.yul\":14342:14360   */\n      add\n        /* \"#utility.yul\":14334:14360   */\n      swap1\n      pop\n        /* \"#utility.yul\":14406:14415   */\n      dup2\n        /* \"#utility.yul\":14400:14404   */\n      dup2\n        /* \"#utility.yul\":14396:14416   */\n      sub\n        /* \"#utility.yul\":14392:14393   */\n      0x00\n        /* \"#utility.yul\":14381:14390   */\n      dup4\n        /* \"#utility.yul\":14377:14394   */\n      add\n        /* \"#utility.yul\":14370:14417   */\n      mstore\n        /* \"#utility.yul\":14434:14565   */\n      tag_322\n        /* \"#utility.yul\":14560:14564   */\n      dup2\n        /* \"#utility.yul\":14434:14565   */\n      tag_178\n      jump\t// in\n    tag_322:\n        /* \"#utility.yul\":14426:14565   */\n      swap1\n      pop\n        /* \"#utility.yul\":14153:14572   */\n      swap2\n      swap1\n      pop\n      jump\t// out\n        /* \"#utility.yul\":14578:14805   */\n    tag_179:\n        /* \"#utility.yul\":14718:14752   */\n      0x4865792120596f752063616e27742074727920746f20626f6f7020796f757273\n        /* \"#utility.yul\":14714:14715   */\n      0x00\n        /* \"#utility.yul\":14706:14712   */\n      dup3\n        /* \"#utility.yul\":14702:14716   */\n      add\n        /* \"#utility.yul\":14695:14753   */\n      mstore\n        /* \"#utility.yul\":14787:14797   */\n      0x656c6621203e3a63000000000000000000000000000000000000000000000000\n        /* \"#utility.yul\":14782:14784   */\n      0x20\n        /* \"#utility.yul\":14774:14780   */\n      dup3\n        /* \"#utility.yul\":14770:14785   */\n      add\n        /* \"#utility.yul\":14763:14798   */\n      mstore\n        /* \"#utility.yul\":14578:14805   */\n      pop\n      jump\t// out\n        /* \"#utility.yul\":14811:15177   */\n    tag_180:\n        /* \"#utility.yul\":14953:14956   */\n      0x00\n        /* \"#utility.yul\":14974:15041   */\n      tag_325\n        /* \"#utility.yul\":15038:15040   */\n      0x28\n        /* \"#utility.yul\":15033:15036   */\n      dup4\n        /* \"#utility.yul\":14974:15041   */\n      tag_139\n      jump\t// in\n    tag_325:\n        /* \"#utility.yul\":14967:15041   */\n      swap2\n      pop\n        /* \"#utility.yul\":15050:15143   */\n      tag_326\n        /* \"#utility.yul\":15139:15142   */\n      dup3\n        /* \"#utility.yul\":15050:15143   */\n      tag_179\n      jump\t// in\n    tag_326:\n        /* \"#utility.yul\":15168:15170   */\n      0x40\n        /* \"#utility.yul\":15163:15166   */\n      dup3\n        /* \"#utility.yul\":15159:15171   */\n      add\n        /* \"#utility.yul\":15152:15171   */\n      swap1\n      pop\n        /* \"#utility.yul\":14811:15177   */\n      swap2\n      swap1\n      pop\n      jump\t// out\n        /* \"#utility.yul\":15183:15602   */\n    tag_95:\n        /* \"#utility.yul\":15349:15353   */\n      0x00\n        /* \"#utility.yul\":15387:15389   */\n      0x20\n        /* \"#utility.yul\":15376:15385   */\n      dup3\n        /* \"#utility.yul\":15372:15390   */\n      add\n        /* \"#utility.yul\":15364:15390   */\n      swap1\n      pop\n        /* \"#utility.yul\":15436:15445   */\n      dup2\n        /* \"#utility.yul\":15430:15434   */\n      dup2\n        /* \"#utility.yul\":15426:15446   */\n      sub\n        /* \"#utility.yul\":15422:15423   */\n      0x00\n        /* \"#utility.yul\":15411:15420   */\n      dup4\n        /* \"#utility.yul\":15407:15424   */\n      add\n        /* \"#utility.yul\":15400:15447   */\n      mstore\n        /* \"#utility.yul\":15464:15595   */\n      tag_328\n        /* \"#utility.yul\":15590:15594   */\n      dup2\n        /* \"#utility.yul\":15464:15595   */\n      tag_180\n      jump\t// in\n    tag_328:\n        /* \"#utility.yul\":15456:15595   */\n      swap1\n      pop\n        /* \"#utility.yul\":15183:15602   */\n      swap2\n      swap1\n      pop\n      jump\t// out\n        /* \"#utility.yul\":15608:15849   */\n    tag_181:\n        /* \"#utility.yul\":15748:15782   */\n      0x43616c6d20796f7572206372617a79207061772120426f6f702056616c756520\n        /* \"#utility.yul\":15744:15745   */\n      0x00\n        /* \"#utility.yul\":15736:15742   */\n      dup3\n        /* \"#utility.yul\":15732:15746   */\n      add\n        /* \"#utility.yul\":15725:15783   */\n      mstore\n        /* \"#utility.yul\":15817:15841   */\n      0x6d757374206265206265747765656e203120746f203300000000000000000000\n        /* \"#utility.yul\":15812:15814   */\n      0x20\n        /* \"#utility.yul\":15804:15810   */\n      dup3\n        /* \"#utility.yul\":15800:15815   */\n      add\n        /* \"#utility.yul\":15793:15842   */\n      mstore\n        /* \"#utility.yul\":15608:15849   */\n      pop\n      jump\t// out\n        /* \"#utility.yul\":15855:16221   */\n    tag_182:\n        /* \"#utility.yul\":15997:16000   */\n      0x00\n        /* \"#utility.yul\":16018:16085   */\n      tag_331\n        /* \"#utility.yul\":16082:16084   */\n      0x36\n        /* \"#utility.yul\":16077:16080   */\n      dup4\n        /* \"#utility.yul\":16018:16085   */\n      tag_139\n      jump\t// in\n    tag_331:\n        /* \"#utility.yul\":16011:16085   */\n      swap2\n      pop\n        /* \"#utility.yul\":16094:16187   */\n      tag_332\n        /* \"#utility.yul\":16183:16186   */\n      dup3\n        /* \"#utility.yul\":16094:16187   */\n      tag_181\n      jump\t// in\n    tag_332:\n        /* \"#utility.yul\":16212:16214   */\n      0x40\n        /* \"#utility.yul\":16207:16210   */\n      dup3\n        /* \"#utility.yul\":16203:16215   */\n      add\n        /* \"#utility.yul\":16196:16215   */\n      swap1\n      pop\n        /* \"#utility.yul\":15855:16221   */\n      swap2\n      swap1\n      pop\n      jump\t// out\n        /* \"#utility.yul\":16227:16646   */\n    tag_98:\n        /* \"#utility.yul\":16393:16397   */\n      0x00\n        /* \"#utility.yul\":16431:16433   */\n      0x20\n        /* \"#utility.yul\":16420:16429   */\n      dup3\n        /* \"#utility.yul\":16416:16434   */\n      add\n        /* \"#utility.yul\":16408:16434   */\n      swap1\n      pop\n        /* \"#utility.yul\":16480:16489   */\n      dup2\n        /* \"#utility.yul\":16474:16478   */\n      dup2\n        /* \"#utility.yul\":16470:16490   */\n      sub\n        /* \"#utility.yul\":16466:16467   */\n      0x00\n        /* \"#utility.yul\":16455:16464   */\n      dup4\n        /* \"#utility.yul\":16451:16468   */\n      add\n        /* \"#utility.yul\":16444:16491   */\n      mstore\n        /* \"#utility.yul\":16508:16639   */\n      tag_334\n        /* \"#utility.yul\":16634:16638   */\n      dup2\n        /* \"#utility.yul\":16508:16639   */\n      tag_182\n      jump\t// in\n    tag_334:\n        /* \"#utility.yul\":16500:16639   */\n      swap1\n      pop\n        /* \"#utility.yul\":16227:16646   */\n      swap2\n      swap1\n      pop\n      jump\t// out\n        /* \"#utility.yul\":16652:16832   */\n    tag_183:\n        /* \"#utility.yul\":16700:16777   */\n      0x4e487b7100000000000000000000000000000000000000000000000000000000\n        /* \"#utility.yul\":16697:16698   */\n      0x00\n        /* \"#utility.yul\":16690:16778   */\n      mstore\n        /* \"#utility.yul\":16797:16801   */\n      0x11\n        /* \"#utility.yul\":16794:16795   */\n      0x04\n        /* \"#utility.yul\":16787:16802   */\n      mstore\n        /* \"#utility.yul\":16821:16825   */\n      0x24\n        /* \"#utility.yul\":16818:16819   */\n      0x00\n        /* \"#utility.yul\":16811:16826   */\n      revert\n        /* \"#utility.yul\":16838:17248   */\n    tag_112:\n        /* \"#utility.yul\":16878:16885   */\n      0x00\n        /* \"#utility.yul\":16901:16921   */\n      tag_337\n        /* \"#utility.yul\":16919:16920   */\n      dup3\n        /* \"#utility.yul\":16901:16921   */\n      tag_143\n      jump\t// in\n    tag_337:\n        /* \"#utility.yul\":16896:16921   */\n      swap2\n      pop\n        /* \"#utility.yul\":16935:16955   */\n      tag_338\n        /* \"#utility.yul\":16953:16954   */\n      dup4\n        /* \"#utility.yul\":16935:16955   */\n      tag_143\n      jump\t// in\n    tag_338:\n        /* \"#utility.yul\":16930:16955   */\n      swap3\n      pop\n        /* \"#utility.yul\":16990:16991   */\n      dup3\n        /* \"#utility.yul\":16987:16988   */\n      dup3\n        /* \"#utility.yul\":16983:16992   */\n      mul\n        /* \"#utility.yul\":17012:17042   */\n      tag_339\n        /* \"#utility.yul\":17030:17041   */\n      dup2\n        /* \"#utility.yul\":17012:17042   */\n      tag_143\n      jump\t// in\n    tag_339:\n        /* \"#utility.yul\":17001:17042   */\n      swap2\n      pop\n        /* \"#utility.yul\":17191:17192   */\n      dup3\n        /* \"#utility.yul\":17182:17189   */\n      dup3\n        /* \"#utility.yul\":17178:17193   */\n      div\n        /* \"#utility.yul\":17175:17176   */\n      dup5\n        /* \"#utility.yul\":17172:17194   */\n      eq\n        /* \"#utility.yul\":17152:17153   */\n      dup4\n        /* \"#utility.yul\":17145:17154   */\n      iszero\n        /* \"#utility.yul\":17125:17208   */\n      or\n        /* \"#utility.yul\":17102:17241   */\n      tag_340\n      jumpi\n        /* \"#utility.yul\":17221:17239   */\n      tag_341\n      tag_183\n      jump\t// in\n    tag_341:\n        /* \"#utility.yul\":17102:17241   */\n    tag_340:\n        /* \"#utility.yul\":16886:17248   */\n      pop\n        /* \"#utility.yul\":16838:17248   */\n      swap3\n      swap2\n      pop\n      pop\n      jump\t// out\n        /* \"#utility.yul\":17254:17445   */\n    tag_114:\n        /* \"#utility.yul\":17294:17297   */\n      0x00\n        /* \"#utility.yul\":17313:17333   */\n      tag_343\n        /* \"#utility.yul\":17331:17332   */\n      dup3\n        /* \"#utility.yul\":17313:17333   */\n      tag_143\n      jump\t// in\n    tag_343:\n        /* \"#utility.yul\":17308:17333   */\n      swap2\n      pop\n        /* \"#utility.yul\":17347:17367   */\n      tag_344\n        /* \"#utility.yul\":17365:17366   */\n      dup4\n        /* \"#utility.yul\":17347:17367   */\n      tag_143\n      jump\t// in\n    tag_344:\n        /* \"#utility.yul\":17342:17367   */\n      swap3\n      pop\n        /* \"#utility.yul\":17390:17391   */\n      dup3\n        /* \"#utility.yul\":17387:17388   */\n      dup3\n        /* \"#utility.yul\":17383:17392   */\n      add\n        /* \"#utility.yul\":17376:17392   */\n      swap1\n      pop\n        /* \"#utility.yul\":17411:17414   */\n      dup1\n        /* \"#utility.yul\":17408:17409   */\n      dup3\n        /* \"#utility.yul\":17405:17415   */\n      gt\n        /* \"#utility.yul\":17402:17438   */\n      iszero\n      tag_345\n      jumpi\n        /* \"#utility.yul\":17418:17436   */\n      tag_346\n      tag_183\n      jump\t// in\n    tag_346:\n        /* \"#utility.yul\":17402:17438   */\n    tag_345:\n        /* \"#utility.yul\":17254:17445   */\n      swap3\n      swap2\n      pop\n      pop\n      jump\t// out\n        /* \"#utility.yul\":17451:17631   */\n    tag_121:\n        /* \"#utility.yul\":17499:17576   */\n      0x4e487b7100000000000000000000000000000000000000000000000000000000\n        /* \"#utility.yul\":17496:17497   */\n      0x00\n        /* \"#utility.yul\":17489:17577   */\n      mstore\n        /* \"#utility.yul\":17596:17600   */\n      0x32\n        /* \"#utility.yul\":17593:17594   */\n      0x04\n        /* \"#utility.yul\":17586:17601   */\n      mstore\n        /* \"#utility.yul\":17620:17624   */\n      0x24\n        /* \"#utility.yul\":17617:17618   */\n      0x00\n        /* \"#utility.yul\":17610:17625   */\n      revert\n        /* \"#utility.yul\":17637:17808   */\n    tag_134:\n        /* \"#utility.yul\":17676:17679   */\n      0x00\n        /* \"#utility.yul\":17699:17723   */\n      tag_349\n        /* \"#utility.yul\":17717:17722   */\n      dup3\n        /* \"#utility.yul\":17699:17723   */\n      tag_143\n      jump\t// in\n    tag_349:\n        /* \"#utility.yul\":17690:17723   */\n      swap2\n      pop\n        /* \"#utility.yul\":17745:17749   */\n      0x00\n        /* \"#utility.yul\":17738:17743   */\n      dup3\n        /* \"#utility.yul\":17735:17750   */\n      sub\n        /* \"#utility.yul\":17732:17773   */\n      tag_350\n      jumpi\n        /* \"#utility.yul\":17753:17771   */\n      tag_351\n      tag_183\n      jump\t// in\n    tag_351:\n        /* \"#utility.yul\":17732:17773   */\n    tag_350:\n        /* \"#utility.yul\":17800:17801   */\n      0x01\n        /* \"#utility.yul\":17793:17798   */\n      dup3\n        /* \"#utility.yul\":17789:17802   */\n      sub\n        /* \"#utility.yul\":17782:17802   */\n      swap1\n      pop\n        /* \"#utility.yul\":17637:17808   */\n      swap2\n      swap1\n      pop\n      jump\t// out\n        /* \"#utility.yul\":17814:17996   */\n    tag_184:\n        /* \"#utility.yul\":17954:17988   */\n      0x537472696e67733a20686578206c656e67746820696e73756666696369656e74\n        /* \"#utility.yul\":17950:17951   */\n      0x00\n        /* \"#utility.yul\":17942:17948   */\n      dup3\n        /* \"#utility.yul\":17938:17952   */\n      add\n        /* \"#utility.yul\":17931:17989   */\n      mstore\n        /* \"#utility.yul\":17814:17996   */\n      pop\n      jump\t// out\n        /* \"#utility.yul\":18002:18368   */\n    tag_185:\n        /* \"#utility.yul\":18144:18147   */\n      0x00\n        /* \"#utility.yul\":18165:18232   */\n      tag_354\n        /* \"#utility.yul\":18229:18231   */\n      0x20\n        /* \"#utility.yul\":18224:18227   */\n      dup4\n        /* \"#utility.yul\":18165:18232   */\n      tag_139\n      jump\t// in\n    tag_354:\n        /* \"#utility.yul\":18158:18232   */\n      swap2\n      pop\n        /* \"#utility.yul\":18241:18334   */\n      tag_355\n        /* \"#utility.yul\":18330:18333   */\n      dup3\n        /* \"#utility.yul\":18241:18334   */\n      tag_184\n      jump\t// in\n    tag_355:\n        /* \"#utility.yul\":18359:18361   */\n      0x20\n        /* \"#utility.yul\":18354:18357   */\n      dup3\n        /* \"#utility.yul\":18350:18362   */\n      add\n        /* \"#utility.yul\":18343:18362   */\n      swap1\n      pop\n        /* \"#utility.yul\":18002:18368   */\n      swap2\n      swap1\n      pop\n      jump\t// out\n        /* \"#utility.yul\":18374:18793   */\n    tag_137:\n        /* \"#utility.yul\":18540:18544   */\n      0x00\n        /* \"#utility.yul\":18578:18580   */\n      0x20\n        /* \"#utility.yul\":18567:18576   */\n      dup3\n        /* \"#utility.yul\":18563:18581   */\n      add\n        /* \"#utility.yul\":18555:18581   */\n      swap1\n      pop\n        /* \"#utility.yul\":18627:18636   */\n      dup2\n        /* \"#utility.yul\":18621:18625   */\n      dup2\n        /* \"#utility.yul\":18617:18637   */\n      sub\n        /* \"#utility.yul\":18613:18614   */\n      0x00\n        /* \"#utility.yul\":18602:18611   */\n      dup4\n        /* \"#utility.yul\":18598:18615   */\n      add\n        /* \"#utility.yul\":18591:18638   */\n      mstore\n        /* \"#utility.yul\":18655:18786   */\n      tag_357\n        /* \"#utility.yul\":18781:18785   */\n      dup2\n        /* \"#utility.yul\":18655:18786   */\n      tag_185\n      jump\t// in\n    tag_357:\n        /* \"#utility.yul\":18647:18786   */\n      swap1\n      pop\n        /* \"#utility.yul\":18374:18793   */\n      swap2\n      swap1\n      pop\n      jump\t// out\n\n    auxdata: 0xa2646970667358221220e574f3b747ca233c4d159f4a8f446b4d552f839ecd9e7f3dd54cfefe3fd1455f64736f6c63430008120033\n}\n",
				"bytecode": {
					"linkReferences": {},
					"object": "60806040523480156200001157600080fd5b506040518060400160405280600981526020017f54696e7920426f6f7000000000000000000000000000000000000000000000008152506003908162000058919062000320565b506040518060400160405280600481526020017f426f6f7000000000000000000000000000000000000000000000000000000000815250600490816200009f919062000320565b5062000407565b600081519050919050565b7f4e487b7100000000000000000000000000000000000000000000000000000000600052604160045260246000fd5b7f4e487b7100000000000000000000000000000000000000000000000000000000600052602260045260246000fd5b600060028204905060018216806200012857607f821691505b6020821081036200013e576200013d620000e0565b5b50919050565b60008190508160005260206000209050919050565b60006020601f8301049050919050565b600082821b905092915050565b600060088302620001a87fffffffffffffffffffffffffffffffffffffffffffffffffffffffffffffffff8262000169565b620001b4868362000169565b95508019841693508086168417925050509392505050565b6000819050919050565b6000819050919050565b600062000201620001fb620001f584620001cc565b620001d6565b620001cc565b9050919050565b6000819050919050565b6200021d83620001e0565b620002356200022c8262000208565b84845462000176565b825550505050565b600090565b6200024c6200023d565b6200025981848462000212565b505050565b5b8181101562000281576200027560008262000242565b6001810190506200025f565b5050565b601f821115620002d0576200029a8162000144565b620002a58462000159565b81016020851015620002b5578190505b620002cd620002c48562000159565b8301826200025e565b50505b505050565b600082821c905092915050565b6000620002f560001984600802620002d5565b1980831691505092915050565b6000620003108383620002e2565b9150826002028217905092915050565b6200032b82620000a6565b67ffffffffffffffff811115620003475762000346620000b1565b5b6200035382546200010f565b6200036082828562000285565b600060209050601f83116001811462000398576000841562000383578287015190505b6200038f858262000302565b865550620003ff565b601f198416620003a88662000144565b60005b82811015620003d257848901518255600182019150602085019450602081019050620003ab565b86831015620003f25784890151620003ee601f891682620002e2565b8355505b6001600288020188555050505b505050505050565b6114ba80620004176000396000f3fe608060405234801561001057600080fd5b50600436106100885760003560e01c806389de1f5f1161005b57806389de1f5f1461011757806395d89b4114610147578063a9059cbb14610165578063eb55bc6b1461019557610088565b806306fdde031461008d57806318160ddd146100ab578063313ce567146100c957806370a08231146100e7575b600080fd5b6100956101c5565b6040516100a29190610b2a565b60405180910390f35b6100b3610257565b6040516100c09190610b65565b60405180910390f35b6100d1610261565b6040516100de9190610b9c565b60405180910390f35b61010160048036038101906100fc9190610c29565b61026a565b60405161010e9190610b65565b60405180910390f35b610131600480360381019061012c9190610d8b565b6102b2565b60405161013e9190610b65565b60405180910390f35b61014f6102e0565b60405161015c9190610b2a565b60405180910390f35b61017f600480360381019061017a9190610e00565b610372565b60405161018c9190610e5b565b60405180910390f35b6101af60048036038101906101aa9190610e76565b610395565b6040516101bc9190610b65565b60405180910390f35b6060600380546101d490610ee5565b80601f016020809104026020016040519081016040528092919081815260200182805461020090610ee5565b801561024d5780601f106102225761010080835404028352916020019161024d565b820191906000526020600020905b81548152906001019060200180831161023057829003601f168201915b5050505050905090565b6000600254905090565b60006001905090565b60008060008373ffffffffffffffffffffffffffffffffffffffff1673ffffffffffffffffffffffffffffffffffffffff168152602001908152602001600020549050919050565b6001818051602081018201805184825260208301602085012081835280955050505050506000915090505481565b6060600480546102ef90610ee5565b80601f016020809104026020016040519081016040528092919081815260200182805461031b90610ee5565b80156103685780601f1061033d57610100808354040283529160200191610368565b820191906000526020600020905b81548152906001019060200180831161034b57829003601f168201915b5050505050905090565b60008061037d6104ff565b905061038a818585610507565b600191505092915050565b60008073ffffffffffffffffffffffffffffffffffffffff168373ffffffffffffffffffffffffffffffffffffffff1603610405576040517f08c379a00000000000000000000000000000000000000000000000000000000081526004016103fc90610f62565b60405180910390fd5b600073ffffffffffffffffffffffffffffffffffffffff168273ffffffffffffffffffffffffffffffffffffffff1603610474576040517f08c379a000000000000000000000000000000000000000000000000000000000815260040161046b90610fce565b60405180910390fd5b606080606061048286610831565b925061048d85610831565b9150826040516020016104a09190611076565b604051602081830303815290604052905080826040516020016104c4929190611098565b60405160208183030381529060405290506001816040516104e591906110bc565b908152602001604051809103902054935050505092915050565b600033905090565b600073ffffffffffffffffffffffffffffffffffffffff168373ffffffffffffffffffffffffffffffffffffffff1603610576576040517f08c379a000000000000000000000000000000000000000000000000000000000815260040161056d90611145565b60405180910390fd5b600073ffffffffffffffffffffffffffffffffffffffff168273ffffffffffffffffffffffffffffffffffffffff16036105e5576040517f08c379a00000000000000000000000000000000000000000000000000000000081526004016105dc906111d7565b60405180910390fd5b3373ffffffffffffffffffffffffffffffffffffffff168273ffffffffffffffffffffffffffffffffffffffff1603610653576040517f08c379a000000000000000000000000000000000000000000000000000000000815260040161064a90611269565b60405180910390fd5b6001811015610697576040517f08c379a000000000000000000000000000000000000000000000000000000000815260040161068e906112fb565b60405180910390fd5b60038111156106db576040517f08c379a00000000000000000000000000000000000000000000000000000000081526004016106d2906112fb565b60405180910390fd5b60608060606106e933610831565b92506106f485610831565b9150826040516020016107079190611076565b6040516020818303038152906040529050808260405160200161072b929190611098565b604051602081830303815290604052905083600260008282540192505081905550836000808773ffffffffffffffffffffffffffffffffffffffff1673ffffffffffffffffffffffffffffffffffffffff16815260200190815260200160002060008282540192505081905550836001826040516107a991906110bc565b9081526020016040518091039020600082825401925050819055508473ffffffffffffffffffffffffffffffffffffffff168673ffffffffffffffffffffffffffffffffffffffff167fddf252ad1be2c89b69c2b068fc378daa952ba7f163c4a11628f55a4df523b3ef866040516108219190610b65565b60405180910390a3505050505050565b60606108578273ffffffffffffffffffffffffffffffffffffffff16601460ff1661085e565b9050919050565b606060006002836002610871919061134a565b61087b919061138c565b67ffffffffffffffff81111561089457610893610c60565b5b6040519080825280601f01601f1916602001820160405280156108c65781602001600182028036833780820191505090505b5090507f3000000000000000000000000000000000000000000000000000000000000000816000815181106108fe576108fd6113c0565b5b60200101907effffffffffffffffffffffffffffffffffffffffffffffffffffffffffffff1916908160001a9053507f780000000000000000000000000000000000000000000000000000000000000081600181518110610962576109616113c0565b5b60200101907effffffffffffffffffffffffffffffffffffffffffffffffffffffffffffff1916908160001a905350600060018460026109a2919061134a565b6109ac919061138c565b90505b6001811115610a4c577f3031323334353637383961626364656600000000000000000000000000000000600f8616601081106109ee576109ed6113c0565b5b1a60f81b828281518110610a0557610a046113c0565b5b60200101907effffffffffffffffffffffffffffffffffffffffffffffffffffffffffffff1916908160001a905350600485901c945080610a45906113ef565b90506109af565b5060008414610a90576040517f08c379a0000000000000000000000000000000000000000000000000000000008152600401610a8790611464565b60405180910390fd5b8091505092915050565b600081519050919050565b600082825260208201905092915050565b60005b83811015610ad4578082015181840152602081019050610ab9565b60008484015250505050565b6000601f19601f8301169050919050565b6000610afc82610a9a565b610b068185610aa5565b9350610b16818560208601610ab6565b610b1f81610ae0565b840191505092915050565b60006020820190508181036000830152610b448184610af1565b905092915050565b6000819050919050565b610b5f81610b4c565b82525050565b6000602082019050610b7a6000830184610b56565b92915050565b600060ff82169050919050565b610b9681610b80565b82525050565b6000602082019050610bb16000830184610b8d565b92915050565b6000604051905090565b600080fd5b600080fd5b600073ffffffffffffffffffffffffffffffffffffffff82169050919050565b6000610bf682610bcb565b9050919050565b610c0681610beb565b8114610c1157600080fd5b50565b600081359050610c2381610bfd565b92915050565b600060208284031215610c3f57610c3e610bc1565b5b6000610c4d84828501610c14565b91505092915050565b600080fd5b600080fd5b7f4e487b7100000000000000000000000000000000000000000000000000000000600052604160045260246000fd5b610c9882610ae0565b810181811067ffffffffffffffff82111715610cb757610cb6610c60565b5b80604052505050565b6000610cca610bb7565b9050610cd68282610c8f565b919050565b600067ffffffffffffffff821115610cf657610cf5610c60565b5b610cff82610ae0565b9050602081019050919050565b82818337600083830152505050565b6000610d2e610d2984610cdb565b610cc0565b905082815260208101848484011115610d4a57610d49610c5b565b5b610d55848285610d0c565b509392505050565b600082601f830112610d7257610d71610c56565b5b8135610d82848260208601610d1b565b91505092915050565b600060208284031215610da157610da0610bc1565b5b600082013567ffffffffffffffff811115610dbf57610dbe610bc6565b5b610dcb84828501610d5d565b91505092915050565b610ddd81610b4c565b8114610de857600080fd5b50565b600081359050610dfa81610dd4565b92915050565b60008060408385031215610e1757610e16610bc1565b5b6000610e2585828601610c14565b9250506020610e3685828601610deb565b9150509250929050565b60008115159050919050565b610e5581610e40565b82525050565b6000602082019050610e706000830184610e4c565b92915050565b60008060408385031215610e8d57610e8c610bc1565b5b6000610e9b85828601610c14565b9250506020610eac85828601610c14565b9150509250929050565b7f4e487b7100000000000000000000000000000000000000000000000000000000600052602260045260246000fd5b60006002820490506001821680610efd57607f821691505b602082108103610f1057610f0f610eb6565b5b50919050565b7f426f6f702053656e646572206164647265737320696e76616c69640000000000600082015250565b6000610f4c601b83610aa5565b9150610f5782610f16565b602082019050919050565b60006020820190508181036000830152610f7b81610f3f565b9050919050565b7f426f6f70205265636569766572206164647265737320696e76616c6964000000600082015250565b6000610fb8601d83610aa5565b9150610fc382610f82565b602082019050919050565b60006020820190508181036000830152610fe781610fab565b9050919050565b600081905092915050565b600061100482610a9a565b61100e8185610fee565b935061101e818560208601610ab6565b80840191505092915050565b7f5f5f000000000000000000000000000000000000000000000000000000000000600082015250565b6000611060600283610fee565b915061106b8261102a565b600282019050919050565b60006110828284610ff9565b915061108d82611053565b915081905092915050565b60006110a48285610ff9565b91506110b08284610ff9565b91508190509392505050565b60006110c88284610ff9565b915081905092915050565b7f45524332303a207472616e736665722066726f6d20746865207a65726f20616460008201527f6472657373000000000000000000000000000000000000000000000000000000602082015250565b600061112f602583610aa5565b915061113a826110d3565b604082019050919050565b6000602082019050818103600083015261115e81611122565b9050919050565b7f45524332303a207472616e7366657220746f20746865207a65726f206164647260008201527f6573730000000000000000000000000000000000000000000000000000000000602082015250565b60006111c1602383610aa5565b91506111cc82611165565b604082019050919050565b600060208201905081810360008301526111f0816111b4565b9050919050565b7f4865792120596f752063616e27742074727920746f20626f6f7020796f75727360008201527f656c6621203e3a63000000000000000000000000000000000000000000000000602082015250565b6000611253602883610aa5565b915061125e826111f7565b604082019050919050565b6000602082019050818103600083015261128281611246565b9050919050565b7f43616c6d20796f7572206372617a79207061772120426f6f702056616c75652060008201527f6d757374206265206265747765656e203120746f203300000000000000000000602082015250565b60006112e5603683610aa5565b91506112f082611289565b604082019050919050565b60006020820190508181036000830152611314816112d8565b9050919050565b7f4e487b7100000000000000000000000000000000000000000000000000000000600052601160045260246000fd5b600061135582610b4c565b915061136083610b4c565b925082820261136e81610b4c565b915082820484148315176113855761138461131b565b5b5092915050565b600061139782610b4c565b91506113a283610b4c565b92508282019050808211156113ba576113b961131b565b5b92915050565b7f4e487b7100000000000000000000000000000000000000000000000000000000600052603260045260246000fd5b60006113fa82610b4c565b91506000820361140d5761140c61131b565b5b600182039050919050565b7f537472696e67733a20686578206c656e67746820696e73756666696369656e74600082015250565b600061144e602083610aa5565b915061145982611418565b602082019050919050565b6000602082019050818103600083015261147d81611441565b905091905056fea2646970667358221220e574f3b747ca233c4d159f4a8f446b4d552f839ecd9e7f3dd54cfefe3fd1455f64736f6c63430008120033",
					"opcodes": "PUSH1 0x80 PUSH1 0x40 MSTORE CALLVALUE DUP1 ISZERO PUSH3 0x11 JUMPI PUSH1 0x0 DUP1 REVERT JUMPDEST POP PUSH1 0x40 MLOAD DUP1 PUSH1 0x40 ADD PUSH1 0x40 MSTORE DUP1 PUSH1 0x9 DUP2 MSTORE PUSH1 0x20 ADD PUSH32 0x54696E7920426F6F700000000000000000000000000000000000000000000000 DUP2 MSTORE POP PUSH1 0x3 SWAP1 DUP2 PUSH3 0x58 SWAP2 SWAP1 PUSH3 0x320 JUMP JUMPDEST POP PUSH1 0x40 MLOAD DUP1 PUSH1 0x40 ADD PUSH1 0x40 MSTORE DUP1 PUSH1 0x4 DUP2 MSTORE PUSH1 0x20 ADD PUSH32 0x426F6F7000000000000000000000000000000000000000000000000000000000 DUP2 MSTORE POP PUSH1 0x4 SWAP1 DUP2 PUSH3 0x9F SWAP2 SWAP1 PUSH3 0x320 JUMP JUMPDEST POP PUSH3 0x407 JUMP JUMPDEST PUSH1 0x0 DUP2 MLOAD SWAP1 POP SWAP2 SWAP1 POP JUMP JUMPDEST PUSH32 0x4E487B7100000000000000000000000000000000000000000000000000000000 PUSH1 0x0 MSTORE PUSH1 0x41 PUSH1 0x4 MSTORE PUSH1 0x24 PUSH1 0x0 REVERT JUMPDEST PUSH32 0x4E487B7100000000000000000000000000000000000000000000000000000000 PUSH1 0x0 MSTORE PUSH1 0x22 PUSH1 0x4 MSTORE PUSH1 0x24 PUSH1 0x0 REVERT JUMPDEST PUSH1 0x0 PUSH1 0x2 DUP3 DIV SWAP1 POP PUSH1 0x1 DUP3 AND DUP1 PUSH3 0x128 JUMPI PUSH1 0x7F DUP3 AND SWAP2 POP JUMPDEST PUSH1 0x20 DUP3 LT DUP2 SUB PUSH3 0x13E JUMPI PUSH3 0x13D PUSH3 0xE0 JUMP JUMPDEST JUMPDEST POP SWAP2 SWAP1 POP JUMP JUMPDEST PUSH1 0x0 DUP2 SWAP1 POP DUP2 PUSH1 0x0 MSTORE PUSH1 0x20 PUSH1 0x0 KECCAK256 SWAP1 POP SWAP2 SWAP1 POP JUMP JUMPDEST PUSH1 0x0 PUSH1 0x20 PUSH1 0x1F DUP4 ADD DIV SWAP1 POP SWAP2 SWAP1 POP JUMP JUMPDEST PUSH1 0x0 DUP3 DUP3 SHL SWAP1 POP SWAP3 SWAP2 POP POP JUMP JUMPDEST PUSH1 0x0 PUSH1 0x8 DUP4 MUL PUSH3 0x1A8 PUSH32 0xFFFFFFFFFFFFFFFFFFFFFFFFFFFFFFFFFFFFFFFFFFFFFFFFFFFFFFFFFFFFFFFF DUP3 PUSH3 0x169 JUMP JUMPDEST PUSH3 0x1B4 DUP7 DUP4 PUSH3 0x169 JUMP JUMPDEST SWAP6 POP DUP1 NOT DUP5 AND SWAP4 POP DUP1 DUP7 AND DUP5 OR SWAP3 POP POP POP SWAP4 SWAP3 POP POP POP JUMP JUMPDEST PUSH1 0x0 DUP2 SWAP1 POP SWAP2 SWAP1 POP JUMP JUMPDEST PUSH1 0x0 DUP2 SWAP1 POP SWAP2 SWAP1 POP JUMP JUMPDEST PUSH1 0x0 PUSH3 0x201 PUSH3 0x1FB PUSH3 0x1F5 DUP5 PUSH3 0x1CC JUMP JUMPDEST PUSH3 0x1D6 JUMP JUMPDEST PUSH3 0x1CC JUMP JUMPDEST SWAP1 POP SWAP2 SWAP1 POP JUMP JUMPDEST PUSH1 0x0 DUP2 SWAP1 POP SWAP2 SWAP1 POP JUMP JUMPDEST PUSH3 0x21D DUP4 PUSH3 0x1E0 JUMP JUMPDEST PUSH3 0x235 PUSH3 0x22C DUP3 PUSH3 0x208 JUMP JUMPDEST DUP5 DUP5 SLOAD PUSH3 0x176 JUMP JUMPDEST DUP3 SSTORE POP POP POP POP JUMP JUMPDEST PUSH1 0x0 SWAP1 JUMP JUMPDEST PUSH3 0x24C PUSH3 0x23D JUMP JUMPDEST PUSH3 0x259 DUP2 DUP5 DUP5 PUSH3 0x212 JUMP JUMPDEST POP POP POP JUMP JUMPDEST JUMPDEST DUP2 DUP2 LT ISZERO PUSH3 0x281 JUMPI PUSH3 0x275 PUSH1 0x0 DUP3 PUSH3 0x242 JUMP JUMPDEST PUSH1 0x1 DUP2 ADD SWAP1 POP PUSH3 0x25F JUMP JUMPDEST POP POP JUMP JUMPDEST PUSH1 0x1F DUP3 GT ISZERO PUSH3 0x2D0 JUMPI PUSH3 0x29A DUP2 PUSH3 0x144 JUMP JUMPDEST PUSH3 0x2A5 DUP5 PUSH3 0x159 JUMP JUMPDEST DUP2 ADD PUSH1 0x20 DUP6 LT ISZERO PUSH3 0x2B5 JUMPI DUP2 SWAP1 POP JUMPDEST PUSH3 0x2CD PUSH3 0x2C4 DUP6 PUSH3 0x159 JUMP JUMPDEST DUP4 ADD DUP3 PUSH3 0x25E JUMP JUMPDEST POP POP JUMPDEST POP POP POP JUMP JUMPDEST PUSH1 0x0 DUP3 DUP3 SHR SWAP1 POP SWAP3 SWAP2 POP POP JUMP JUMPDEST PUSH1 0x0 PUSH3 0x2F5 PUSH1 0x0 NOT DUP5 PUSH1 0x8 MUL PUSH3 0x2D5 JUMP JUMPDEST NOT DUP1 DUP4 AND SWAP2 POP POP SWAP3 SWAP2 POP POP JUMP JUMPDEST PUSH1 0x0 PUSH3 0x310 DUP4 DUP4 PUSH3 0x2E2 JUMP JUMPDEST SWAP2 POP DUP3 PUSH1 0x2 MUL DUP3 OR SWAP1 POP SWAP3 SWAP2 POP POP JUMP JUMPDEST PUSH3 0x32B DUP3 PUSH3 0xA6 JUMP JUMPDEST PUSH8 0xFFFFFFFFFFFFFFFF DUP2 GT ISZERO PUSH3 0x347 JUMPI PUSH3 0x346 PUSH3 0xB1 JUMP JUMPDEST JUMPDEST PUSH3 0x353 DUP3 SLOAD PUSH3 0x10F JUMP JUMPDEST PUSH3 0x360 DUP3 DUP3 DUP6 PUSH3 0x285 JUMP JUMPDEST PUSH1 0x0 PUSH1 0x20 SWAP1 POP PUSH1 0x1F DUP4 GT PUSH1 0x1 DUP2 EQ PUSH3 0x398 JUMPI PUSH1 0x0 DUP5 ISZERO PUSH3 0x383 JUMPI DUP3 DUP8 ADD MLOAD SWAP1 POP JUMPDEST PUSH3 0x38F DUP6 DUP3 PUSH3 0x302 JUMP JUMPDEST DUP7 SSTORE POP PUSH3 0x3FF JUMP JUMPDEST PUSH1 0x1F NOT DUP5 AND PUSH3 0x3A8 DUP7 PUSH3 0x144 JUMP JUMPDEST PUSH1 0x0 JUMPDEST DUP3 DUP2 LT ISZERO PUSH3 0x3D2 JUMPI DUP5 DUP10 ADD MLOAD DUP3 SSTORE PUSH1 0x1 DUP3 ADD SWAP2 POP PUSH1 0x20 DUP6 ADD SWAP5 POP PUSH1 0x20 DUP2 ADD SWAP1 POP PUSH3 0x3AB JUMP JUMPDEST DUP7 DUP4 LT ISZERO PUSH3 0x3F2 JUMPI DUP5 DUP10 ADD MLOAD PUSH3 0x3EE PUSH1 0x1F DUP10 AND DUP3 PUSH3 0x2E2 JUMP JUMPDEST DUP4 SSTORE POP JUMPDEST PUSH1 0x1 PUSH1 0x2 DUP9 MUL ADD DUP9 SSTORE POP POP POP JUMPDEST POP POP POP POP POP POP JUMP JUMPDEST PUSH2 0x14BA DUP1 PUSH3 0x417 PUSH1 0x0 CODECOPY PUSH1 0x0 RETURN INVALID PUSH1 0x80 PUSH1 0x40 MSTORE CALLVALUE DUP1 ISZERO PUSH2 0x10 JUMPI PUSH1 0x0 DUP1 REVERT JUMPDEST POP PUSH1 0x4 CALLDATASIZE LT PUSH2 0x88 JUMPI PUSH1 0x0 CALLDATALOAD PUSH1 0xE0 SHR DUP1 PUSH4 0x89DE1F5F GT PUSH2 0x5B JUMPI DUP1 PUSH4 0x89DE1F5F EQ PUSH2 0x117 JUMPI DUP1 PUSH4 0x95D89B41 EQ PUSH2 0x147 JUMPI DUP1 PUSH4 0xA9059CBB EQ PUSH2 0x165 JUMPI DUP1 PUSH4 0xEB55BC6B EQ PUSH2 0x195 JUMPI PUSH2 0x88 JUMP JUMPDEST DUP1 PUSH4 0x6FDDE03 EQ PUSH2 0x8D JUMPI DUP1 PUSH4 0x18160DDD EQ PUSH2 0xAB JUMPI DUP1 PUSH4 0x313CE567 EQ PUSH2 0xC9 JUMPI DUP1 PUSH4 0x70A08231 EQ PUSH2 0xE7 JUMPI JUMPDEST PUSH1 0x0 DUP1 REVERT JUMPDEST PUSH2 0x95 PUSH2 0x1C5 JUMP JUMPDEST PUSH1 0x40 MLOAD PUSH2 0xA2 SWAP2 SWAP1 PUSH2 0xB2A JUMP JUMPDEST PUSH1 0x40 MLOAD DUP1 SWAP2 SUB SWAP1 RETURN JUMPDEST PUSH2 0xB3 PUSH2 0x257 JUMP JUMPDEST PUSH1 0x40 MLOAD PUSH2 0xC0 SWAP2 SWAP1 PUSH2 0xB65 JUMP JUMPDEST PUSH1 0x40 MLOAD DUP1 SWAP2 SUB SWAP1 RETURN JUMPDEST PUSH2 0xD1 PUSH2 0x261 JUMP JUMPDEST PUSH1 0x40 MLOAD PUSH2 0xDE SWAP2 SWAP1 PUSH2 0xB9C JUMP JUMPDEST PUSH1 0x40 MLOAD DUP1 SWAP2 SUB SWAP1 RETURN JUMPDEST PUSH2 0x101 PUSH1 0x4 DUP1 CALLDATASIZE SUB DUP2 ADD SWAP1 PUSH2 0xFC SWAP2 SWAP1 PUSH2 0xC29 JUMP JUMPDEST PUSH2 0x26A JUMP JUMPDEST PUSH1 0x40 MLOAD PUSH2 0x10E SWAP2 SWAP1 PUSH2 0xB65 JUMP JUMPDEST PUSH1 0x40 MLOAD DUP1 SWAP2 SUB SWAP1 RETURN JUMPDEST PUSH2 0x131 PUSH1 0x4 DUP1 CALLDATASIZE SUB DUP2 ADD SWAP1 PUSH2 0x12C SWAP2 SWAP1 PUSH2 0xD8B JUMP JUMPDEST PUSH2 0x2B2 JUMP JUMPDEST PUSH1 0x40 MLOAD PUSH2 0x13E SWAP2 SWAP1 PUSH2 0xB65 JUMP JUMPDEST PUSH1 0x40 MLOAD DUP1 SWAP2 SUB SWAP1 RETURN JUMPDEST PUSH2 0x14F PUSH2 0x2E0 JUMP JUMPDEST PUSH1 0x40 MLOAD PUSH2 0x15C SWAP2 SWAP1 PUSH2 0xB2A JUMP JUMPDEST PUSH1 0x40 MLOAD DUP1 SWAP2 SUB SWAP1 RETURN JUMPDEST PUSH2 0x17F PUSH1 0x4 DUP1 CALLDATASIZE SUB DUP2 ADD SWAP1 PUSH2 0x17A SWAP2 SWAP1 PUSH2 0xE00 JUMP JUMPDEST PUSH2 0x372 JUMP JUMPDEST PUSH1 0x40 MLOAD PUSH2 0x18C SWAP2 SWAP1 PUSH2 0xE5B JUMP JUMPDEST PUSH1 0x40 MLOAD DUP1 SWAP2 SUB SWAP1 RETURN JUMPDEST PUSH2 0x1AF PUSH1 0x4 DUP1 CALLDATASIZE SUB DUP2 ADD SWAP1 PUSH2 0x1AA SWAP2 SWAP1 PUSH2 0xE76 JUMP JUMPDEST PUSH2 0x395 JUMP JUMPDEST PUSH1 0x40 MLOAD PUSH2 0x1BC SWAP2 SWAP1 PUSH2 0xB65 JUMP JUMPDEST PUSH1 0x40 MLOAD DUP1 SWAP2 SUB SWAP1 RETURN JUMPDEST PUSH1 0x60 PUSH1 0x3 DUP1 SLOAD PUSH2 0x1D4 SWAP1 PUSH2 0xEE5 JUMP JUMPDEST DUP1 PUSH1 0x1F ADD PUSH1 0x20 DUP1 SWAP2 DIV MUL PUSH1 0x20 ADD PUSH1 0x40 MLOAD SWAP1 DUP2 ADD PUSH1 0x40 MSTORE DUP1 SWAP3 SWAP2 SWAP1 DUP2 DUP2 MSTORE PUSH1 0x20 ADD DUP3 DUP1 SLOAD PUSH2 0x200 SWAP1 PUSH2 0xEE5 JUMP JUMPDEST DUP1 ISZERO PUSH2 0x24D JUMPI DUP1 PUSH1 0x1F LT PUSH2 0x222 JUMPI PUSH2 0x100 DUP1 DUP4 SLOAD DIV MUL DUP4 MSTORE SWAP2 PUSH1 0x20 ADD SWAP2 PUSH2 0x24D JUMP JUMPDEST DUP3 ADD SWAP2 SWAP1 PUSH1 0x0 MSTORE PUSH1 0x20 PUSH1 0x0 KECCAK256 SWAP1 JUMPDEST DUP2 SLOAD DUP2 MSTORE SWAP1 PUSH1 0x1 ADD SWAP1 PUSH1 0x20 ADD DUP1 DUP4 GT PUSH2 0x230 JUMPI DUP3 SWAP1 SUB PUSH1 0x1F AND DUP3 ADD SWAP2 JUMPDEST POP POP POP POP POP SWAP1 POP SWAP1 JUMP JUMPDEST PUSH1 0x0 PUSH1 0x2 SLOAD SWAP1 POP SWAP1 JUMP JUMPDEST PUSH1 0x0 PUSH1 0x1 SWAP1 POP SWAP1 JUMP JUMPDEST PUSH1 0x0 DUP1 PUSH1 0x0 DUP4 PUSH20 0xFFFFFFFFFFFFFFFFFFFFFFFFFFFFFFFFFFFFFFFF AND PUSH20 0xFFFFFFFFFFFFFFFFFFFFFFFFFFFFFFFFFFFFFFFF AND DUP2 MSTORE PUSH1 0x20 ADD SWAP1 DUP2 MSTORE PUSH1 0x20 ADD PUSH1 0x0 KECCAK256 SLOAD SWAP1 POP SWAP2 SWAP1 POP JUMP JUMPDEST PUSH1 0x1 DUP2 DUP1 MLOAD PUSH1 0x20 DUP2 ADD DUP3 ADD DUP1 MLOAD DUP5 DUP3 MSTORE PUSH1 0x20 DUP4 ADD PUSH1 0x20 DUP6 ADD KECCAK256 DUP2 DUP4 MSTORE DUP1 SWAP6 POP POP POP POP POP POP PUSH1 0x0 SWAP2 POP SWAP1 POP SLOAD DUP2 JUMP JUMPDEST PUSH1 0x60 PUSH1 0x4 DUP1 SLOAD PUSH2 0x2EF SWAP1 PUSH2 0xEE5 JUMP JUMPDEST DUP1 PUSH1 0x1F ADD PUSH1 0x20 DUP1 SWAP2 DIV MUL PUSH1 0x20 ADD PUSH1 0x40 MLOAD SWAP1 DUP2 ADD PUSH1 0x40 MSTORE DUP1 SWAP3 SWAP2 SWAP1 DUP2 DUP2 MSTORE PUSH1 0x20 ADD DUP3 DUP1 SLOAD PUSH2 0x31B SWAP1 PUSH2 0xEE5 JUMP JUMPDEST DUP1 ISZERO PUSH2 0x368 JUMPI DUP1 PUSH1 0x1F LT PUSH2 0x33D JUMPI PUSH2 0x100 DUP1 DUP4 SLOAD DIV MUL DUP4 MSTORE SWAP2 PUSH1 0x20 ADD SWAP2 PUSH2 0x368 JUMP JUMPDEST DUP3 ADD SWAP2 SWAP1 PUSH1 0x0 MSTORE PUSH1 0x20 PUSH1 0x0 KECCAK256 SWAP1 JUMPDEST DUP2 SLOAD DUP2 MSTORE SWAP1 PUSH1 0x1 ADD SWAP1 PUSH1 0x20 ADD DUP1 DUP4 GT PUSH2 0x34B JUMPI DUP3 SWAP1 SUB PUSH1 0x1F AND DUP3 ADD SWAP2 JUMPDEST POP POP POP POP POP SWAP1 POP SWAP1 JUMP JUMPDEST PUSH1 0x0 DUP1 PUSH2 0x37D PUSH2 0x4FF JUMP JUMPDEST SWAP1 POP PUSH2 0x38A DUP2 DUP6 DUP6 PUSH2 0x507 JUMP JUMPDEST PUSH1 0x1 SWAP2 POP POP SWAP3 SWAP2 POP POP JUMP JUMPDEST PUSH1 0x0 DUP1 PUSH20 0xFFFFFFFFFFFFFFFFFFFFFFFFFFFFFFFFFFFFFFFF AND DUP4 PUSH20 0xFFFFFFFFFFFFFFFFFFFFFFFFFFFFFFFFFFFFFFFF AND SUB PUSH2 0x405 JUMPI PUSH1 0x40 MLOAD PUSH32 0x8C379A000000000000000000000000000000000000000000000000000000000 DUP2 MSTORE PUSH1 0x4 ADD PUSH2 0x3FC SWAP1 PUSH2 0xF62 JUMP JUMPDEST PUSH1 0x40 MLOAD DUP1 SWAP2 SUB SWAP1 REVERT JUMPDEST PUSH1 0x0 PUSH20 0xFFFFFFFFFFFFFFFFFFFFFFFFFFFFFFFFFFFFFFFF AND DUP3 PUSH20 0xFFFFFFFFFFFFFFFFFFFFFFFFFFFFFFFFFFFFFFFF AND SUB PUSH2 0x474 JUMPI PUSH1 0x40 MLOAD PUSH32 0x8C379A000000000000000000000000000000000000000000000000000000000 DUP2 MSTORE PUSH1 0x4 ADD PUSH2 0x46B SWAP1 PUSH2 0xFCE JUMP JUMPDEST PUSH1 0x40 MLOAD DUP1 SWAP2 SUB SWAP1 REVERT JUMPDEST PUSH1 0x60 DUP1 PUSH1 0x60 PUSH2 0x482 DUP7 PUSH2 0x831 JUMP JUMPDEST SWAP3 POP PUSH2 0x48D DUP6 PUSH2 0x831 JUMP JUMPDEST SWAP2 POP DUP3 PUSH1 0x40 MLOAD PUSH1 0x20 ADD PUSH2 0x4A0 SWAP2 SWAP1 PUSH2 0x1076 JUMP JUMPDEST PUSH1 0x40 MLOAD PUSH1 0x20 DUP2 DUP4 SUB SUB DUP2 MSTORE SWAP1 PUSH1 0x40 MSTORE SWAP1 POP DUP1 DUP3 PUSH1 0x40 MLOAD PUSH1 0x20 ADD PUSH2 0x4C4 SWAP3 SWAP2 SWAP1 PUSH2 0x1098 JUMP JUMPDEST PUSH1 0x40 MLOAD PUSH1 0x20 DUP2 DUP4 SUB SUB DUP2 MSTORE SWAP1 PUSH1 0x40 MSTORE SWAP1 POP PUSH1 0x1 DUP2 PUSH1 0x40 MLOAD PUSH2 0x4E5 SWAP2 SWAP1 PUSH2 0x10BC JUMP JUMPDEST SWAP1 DUP2 MSTORE PUSH1 0x20 ADD PUSH1 0x40 MLOAD DUP1 SWAP2 SUB SWAP1 KECCAK256 SLOAD SWAP4 POP POP POP POP SWAP3 SWAP2 POP POP JUMP JUMPDEST PUSH1 0x0 CALLER SWAP1 POP SWAP1 JUMP JUMPDEST PUSH1 0x0 PUSH20 0xFFFFFFFFFFFFFFFFFFFFFFFFFFFFFFFFFFFFFFFF AND DUP4 PUSH20 0xFFFFFFFFFFFFFFFFFFFFFFFFFFFFFFFFFFFFFFFF AND SUB PUSH2 0x576 JUMPI PUSH1 0x40 MLOAD PUSH32 0x8C379A000000000000000000000000000000000000000000000000000000000 DUP2 MSTORE PUSH1 0x4 ADD PUSH2 0x56D SWAP1 PUSH2 0x1145 JUMP JUMPDEST PUSH1 0x40 MLOAD DUP1 SWAP2 SUB SWAP1 REVERT JUMPDEST PUSH1 0x0 PUSH20 0xFFFFFFFFFFFFFFFFFFFFFFFFFFFFFFFFFFFFFFFF AND DUP3 PUSH20 0xFFFFFFFFFFFFFFFFFFFFFFFFFFFFFFFFFFFFFFFF AND SUB PUSH2 0x5E5 JUMPI PUSH1 0x40 MLOAD PUSH32 0x8C379A000000000000000000000000000000000000000000000000000000000 DUP2 MSTORE PUSH1 0x4 ADD PUSH2 0x5DC SWAP1 PUSH2 0x11D7 JUMP JUMPDEST PUSH1 0x40 MLOAD DUP1 SWAP2 SUB SWAP1 REVERT JUMPDEST CALLER PUSH20 0xFFFFFFFFFFFFFFFFFFFFFFFFFFFFFFFFFFFFFFFF AND DUP3 PUSH20 0xFFFFFFFFFFFFFFFFFFFFFFFFFFFFFFFFFFFFFFFF AND SUB PUSH2 0x653 JUMPI PUSH1 0x40 MLOAD PUSH32 0x8C379A000000000000000000000000000000000000000000000000000000000 DUP2 MSTORE PUSH1 0x4 ADD PUSH2 0x64A SWAP1 PUSH2 0x1269 JUMP JUMPDEST PUSH1 0x40 MLOAD DUP1 SWAP2 SUB SWAP1 REVERT JUMPDEST PUSH1 0x1 DUP2 LT ISZERO PUSH2 0x697 JUMPI PUSH1 0x40 MLOAD PUSH32 0x8C379A000000000000000000000000000000000000000000000000000000000 DUP2 MSTORE PUSH1 0x4 ADD PUSH2 0x68E SWAP1 PUSH2 0x12FB JUMP JUMPDEST PUSH1 0x40 MLOAD DUP1 SWAP2 SUB SWAP1 REVERT JUMPDEST PUSH1 0x3 DUP2 GT ISZERO PUSH2 0x6DB JUMPI PUSH1 0x40 MLOAD PUSH32 0x8C379A000000000000000000000000000000000000000000000000000000000 DUP2 MSTORE PUSH1 0x4 ADD PUSH2 0x6D2 SWAP1 PUSH2 0x12FB JUMP JUMPDEST PUSH1 0x40 MLOAD DUP1 SWAP2 SUB SWAP1 REVERT JUMPDEST PUSH1 0x60 DUP1 PUSH1 0x60 PUSH2 0x6E9 CALLER PUSH2 0x831 JUMP JUMPDEST SWAP3 POP PUSH2 0x6F4 DUP6 PUSH2 0x831 JUMP JUMPDEST SWAP2 POP DUP3 PUSH1 0x40 MLOAD PUSH1 0x20 ADD PUSH2 0x707 SWAP2 SWAP1 PUSH2 0x1076 JUMP JUMPDEST PUSH1 0x40 MLOAD PUSH1 0x20 DUP2 DUP4 SUB SUB DUP2 MSTORE SWAP1 PUSH1 0x40 MSTORE SWAP1 POP DUP1 DUP3 PUSH1 0x40 MLOAD PUSH1 0x20 ADD PUSH2 0x72B SWAP3 SWAP2 SWAP1 PUSH2 0x1098 JUMP JUMPDEST PUSH1 0x40 MLOAD PUSH1 0x20 DUP2 DUP4 SUB SUB DUP2 MSTORE SWAP1 PUSH1 0x40 MSTORE SWAP1 POP DUP4 PUSH1 0x2 PUSH1 0x0 DUP3 DUP3 SLOAD ADD SWAP3 POP POP DUP2 SWAP1 SSTORE POP DUP4 PUSH1 0x0 DUP1 DUP8 PUSH20 0xFFFFFFFFFFFFFFFFFFFFFFFFFFFFFFFFFFFFFFFF AND PUSH20 0xFFFFFFFFFFFFFFFFFFFFFFFFFFFFFFFFFFFFFFFF AND DUP2 MSTORE PUSH1 0x20 ADD SWAP1 DUP2 MSTORE PUSH1 0x20 ADD PUSH1 0x0 KECCAK256 PUSH1 0x0 DUP3 DUP3 SLOAD ADD SWAP3 POP POP DUP2 SWAP1 SSTORE POP DUP4 PUSH1 0x1 DUP3 PUSH1 0x40 MLOAD PUSH2 0x7A9 SWAP2 SWAP1 PUSH2 0x10BC JUMP JUMPDEST SWAP1 DUP2 MSTORE PUSH1 0x20 ADD PUSH1 0x40 MLOAD DUP1 SWAP2 SUB SWAP1 KECCAK256 PUSH1 0x0 DUP3 DUP3 SLOAD ADD SWAP3 POP POP DUP2 SWAP1 SSTORE POP DUP5 PUSH20 0xFFFFFFFFFFFFFFFFFFFFFFFFFFFFFFFFFFFFFFFF AND DUP7 PUSH20 0xFFFFFFFFFFFFFFFFFFFFFFFFFFFFFFFFFFFFFFFF AND PUSH32 0xDDF252AD1BE2C89B69C2B068FC378DAA952BA7F163C4A11628F55A4DF523B3EF DUP7 PUSH1 0x40 MLOAD PUSH2 0x821 SWAP2 SWAP1 PUSH2 0xB65 JUMP JUMPDEST PUSH1 0x40 MLOAD DUP1 SWAP2 SUB SWAP1 LOG3 POP POP POP POP POP POP JUMP JUMPDEST PUSH1 0x60 PUSH2 0x857 DUP3 PUSH20 0xFFFFFFFFFFFFFFFFFFFFFFFFFFFFFFFFFFFFFFFF AND PUSH1 0x14 PUSH1 0xFF AND PUSH2 0x85E JUMP JUMPDEST SWAP1 POP SWAP2 SWAP1 POP JUMP JUMPDEST PUSH1 0x60 PUSH1 0x0 PUSH1 0x2 DUP4 PUSH1 0x2 PUSH2 0x871 SWAP2 SWAP1 PUSH2 0x134A JUMP JUMPDEST PUSH2 0x87B SWAP2 SWAP1 PUSH2 0x138C JUMP JUMPDEST PUSH8 0xFFFFFFFFFFFFFFFF DUP2 GT ISZERO PUSH2 0x894 JUMPI PUSH2 0x893 PUSH2 0xC60 JUMP JUMPDEST JUMPDEST PUSH1 0x40 MLOAD SWAP1 DUP1 DUP3 MSTORE DUP1 PUSH1 0x1F ADD PUSH1 0x1F NOT AND PUSH1 0x20 ADD DUP3 ADD PUSH1 0x40 MSTORE DUP1 ISZERO PUSH2 0x8C6 JUMPI DUP2 PUSH1 0x20 ADD PUSH1 0x1 DUP3 MUL DUP1 CALLDATASIZE DUP4 CALLDATACOPY DUP1 DUP3 ADD SWAP2 POP POP SWAP1 POP JUMPDEST POP SWAP1 POP PUSH32 0x3000000000000000000000000000000000000000000000000000000000000000 DUP2 PUSH1 0x0 DUP2 MLOAD DUP2 LT PUSH2 0x8FE JUMPI PUSH2 0x8FD PUSH2 0x13C0 JUMP JUMPDEST JUMPDEST PUSH1 0x20 ADD ADD SWAP1 PUSH31 0xFFFFFFFFFFFFFFFFFFFFFFFFFFFFFFFFFFFFFFFFFFFFFFFFFFFFFFFFFFFFFF NOT AND SWAP1 DUP2 PUSH1 0x0 BYTE SWAP1 MSTORE8 POP PUSH32 0x7800000000000000000000000000000000000000000000000000000000000000 DUP2 PUSH1 0x1 DUP2 MLOAD DUP2 LT PUSH2 0x962 JUMPI PUSH2 0x961 PUSH2 0x13C0 JUMP JUMPDEST JUMPDEST PUSH1 0x20 ADD ADD SWAP1 PUSH31 0xFFFFFFFFFFFFFFFFFFFFFFFFFFFFFFFFFFFFFFFFFFFFFFFFFFFFFFFFFFFFFF NOT AND SWAP1 DUP2 PUSH1 0x0 BYTE SWAP1 MSTORE8 POP PUSH1 0x0 PUSH1 0x1 DUP5 PUSH1 0x2 PUSH2 0x9A2 SWAP2 SWAP1 PUSH2 0x134A JUMP JUMPDEST PUSH2 0x9AC SWAP2 SWAP1 PUSH2 0x138C JUMP JUMPDEST SWAP1 POP JUMPDEST PUSH1 0x1 DUP2 GT ISZERO PUSH2 0xA4C JUMPI PUSH32 0x3031323334353637383961626364656600000000000000000000000000000000 PUSH1 0xF DUP7 AND PUSH1 0x10 DUP2 LT PUSH2 0x9EE JUMPI PUSH2 0x9ED PUSH2 0x13C0 JUMP JUMPDEST JUMPDEST BYTE PUSH1 0xF8 SHL DUP3 DUP3 DUP2 MLOAD DUP2 LT PUSH2 0xA05 JUMPI PUSH2 0xA04 PUSH2 0x13C0 JUMP JUMPDEST JUMPDEST PUSH1 0x20 ADD ADD SWAP1 PUSH31 0xFFFFFFFFFFFFFFFFFFFFFFFFFFFFFFFFFFFFFFFFFFFFFFFFFFFFFFFFFFFFFF NOT AND SWAP1 DUP2 PUSH1 0x0 BYTE SWAP1 MSTORE8 POP PUSH1 0x4 DUP6 SWAP1 SHR SWAP5 POP DUP1 PUSH2 0xA45 SWAP1 PUSH2 0x13EF JUMP JUMPDEST SWAP1 POP PUSH2 0x9AF JUMP JUMPDEST POP PUSH1 0x0 DUP5 EQ PUSH2 0xA90 JUMPI PUSH1 0x40 MLOAD PUSH32 0x8C379A000000000000000000000000000000000000000000000000000000000 DUP2 MSTORE PUSH1 0x4 ADD PUSH2 0xA87 SWAP1 PUSH2 0x1464 JUMP JUMPDEST PUSH1 0x40 MLOAD DUP1 SWAP2 SUB SWAP1 REVERT JUMPDEST DUP1 SWAP2 POP POP SWAP3 SWAP2 POP POP JUMP JUMPDEST PUSH1 0x0 DUP2 MLOAD SWAP1 POP SWAP2 SWAP1 POP JUMP JUMPDEST PUSH1 0x0 DUP3 DUP3 MSTORE PUSH1 0x20 DUP3 ADD SWAP1 POP SWAP3 SWAP2 POP POP JUMP JUMPDEST PUSH1 0x0 JUMPDEST DUP4 DUP2 LT ISZERO PUSH2 0xAD4 JUMPI DUP1 DUP3 ADD MLOAD DUP2 DUP5 ADD MSTORE PUSH1 0x20 DUP2 ADD SWAP1 POP PUSH2 0xAB9 JUMP JUMPDEST PUSH1 0x0 DUP5 DUP5 ADD MSTORE POP POP POP POP JUMP JUMPDEST PUSH1 0x0 PUSH1 0x1F NOT PUSH1 0x1F DUP4 ADD AND SWAP1 POP SWAP2 SWAP1 POP JUMP JUMPDEST PUSH1 0x0 PUSH2 0xAFC DUP3 PUSH2 0xA9A JUMP JUMPDEST PUSH2 0xB06 DUP2 DUP6 PUSH2 0xAA5 JUMP JUMPDEST SWAP4 POP PUSH2 0xB16 DUP2 DUP6 PUSH1 0x20 DUP7 ADD PUSH2 0xAB6 JUMP JUMPDEST PUSH2 0xB1F DUP2 PUSH2 0xAE0 JUMP JUMPDEST DUP5 ADD SWAP2 POP POP SWAP3 SWAP2 POP POP JUMP JUMPDEST PUSH1 0x0 PUSH1 0x20 DUP3 ADD SWAP1 POP DUP2 DUP2 SUB PUSH1 0x0 DUP4 ADD MSTORE PUSH2 0xB44 DUP2 DUP5 PUSH2 0xAF1 JUMP JUMPDEST SWAP1 POP SWAP3 SWAP2 POP POP JUMP JUMPDEST PUSH1 0x0 DUP2 SWAP1 POP SWAP2 SWAP1 POP JUMP JUMPDEST PUSH2 0xB5F DUP2 PUSH2 0xB4C JUMP JUMPDEST DUP3 MSTORE POP POP JUMP JUMPDEST PUSH1 0x0 PUSH1 0x20 DUP3 ADD SWAP1 POP PUSH2 0xB7A PUSH1 0x0 DUP4 ADD DUP5 PUSH2 0xB56 JUMP JUMPDEST SWAP3 SWAP2 POP POP JUMP JUMPDEST PUSH1 0x0 PUSH1 0xFF DUP3 AND SWAP1 POP SWAP2 SWAP1 POP JUMP JUMPDEST PUSH2 0xB96 DUP2 PUSH2 0xB80 JUMP JUMPDEST DUP3 MSTORE POP POP JUMP JUMPDEST PUSH1 0x0 PUSH1 0x20 DUP3 ADD SWAP1 POP PUSH2 0xBB1 PUSH1 0x0 DUP4 ADD DUP5 PUSH2 0xB8D JUMP JUMPDEST SWAP3 SWAP2 POP POP JUMP JUMPDEST PUSH1 0x0 PUSH1 0x40 MLOAD SWAP1 POP SWAP1 JUMP JUMPDEST PUSH1 0x0 DUP1 REVERT JUMPDEST PUSH1 0x0 DUP1 REVERT JUMPDEST PUSH1 0x0 PUSH20 0xFFFFFFFFFFFFFFFFFFFFFFFFFFFFFFFFFFFFFFFF DUP3 AND SWAP1 POP SWAP2 SWAP1 POP JUMP JUMPDEST PUSH1 0x0 PUSH2 0xBF6 DUP3 PUSH2 0xBCB JUMP JUMPDEST SWAP1 POP SWAP2 SWAP1 POP JUMP JUMPDEST PUSH2 0xC06 DUP2 PUSH2 0xBEB JUMP JUMPDEST DUP2 EQ PUSH2 0xC11 JUMPI PUSH1 0x0 DUP1 REVERT JUMPDEST POP JUMP JUMPDEST PUSH1 0x0 DUP2 CALLDATALOAD SWAP1 POP PUSH2 0xC23 DUP2 PUSH2 0xBFD JUMP JUMPDEST SWAP3 SWAP2 POP POP JUMP JUMPDEST PUSH1 0x0 PUSH1 0x20 DUP3 DUP5 SUB SLT ISZERO PUSH2 0xC3F JUMPI PUSH2 0xC3E PUSH2 0xBC1 JUMP JUMPDEST JUMPDEST PUSH1 0x0 PUSH2 0xC4D DUP5 DUP3 DUP6 ADD PUSH2 0xC14 JUMP JUMPDEST SWAP2 POP POP SWAP3 SWAP2 POP POP JUMP JUMPDEST PUSH1 0x0 DUP1 REVERT JUMPDEST PUSH1 0x0 DUP1 REVERT JUMPDEST PUSH32 0x4E487B7100000000000000000000000000000000000000000000000000000000 PUSH1 0x0 MSTORE PUSH1 0x41 PUSH1 0x4 MSTORE PUSH1 0x24 PUSH1 0x0 REVERT JUMPDEST PUSH2 0xC98 DUP3 PUSH2 0xAE0 JUMP JUMPDEST DUP2 ADD DUP2 DUP2 LT PUSH8 0xFFFFFFFFFFFFFFFF DUP3 GT OR ISZERO PUSH2 0xCB7 JUMPI PUSH2 0xCB6 PUSH2 0xC60 JUMP JUMPDEST JUMPDEST DUP1 PUSH1 0x40 MSTORE POP POP POP JUMP JUMPDEST PUSH1 0x0 PUSH2 0xCCA PUSH2 0xBB7 JUMP JUMPDEST SWAP1 POP PUSH2 0xCD6 DUP3 DUP3 PUSH2 0xC8F JUMP JUMPDEST SWAP2 SWAP1 POP JUMP JUMPDEST PUSH1 0x0 PUSH8 0xFFFFFFFFFFFFFFFF DUP3 GT ISZERO PUSH2 0xCF6 JUMPI PUSH2 0xCF5 PUSH2 0xC60 JUMP JUMPDEST JUMPDEST PUSH2 0xCFF DUP3 PUSH2 0xAE0 JUMP JUMPDEST SWAP1 POP PUSH1 0x20 DUP2 ADD SWAP1 POP SWAP2 SWAP1 POP JUMP JUMPDEST DUP3 DUP2 DUP4 CALLDATACOPY PUSH1 0x0 DUP4 DUP4 ADD MSTORE POP POP POP JUMP JUMPDEST PUSH1 0x0 PUSH2 0xD2E PUSH2 0xD29 DUP5 PUSH2 0xCDB JUMP JUMPDEST PUSH2 0xCC0 JUMP JUMPDEST SWAP1 POP DUP3 DUP2 MSTORE PUSH1 0x20 DUP2 ADD DUP5 DUP5 DUP5 ADD GT ISZERO PUSH2 0xD4A JUMPI PUSH2 0xD49 PUSH2 0xC5B JUMP JUMPDEST JUMPDEST PUSH2 0xD55 DUP5 DUP3 DUP6 PUSH2 0xD0C JUMP JUMPDEST POP SWAP4 SWAP3 POP POP POP JUMP JUMPDEST PUSH1 0x0 DUP3 PUSH1 0x1F DUP4 ADD SLT PUSH2 0xD72 JUMPI PUSH2 0xD71 PUSH2 0xC56 JUMP JUMPDEST JUMPDEST DUP2 CALLDATALOAD PUSH2 0xD82 DUP5 DUP3 PUSH1 0x20 DUP7 ADD PUSH2 0xD1B JUMP JUMPDEST SWAP2 POP POP SWAP3 SWAP2 POP POP JUMP JUMPDEST PUSH1 0x0 PUSH1 0x20 DUP3 DUP5 SUB SLT ISZERO PUSH2 0xDA1 JUMPI PUSH2 0xDA0 PUSH2 0xBC1 JUMP JUMPDEST JUMPDEST PUSH1 0x0 DUP3 ADD CALLDATALOAD PUSH8 0xFFFFFFFFFFFFFFFF DUP2 GT ISZERO PUSH2 0xDBF JUMPI PUSH2 0xDBE PUSH2 0xBC6 JUMP JUMPDEST JUMPDEST PUSH2 0xDCB DUP5 DUP3 DUP6 ADD PUSH2 0xD5D JUMP JUMPDEST SWAP2 POP POP SWAP3 SWAP2 POP POP JUMP JUMPDEST PUSH2 0xDDD DUP2 PUSH2 0xB4C JUMP JUMPDEST DUP2 EQ PUSH2 0xDE8 JUMPI PUSH1 0x0 DUP1 REVERT JUMPDEST POP JUMP JUMPDEST PUSH1 0x0 DUP2 CALLDATALOAD SWAP1 POP PUSH2 0xDFA DUP2 PUSH2 0xDD4 JUMP JUMPDEST SWAP3 SWAP2 POP POP JUMP JUMPDEST PUSH1 0x0 DUP1 PUSH1 0x40 DUP4 DUP6 SUB SLT ISZERO PUSH2 0xE17 JUMPI PUSH2 0xE16 PUSH2 0xBC1 JUMP JUMPDEST JUMPDEST PUSH1 0x0 PUSH2 0xE25 DUP6 DUP3 DUP7 ADD PUSH2 0xC14 JUMP JUMPDEST SWAP3 POP POP PUSH1 0x20 PUSH2 0xE36 DUP6 DUP3 DUP7 ADD PUSH2 0xDEB JUMP JUMPDEST SWAP2 POP POP SWAP3 POP SWAP3 SWAP1 POP JUMP JUMPDEST PUSH1 0x0 DUP2 ISZERO ISZERO SWAP1 POP SWAP2 SWAP1 POP JUMP JUMPDEST PUSH2 0xE55 DUP2 PUSH2 0xE40 JUMP JUMPDEST DUP3 MSTORE POP POP JUMP JUMPDEST PUSH1 0x0 PUSH1 0x20 DUP3 ADD SWAP1 POP PUSH2 0xE70 PUSH1 0x0 DUP4 ADD DUP5 PUSH2 0xE4C JUMP JUMPDEST SWAP3 SWAP2 POP POP JUMP JUMPDEST PUSH1 0x0 DUP1 PUSH1 0x40 DUP4 DUP6 SUB SLT ISZERO PUSH2 0xE8D JUMPI PUSH2 0xE8C PUSH2 0xBC1 JUMP JUMPDEST JUMPDEST PUSH1 0x0 PUSH2 0xE9B DUP6 DUP3 DUP7 ADD PUSH2 0xC14 JUMP JUMPDEST SWAP3 POP POP PUSH1 0x20 PUSH2 0xEAC DUP6 DUP3 DUP7 ADD PUSH2 0xC14 JUMP JUMPDEST SWAP2 POP POP SWAP3 POP SWAP3 SWAP1 POP JUMP JUMPDEST PUSH32 0x4E487B7100000000000000000000000000000000000000000000000000000000 PUSH1 0x0 MSTORE PUSH1 0x22 PUSH1 0x4 MSTORE PUSH1 0x24 PUSH1 0x0 REVERT JUMPDEST PUSH1 0x0 PUSH1 0x2 DUP3 DIV SWAP1 POP PUSH1 0x1 DUP3 AND DUP1 PUSH2 0xEFD JUMPI PUSH1 0x7F DUP3 AND SWAP2 POP JUMPDEST PUSH1 0x20 DUP3 LT DUP2 SUB PUSH2 0xF10 JUMPI PUSH2 0xF0F PUSH2 0xEB6 JUMP JUMPDEST JUMPDEST POP SWAP2 SWAP1 POP JUMP JUMPDEST PUSH32 0x426F6F702053656E646572206164647265737320696E76616C69640000000000 PUSH1 0x0 DUP3 ADD MSTORE POP JUMP JUMPDEST PUSH1 0x0 PUSH2 0xF4C PUSH1 0x1B DUP4 PUSH2 0xAA5 JUMP JUMPDEST SWAP2 POP PUSH2 0xF57 DUP3 PUSH2 0xF16 JUMP JUMPDEST PUSH1 0x20 DUP3 ADD SWAP1 POP SWAP2 SWAP1 POP JUMP JUMPDEST PUSH1 0x0 PUSH1 0x20 DUP3 ADD SWAP1 POP DUP2 DUP2 SUB PUSH1 0x0 DUP4 ADD MSTORE PUSH2 0xF7B DUP2 PUSH2 0xF3F JUMP JUMPDEST SWAP1 POP SWAP2 SWAP1 POP JUMP JUMPDEST PUSH32 0x426F6F70205265636569766572206164647265737320696E76616C6964000000 PUSH1 0x0 DUP3 ADD MSTORE POP JUMP JUMPDEST PUSH1 0x0 PUSH2 0xFB8 PUSH1 0x1D DUP4 PUSH2 0xAA5 JUMP JUMPDEST SWAP2 POP PUSH2 0xFC3 DUP3 PUSH2 0xF82 JUMP JUMPDEST PUSH1 0x20 DUP3 ADD SWAP1 POP SWAP2 SWAP1 POP JUMP JUMPDEST PUSH1 0x0 PUSH1 0x20 DUP3 ADD SWAP1 POP DUP2 DUP2 SUB PUSH1 0x0 DUP4 ADD MSTORE PUSH2 0xFE7 DUP2 PUSH2 0xFAB JUMP JUMPDEST SWAP1 POP SWAP2 SWAP1 POP JUMP JUMPDEST PUSH1 0x0 DUP2 SWAP1 POP SWAP3 SWAP2 POP POP JUMP JUMPDEST PUSH1 0x0 PUSH2 0x1004 DUP3 PUSH2 0xA9A JUMP JUMPDEST PUSH2 0x100E DUP2 DUP6 PUSH2 0xFEE JUMP JUMPDEST SWAP4 POP PUSH2 0x101E DUP2 DUP6 PUSH1 0x20 DUP7 ADD PUSH2 0xAB6 JUMP JUMPDEST DUP1 DUP5 ADD SWAP2 POP POP SWAP3 SWAP2 POP POP JUMP JUMPDEST PUSH32 0x5F5F000000000000000000000000000000000000000000000000000000000000 PUSH1 0x0 DUP3 ADD MSTORE POP JUMP JUMPDEST PUSH1 0x0 PUSH2 0x1060 PUSH1 0x2 DUP4 PUSH2 0xFEE JUMP JUMPDEST SWAP2 POP PUSH2 0x106B DUP3 PUSH2 0x102A JUMP JUMPDEST PUSH1 0x2 DUP3 ADD SWAP1 POP SWAP2 SWAP1 POP JUMP JUMPDEST PUSH1 0x0 PUSH2 0x1082 DUP3 DUP5 PUSH2 0xFF9 JUMP JUMPDEST SWAP2 POP PUSH2 0x108D DUP3 PUSH2 0x1053 JUMP JUMPDEST SWAP2 POP DUP2 SWAP1 POP SWAP3 SWAP2 POP POP JUMP JUMPDEST PUSH1 0x0 PUSH2 0x10A4 DUP3 DUP6 PUSH2 0xFF9 JUMP JUMPDEST SWAP2 POP PUSH2 0x10B0 DUP3 DUP5 PUSH2 0xFF9 JUMP JUMPDEST SWAP2 POP DUP2 SWAP1 POP SWAP4 SWAP3 POP POP POP JUMP JUMPDEST PUSH1 0x0 PUSH2 0x10C8 DUP3 DUP5 PUSH2 0xFF9 JUMP JUMPDEST SWAP2 POP DUP2 SWAP1 POP SWAP3 SWAP2 POP POP JUMP JUMPDEST PUSH32 0x45524332303A207472616E736665722066726F6D20746865207A65726F206164 PUSH1 0x0 DUP3 ADD MSTORE PUSH32 0x6472657373000000000000000000000000000000000000000000000000000000 PUSH1 0x20 DUP3 ADD MSTORE POP JUMP JUMPDEST PUSH1 0x0 PUSH2 0x112F PUSH1 0x25 DUP4 PUSH2 0xAA5 JUMP JUMPDEST SWAP2 POP PUSH2 0x113A DUP3 PUSH2 0x10D3 JUMP JUMPDEST PUSH1 0x40 DUP3 ADD SWAP1 POP SWAP2 SWAP1 POP JUMP JUMPDEST PUSH1 0x0 PUSH1 0x20 DUP3 ADD SWAP1 POP DUP2 DUP2 SUB PUSH1 0x0 DUP4 ADD MSTORE PUSH2 0x115E DUP2 PUSH2 0x1122 JUMP JUMPDEST SWAP1 POP SWAP2 SWAP1 POP JUMP JUMPDEST PUSH32 0x45524332303A207472616E7366657220746F20746865207A65726F2061646472 PUSH1 0x0 DUP3 ADD MSTORE PUSH32 0x6573730000000000000000000000000000000000000000000000000000000000 PUSH1 0x20 DUP3 ADD MSTORE POP JUMP JUMPDEST PUSH1 0x0 PUSH2 0x11C1 PUSH1 0x23 DUP4 PUSH2 0xAA5 JUMP JUMPDEST SWAP2 POP PUSH2 0x11CC DUP3 PUSH2 0x1165 JUMP JUMPDEST PUSH1 0x40 DUP3 ADD SWAP1 POP SWAP2 SWAP1 POP JUMP JUMPDEST PUSH1 0x0 PUSH1 0x20 DUP3 ADD SWAP1 POP DUP2 DUP2 SUB PUSH1 0x0 DUP4 ADD MSTORE PUSH2 0x11F0 DUP2 PUSH2 0x11B4 JUMP JUMPDEST SWAP1 POP SWAP2 SWAP1 POP JUMP JUMPDEST PUSH32 0x4865792120596F752063616E27742074727920746F20626F6F7020796F757273 PUSH1 0x0 DUP3 ADD MSTORE PUSH32 0x656C6621203E3A63000000000000000000000000000000000000000000000000 PUSH1 0x20 DUP3 ADD MSTORE POP JUMP JUMPDEST PUSH1 0x0 PUSH2 0x1253 PUSH1 0x28 DUP4 PUSH2 0xAA5 JUMP JUMPDEST SWAP2 POP PUSH2 0x125E DUP3 PUSH2 0x11F7 JUMP JUMPDEST PUSH1 0x40 DUP3 ADD SWAP1 POP SWAP2 SWAP1 POP JUMP JUMPDEST PUSH1 0x0 PUSH1 0x20 DUP3 ADD SWAP1 POP DUP2 DUP2 SUB PUSH1 0x0 DUP4 ADD MSTORE PUSH2 0x1282 DUP2 PUSH2 0x1246 JUMP JUMPDEST SWAP1 POP SWAP2 SWAP1 POP JUMP JUMPDEST PUSH32 0x43616C6D20796F7572206372617A79207061772120426F6F702056616C756520 PUSH1 0x0 DUP3 ADD MSTORE PUSH32 0x6D757374206265206265747765656E203120746F203300000000000000000000 PUSH1 0x20 DUP3 ADD MSTORE POP JUMP JUMPDEST PUSH1 0x0 PUSH2 0x12E5 PUSH1 0x36 DUP4 PUSH2 0xAA5 JUMP JUMPDEST SWAP2 POP PUSH2 0x12F0 DUP3 PUSH2 0x1289 JUMP JUMPDEST PUSH1 0x40 DUP3 ADD SWAP1 POP SWAP2 SWAP1 POP JUMP JUMPDEST PUSH1 0x0 PUSH1 0x20 DUP3 ADD SWAP1 POP DUP2 DUP2 SUB PUSH1 0x0 DUP4 ADD MSTORE PUSH2 0x1314 DUP2 PUSH2 0x12D8 JUMP JUMPDEST SWAP1 POP SWAP2 SWAP1 POP JUMP JUMPDEST PUSH32 0x4E487B7100000000000000000000000000000000000000000000000000000000 PUSH1 0x0 MSTORE PUSH1 0x11 PUSH1 0x4 MSTORE PUSH1 0x24 PUSH1 0x0 REVERT JUMPDEST PUSH1 0x0 PUSH2 0x1355 DUP3 PUSH2 0xB4C JUMP JUMPDEST SWAP2 POP PUSH2 0x1360 DUP4 PUSH2 0xB4C JUMP JUMPDEST SWAP3 POP DUP3 DUP3 MUL PUSH2 0x136E DUP2 PUSH2 0xB4C JUMP JUMPDEST SWAP2 POP DUP3 DUP3 DIV DUP5 EQ DUP4 ISZERO OR PUSH2 0x1385 JUMPI PUSH2 0x1384 PUSH2 0x131B JUMP JUMPDEST JUMPDEST POP SWAP3 SWAP2 POP POP JUMP JUMPDEST PUSH1 0x0 PUSH2 0x1397 DUP3 PUSH2 0xB4C JUMP JUMPDEST SWAP2 POP PUSH2 0x13A2 DUP4 PUSH2 0xB4C JUMP JUMPDEST SWAP3 POP DUP3 DUP3 ADD SWAP1 POP DUP1 DUP3 GT ISZERO PUSH2 0x13BA JUMPI PUSH2 0x13B9 PUSH2 0x131B JUMP JUMPDEST JUMPDEST SWAP3 SWAP2 POP POP JUMP JUMPDEST PUSH32 0x4E487B7100000000000000000000000000000000000000000000000000000000 PUSH1 0x0 MSTORE PUSH1 0x32 PUSH1 0x4 MSTORE PUSH1 0x24 PUSH1 0x0 REVERT JUMPDEST PUSH1 0x0 PUSH2 0x13FA DUP3 PUSH2 0xB4C JUMP JUMPDEST SWAP2 POP PUSH1 0x0 DUP3 SUB PUSH2 0x140D JUMPI PUSH2 0x140C PUSH2 0x131B JUMP JUMPDEST JUMPDEST PUSH1 0x1 DUP3 SUB SWAP1 POP SWAP2 SWAP1 POP JUMP JUMPDEST PUSH32 0x537472696E67733A20686578206C656E67746820696E73756666696369656E74 PUSH1 0x0 DUP3 ADD MSTORE POP JUMP JUMPDEST PUSH1 0x0 PUSH2 0x144E PUSH1 0x20 DUP4 PUSH2 0xAA5 JUMP JUMPDEST SWAP2 POP PUSH2 0x1459 DUP3 PUSH2 0x1418 JUMP JUMPDEST PUSH1 0x20 DUP3 ADD SWAP1 POP SWAP2 SWAP1 POP JUMP JUMPDEST PUSH1 0x0 PUSH1 0x20 DUP3 ADD SWAP1 POP DUP2 DUP2 SUB PUSH1 0x0 DUP4 ADD MSTORE PUSH2 0x147D DUP2 PUSH2 0x1441 JUMP JUMPDEST SWAP1 POP SWAP2 SWAP1 POP JUMP INVALID LOG2 PUSH5 0x6970667358 0x22 SLT KECCAK256 0xE5 PUSH21 0xF3B747CA233C4D159F4A8F446B4D552F839ECD9E7F RETURNDATASIZE 0xD5 0x4C INVALID INVALID EXTCODEHASH 0xD1 GASLIMIT 0x5F PUSH5 0x736F6C6343 STOP ADDMOD SLT STOP CALLER "
				},
				"gasEstimates": {
					"creation": {
						"codeDepositCost": "1061200",
						"executionCost": "infinite",
						"totalCost": "infinite"
					},
					"external": {
						"_balances_pair(string)": "infinite",
						"balanceOf(address)": "2908",
						"balancePairOf(address,address)": "infinite",
						"decimals()": "388",
						"name()": "infinite",
						"symbol()": "infinite",
						"totalSupply()": "2460",
						"transfer(address,uint256)": "infinite"
					},
					"internal": {
						"_transfer(address,address,uint256)": "infinite"
					}
				},
				"methodIdentifiers": {
					"_balances_pair(string)": "89de1f5f",
					"balanceOf(address)": "70a08231",
					"balancePairOf(address,address)": "eb55bc6b",
					"decimals()": "313ce567",
					"name()": "06fdde03",
					"symbol()": "95d89b41",
					"totalSupply()": "18160ddd",
					"transfer(address,uint256)": "a9059cbb"
				}
			},
			"storageLayout": {
				"storage": [
					{
						"astId": 1335,
						"contract": "tiny_boop.sol:ERC20",
						"label": "_balances",
						"offset": 0,
						"slot": "0",
						"type": "t_mapping(t_address,t_uint256)"
					},
					{
						"astId": 1339,
						"contract": "tiny_boop.sol:ERC20",
						"label": "_balances_pair",
						"offset": 0,
						"slot": "1",
						"type": "t_mapping(t_string_memory_ptr,t_uint256)"
					},
					{
						"astId": 1341,
						"contract": "tiny_boop.sol:ERC20",
						"label": "_totalSupply",
						"offset": 0,
						"slot": "2",
						"type": "t_uint256"
					},
					{
						"astId": 1343,
						"contract": "tiny_boop.sol:ERC20",
						"label": "_name",
						"offset": 0,
						"slot": "3",
						"type": "t_string_storage"
					},
					{
						"astId": 1345,
						"contract": "tiny_boop.sol:ERC20",
						"label": "_symbol",
						"offset": 0,
						"slot": "4",
						"type": "t_string_storage"
					}
				],
				"types": {
					"t_address": {
						"encoding": "inplace",
						"label": "address",
						"numberOfBytes": "20"
					},
					"t_mapping(t_address,t_uint256)": {
						"encoding": "mapping",
						"key": "t_address",
						"label": "mapping(address => uint256)",
						"numberOfBytes": "32",
						"value": "t_uint256"
					},
					"t_mapping(t_string_memory_ptr,t_uint256)": {
						"encoding": "mapping",
						"key": "t_string_memory_ptr",
						"label": "mapping(string => uint256)",
						"numberOfBytes": "32",
						"value": "t_uint256"
					},
					"t_string_memory_ptr": {
						"encoding": "bytes",
						"label": "string",
						"numberOfBytes": "32"
					},
					"t_string_storage": {
						"encoding": "bytes",
						"label": "string",
						"numberOfBytes": "32"
					},
					"t_uint256": {
						"encoding": "inplace",
						"label": "uint256",
						"numberOfBytes": "32"
					}
				}
			},
			"userdoc": {
				"kind": "user",
				"methods": {},
				"version": 1
			}
		}
	}
}